:020000040800F2
:10000000C00400209D010008530E0008710D000877
:10001000510E0008CD020008550F00080000000036
:10002000000000000000000000000000770E000843
:10003000CF02000800000000750E0008790E0008CD
:10004000B7010008B7010008B7010008B7010008B0
:10005000B7010008B7010008B7010008B7010008A0
:10006000B7010008B7010008B7010008B701000890
:10007000B7010008B7010008B7010008B701000880
:10008000B7010008B7010008B7010008B701000870
:10009000B7010008B7010008B7010008B701000860
:1000A000B7010008B7010008B7010008B701000850
:1000B000B7010008B7010008B7010008B701000840
:1000C000B7010008B7010008B7010008B701000830
:1000D000B7010008B7010008B7010008B701000820
:1000E000B7010008B7010008B7010008B701000810
:1000F000B7010008B7010008B7010008B701000800
:10010000B7010008B7010008B7010008B7010008EF
:10011000B7010008B7010008B7010008B7010008DF
:10012000B7010008B7010008B7010008B7010008CF
:10013000B7010008B7010008B7010008B7010008BF
:10014000B7010008B7010008B7010008B7010008AF
:10015000B7010008B7010008B7010008B70100089F
:10016000B7010008B7010008B7010008B70100088F
:10017000B7010008B7010008B7010008000000003F
:10018000B7010008B7010008DFF80CD000F08CF8C8
:1001900000480047FD0F0008C004002006488047C3
:1001A00006480047FEE7FEE7FEE7FEE7FEE7FEE75C
:1001B000FEE7FEE7FEE7FEE7010F00088901000801
:1001C0002DE9F05F0546002092469B46884606468C
:1001D000814640241BE0284641464746224600F01F
:1001E00053F853465A46C01A914110D31146184647
:1001F000224600F03AF82D1A67EB01084F462246D6
:100200000120002100F031F817EB00094E41201EBB
:10021000A4F10104DFDC484631462A464346BDE8E6
:10022000F09F40EA01039B0703D009E008C9121FB1
:1002300008C0042AFAD203E011F8013B00F8013BA0
:10024000521EF9D27047D2B201E000F8012B491ECC
:10025000FBD270470022F6E710B513460A46044663
:100260001946FFF7F0FF204610BD202A04DB203A94
:1002700000FA02F1002070479140C2F1200320FAF9
:1002800003F3194390407047202A04DB203A21FAF7
:1002900002F00021704721FA02F3D040C2F120029F
:1002A0009140084319467047064C074D06E0E06848
:1002B00040F0010394E8070098471034AC42F6D3AD
:1002C000FFF766FF98100008B8100008FEE77047B7
:1002D000704700002DE9F84FDFF87CB100224FF0A5
:1002E00001084FF0030A4FF00F090BF1040E00BF95
:1002F0000B6808FA02F42340A3426ED14D68022D28
:1003000001D0122D0ED1D50800EB850CDCF8205061
:100310005607F70E09FA07F6B5430E69BE402E439D
:10032000CCF82060066855000F790AFA05FC07F042
:10033000030726EA0C06AF40374307604E68012EDC
:1003400005D0022E03D0112E01D0122E0ED18668B8
:10035000CF6826EA0C06AF40374387604668A6435D
:100360000C79C4F30014944034434460C6688C682C
:1003700026EA0C06AC403443C4604C68E40065D502
:10038000364C256845F480452560246822F0030535
:1003900004F480440094324C2E19D6F8084895078E
:1003A0002F0F09FA07F5AC432E4DA84201D10025C5
:1003B00024E02D4DA84201D101251FE02B4DA8427C
:1003C00001D102251AE02A4DA84201D1032515E0EA
:1003D000284DA84202D1042510E037E0264DA8425E
:1003E00001D105250AE0254DA84201D1062505E0E9
:1003F000234DA84201D1072500E00825BD40254333
:10040000C6F80858DBF800405D464E689C43F6038A
:1004100000D51C432C60DEF8004075464E689C43B6
:10042000B60300D51C432C600B4D08352C684E6874
:100430009C43F60200D51C432C60074D0C352C68FC
:100440004E689C43B60200D51C432C60521C102AF7
:10045000FFF44EAFBDE8F88F003C01404438024045
:100460000030014000000240000402400008024049
:10047000000C02400010024000140240001802402C
:10048000001C024001488068704700000000002006
:1004900070B5040004D094F83D00002510B106E0CA
:1004A000012070BD84F83C50204600F025F924203E
:1004B00084F83D002068016821F00101016000F02E
:1004C00073FA33492268B0FBF1F15160314A636835
:1004D000934206D94FF4967359434FF47A73B1FBA4
:1004E000F3F12368491C1962616891420BD84900F5
:1004F000B0FBF1F2C2F30B02042A01D2042019E08E
:10050000B0FBF1F016E0A3689BB301EBC10202EB74
:100510000112B0FBF2F242F48042120530D04BB32C
:1005200001EBC10202EB0111B0FBF1F040F480409D
:1005300040F400402168C861D4E9070108432168FC
:100540000860D4E90310084321688860D4E90501F4
:1005500008432168C8602068016841F0010101601A
:100560002564202084F83D00256384F83E50002057
:1005700070BD00E006E001EB4102B0FBF2F2CCE717
:100580000120D7E701EB4101B0FBF1F0D0E700001B
:1005900040420F00A08601002DE9FF4F81B099462F
:1005A0008B4604464FF00108FFF76CFF054694F8B0
:1005B0003D0020287BD1192301224D49204600957A
:1005C00000F0D7FB002872D194F83C0001286ED0CF
:1005D000012084F83C0020680168C90703D1016844
:1005E00041F0010101602068016821F400610160AF
:1005F000242084F83D00002626643E48E06220273F
:100600002068016841F4807101604B4600224FF080
:1006100001112046009500F0ACFB002858D121685C
:100620000BF0FE000861FFF72DFF216805464869C1
:100630004969C0F3400094F83D20C1F380214FF098
:10064000A00A12E0B9F1000F04D0FFF71BFF411B15
:10065000494501D984F83DA0216848694969C0F33A
:10066000400094F83D20C1F38021084301D1A02A25
:10067000E8D184F83D7020684169C943890717D4DF
:10068000016841F4007101602068416980691923A3
:10069000012217492046009500F06BFBC0B984F891
:1006A0003D7084F83C60002005B0BDE8F08F1DE08F
:1006B000016841F40071016021686FF48060486155
:1006C000192301220A492046009500F052FB08B187
:1006D0000320E9E74146039808F1010881428FD3DE
:1006E00084F83D7084F83C600120DDE70220DBE700
:1006F000020010000000FFFF10B586B00446142170
:100700006846FFF7A7FD13492068884220D11248A8
:10071000016841F0020101600068694600F00200D2
:100720000590C0200090122001900120029003202B
:100730000390042004900948FFF7CCFD06481030D0
:10074000016841F400110160006800F40010059098
:1007500006B010BD00540040303802400004024092
:1007600002488168027811448160704700000020CF
:100770000B4810B5016841F400710160016841F453
:1007800080610160016841F480710160032000F024
:1007900061F8002000F006F800F024F8002010BDF9
:1007A000003C024070B50D4D04464FF47A71287834
:1007B000B1FBF0F00A490968B1FBF0F000F0C4FAAF
:1007C00048B9102C07D200222146501E00F022F812
:1007D00000206C6070BD012070BD00000000002092
:1007E0000C0000200A4808B5016841F4804101600E
:1007F000006800F4804000900548001F016841F047
:1008000080510160006800F08050009008BD000039
:1008100044380240F0B40E4B1B680C46C3F302236D
:10082000C3F10705042D00D90425191D072901D29C
:10083000002300E0DB1E012606FA05F1491E2140D7
:1008400099409E40761E16403143F0BC00F002BB3A
:100850000CED00E0064900F0070208684FF6FF03C0
:10086000184040EA0220034A104308607047000025
:100870000CED00E00000FA052DE9F0470E460500FA
:1008800065D0DFF81481D8F80000F7B200F00F004F
:10089000B04207D288F80070D8F8000000F00F00CE
:1008A000B04254D128683D4C810712D5400703D58A
:1008B000206840F4E05020602878000703D52068C5
:1008C00040F4604020602068A96820F0F0000843F0
:1008D00020602878C0072DD0304968680839012881
:1008E00012D0022813D0032811D0096889070029E3
:1008F0002DDA216821F0030101432160FFF7C2FDD9
:10090000814641F2883A0EE009688903EFE70968F9
:100910008901ECE7FFF7B6FDA0EB0901514502D9CB
:100920000320BDE8F0872068696800F00C00B0EB98
:10093000810FEFD1D8F80010404601F00F01B1420D
:1009400007D90770006800F00F00B04201D0012005
:10095000E7E72878400705D52068E96820F4E050EB
:10096000084320602878000706D52068296920F40C
:10097000604040EAC100206000F026F82168084A83
:10098000C1F30311515CC840064908600020FFF71D
:1009900009FF0020C5E70000003C02400838024083
:1009A000801000080C000020044805490068096810
:1009B000044AC1F38221515CC84070470C000020FA
:1009C0000838024090100008154810B5006810F073
:1009D0000C02144813D01449042A0FD0082A0ED14F
:1009E0000F4C241F2268236802F03F025B0207D5E8
:1009F0002068C0F38810A0FB010106E0084610BD86
:100A00002168C1F38811A1FB00010023FFF7D8FB87
:100A10002168C1F30141491C4900B0FBF1F010BD50
:100A2000083802400024F40040787D012DE9F84F99
:100A3000050076D02878DFF8F8B2BE4CC00749D060
:100A4000DBF800105846C1F38101012908D0006885
:100A5000C0F3810002280AD1201D0068400206D59B
:100A60002068800336D568680028E2D032E06868E4
:100A7000B0F5803F10D0B0F5A02F206810D020F442
:100A800080302060206820F4802020606868A0B159
:100A9000FFF7F8FC06460CE0206840F48030F4E7ED
:100AA00040F480202060F7E7FFF7ECFC801B64280F
:100AB00073D820688003F7D50CE0FFF7E3FC064607
:100AC00005E000BFFFF7DEFC801B6428F0D820683B
:100AD0008003F7D42878DFF8608280074FF00009A0
:100AE0003ED5DBF80010584611F00C0F09D0006815
:100AF000C0F3810002280BD18D48001F006840021E
:100B000006D42068800715D5E868012809D111E0CE
:100B1000E868B8B10120C8F80000FFF7B3FC06464A
:100B200005E002E1FFF7AEFC801B0228C0D8206878
:100B30008007F7D52068296920F0F80040EAC10055
:100B400020600DE0C8F80090FFF79CFC064604E02A
:100B5000FFF798FC801B02281FD820688007F7D475
:100B60002878000722D5724E744869696C3671B1D5
:100B700001210160FFF786FC074604E0FFF782FCD5
:100B8000C01B022809D830688007F7D50EE0C0F8EE
:100B90000090FFF777FC074605E083E0FFF772FC63
:100BA000C01B02287ED830688007F7D42878400719
:100BB00068D5DFF87CA100270AF1380ADAF80000CE
:100BC000C0000BD4DAF8001041F08051CAF80010D0
:100BD000DAF80000012700F080500090584E30688D
:100BE000C00510D4306840F480703060FFF74AFCD4
:100BF000009005E0FFF746FC0099401A022851D802
:100C00003068C005F6D54A4EA868683601280FD06E
:100C10000528306810D020F001003060306820F0E6
:100C200004003060A868B8B1FFF72CFC00900FE01A
:100C3000306840F00100F4E740F004003060F7E76E
:100C4000FFF720FC0099411A41F28830814264D8B4
:100C500030688007F4D50EE0FFF714FC009007E041
:100C6000FFF710FC0099411A41F28830814254D8B4
:100C700030688007F4D42FB1DAF8001021F08051E9
:100C8000CAF80010A869C0B3DBF80010C1F38101F5
:100C900002294AD00228484607D0C8F86000FFF76A
:100CA000F1FB00E039E005463AE04746C8F860004D
:100CB000FFF7E8FB064604E0FFF7E4FB801B022891
:100CC0002BD820688001F7D4D5E907010843A96A29
:100CD0001C4A490802EB01416A6A41EA8211084351
:100CE00095F82C1040EA01611148001F01600120B5
:100CF0003866FFF7C7FB054605E014E0FFF7C2FBC7
:100D0000401B022809D820688001F7D50BE000BFFE
:100D1000FFF7B8FB401B022802D90320BDE8F88F7B
:100D200020688001F4D40020F8E70120F6E70000F5
:100D3000083802400038024000004742800E474217
:100D4000007000400000FFFF10B5401EB0F1807F32
:100D500001D3012010BD4FF0E02460610F21601726
:100D600000F078F80020A06107202061002010BD6D
:100D7000FEE72DE9F0471E4690460D460446C1F3B6
:100D80000747DDF8209012E0701C10D02EB1FFF75D
:100D900079FBA0EB0900B04209D9002044F8300FDC
:100DA00020216173A07320730320BDE8F0872068C1
:100DB000012F0AD0806925EA00000004000C06D04B
:100DC00000214145E0D00020EFE74069F3E7012131
:100DD000F7E700000D4808B5016841F080010160A7
:100DE000016801F080010091016841F0010101609A
:100DF000016801F001010091016841F00201016008
:100E0000006800F00200009008BD00003038024089
:100E10000D4810B50B4901600C49416000214FF4A9
:100E200080428160C0E9031241618161C161016258
:100E3000FFF72EFB002803D0BDE81040FFF748BAAB
:100E400010BD00000054004068000020A086010092
:100E5000FEE770470907090E002806DA00F00F00C8
:100E600000F1E02080F8141D704700F1E02080F8C8
:100E70000014704770477047FFF772BC30B593B0ED
:100E800030216846FFF7E6F914210CA8FFF7E2F9D4
:100E900019480025016841F080510160006800F0A8
:100EA000805011901548016841F48041016000684C
:100EB000022400F48040119001200390102004903F
:100EC000009406940820CDE90750A820CDE9090434
:100ED00004200B906846FFF7A9FD0CA90F2081E8BC
:100EE00031004FF4A0500F90E002109005210CA8A3
:100EF000FFF7C2FC13B030BD403802400070004024
:100F00001048016841F4700101600F48016841F028
:100F1000010101600C4A00210832116002680B4B8C
:100F20001A400260031D0A4A1A60026822F48022F5
:100F3000026005480C30016002495806803908609B
:100F40007047000088ED00E000380240FFFFF6FE29
:100F500010300024FEE702E008C8121F08C1002A72
:100F6000FAD170477047002001E001C1121F002A2A
:100F7000FBD170470FB42A2210B50446002084F834
:100F8000540003A92046FFF74CF9BDF836006085F0
:100F90000E98E0620F982063092210A904F1340032
:100FA000FFF73FF99DF8490084F83D009DF84A009D
:100FB00084F83E0013982064149860641598A06427
:100FC0001698E0641798206510BC5DF814FB10B506
:100FD000642304461A46D021FFF7DEFA08B1012047
:100FE00010BD64231A46D1212046FFF7D5FA002808
:100FF000F6D1012084F85400002010BDA8B0FFF7FE
:10100000B7FBFFF73BFFFFF7E5FEFFF701FF2A22E3
:10101000194912A8FFF705F9174C608DADF8720059
:10102000E06A1D90206B1E90092204F134011FA874
:10103000FFF7F7F894F83D008DF8850094F83E002E
:101040008DF88600206C2290606C2390A06C249018
:10105000E06C2590206D2690482215A96846FFF780
:10106000E0F80DF1480C05489CE80E00FFF782FF00
:101070000248FFF7ACFFFEE76800002010000020E8
:101080000000000000000000010203040607080938
:101090000000000001020304B81000080000002056
:1010A00010000000560F0008C810000810000020B3
:1010B000B0040000660F00080100000010000000EE
:0810C000000000000024F40010
:040000050800018965
:00000001FF
