:020000040800F2
:10000000C00400209D01000893160008F1110008AB
:1000100091160008CD0200089517000800000000A6
:10002000000000000000000000000000B7160008FB
:10003000CF02000800000000B5160008B91600083D
:10004000B7010008B7010008B7010008B7010008B0
:10005000B7010008B7010008B7010008B7010008A0
:10006000B7010008B7010008B7010008B701000890
:10007000B7010008B7010008B7010008B701000880
:10008000B7010008B7010008B7010008B701000870
:10009000B7010008B7010008B7010008B701000860
:1000A000B7010008B7010008B7010008B701000850
:1000B000B7010008B7010008B7010008B701000840
:1000C000B7010008B7010008B7010008B701000830
:1000D000B7010008B7010008B7010008B701000820
:1000E000B7010008B7010008B7010008B701000810
:1000F000B7010008B7010008B7010008B701000800
:10010000B7010008B7010008B7010008B7010008EF
:10011000B7010008B7010008B7010008B7010008DF
:10012000B7010008B7010008B7010008B7010008CF
:10013000B7010008B7010008B7010008B7010008BF
:10014000B7010008B7010008B7010008B7010008AF
:10015000B7010008B7010008B7010008B70100089F
:10016000B7010008B7010008B7010008B70100088F
:10017000B7010008B7010008B7010008000000003F
:10018000B7010008B7010008DFF80CD000F08CF8C8
:100190000048004741180008C00400200648804776
:1001A00006480047FEE7FEE7FEE7FEE7FEE7FEE75C
:1001B000FEE7FEE7FEE7FEE74117000889010008B9
:1001C0002DE9F05F0546002092469B46884606468C
:1001D000814640241BE0284641464746224600F01F
:1001E00053F853465A46C01A914110D31146184647
:1001F000224600F03AF82D1A67EB01084F462246D6
:100200000120002100F031F817EB00094E41201EBB
:10021000A4F10104DFDC484631462A464346BDE8E6
:10022000F09F40EA01039B0703D009E008C9121FB1
:1002300008C0042AFAD203E011F8013B00F8013BA0
:10024000521EF9D27047D2B201E000F8012B491ECC
:10025000FBD270470022F6E710B513460A46044663
:100260001946FFF7F0FF204610BD202A04DB203A94
:1002700000FA02F1002070479140C2F1200320FAF9
:1002800003F3194390407047202A04DB203A21FAF7
:1002900002F00021704721FA02F3D040C2F120029F
:1002A0009140084319467047064C074D06E0E06848
:1002B00040F0010394E8070098471034AC42F6D3AD
:1002C000FFF766FF4419000864190008FEE770474D
:1002D0007047000070B5044600F0E6F80546601C63
:1002E00002D004480078044400F0DEF8401BA0422D
:1002F000FAD370BD040000202DE9F84FDFF87CB17F
:1003000000224FF001084FF0030A4FF00F090BF1E4
:10031000040E00BF0B6808FA02F42340A3426ED11A
:100320004D68022D01D0122D0ED1D50800EB850CA1
:10033000DCF820505607F70E09FA07F6B5430E69A8
:10034000BE402E43CCF82060066855000F790AFAAB
:1003500005FC07F0030726EA0C06AF4037430760A9
:100360004E68012E05D0022E03D0112E01D0122E80
:100370000ED18668CF6826EA0C06AF403743876007
:100380004668A6430C79C4F3001494403443446097
:10039000C6688C6826EA0C06AC403443C4604C68DE
:1003A000E40065D5364C256845F480452560246811
:1003B00022F0030504F480440094324C2E19D6F840
:1003C000084895072F0F09FA07F5AC432E4DA842B0
:1003D00001D1002524E02D4DA84201D101251FE0C7
:1003E0002B4DA84201D102251AE02A4DA84201D185
:1003F000032515E0284DA84202D1042510E037E07E
:10040000264DA84201D105250AE0254DA84201D17B
:10041000062505E0234DA84201D1072500E0082567
:10042000BD402543C6F80858DBF800405D464E68DD
:100430009C43F60300D51C432C60DEF80040754653
:100440004E689C43B60300D51C432C600B4D083509
:100450002C684E689C43F60200D51C432C60074D67
:100460000C352C684E689C43B60200D51C432C60AA
:10047000521C102AFFF44EAFBDE8F88F003C01403B
:1004800044380240003001400000024000040240B5
:1004900000080240000C024000100240001402401C
:1004A00000180240001C02400148806870470000AC
:1004B0000400002070B5040004D094F83D0000252D
:1004C00010B106E0012070BD84F83C50204600F0D9
:1004D00053FB242084F83D002068016821F00101CD
:1004E000016000F0A1FC33492268B0FBF1F15160DA
:1004F000314A6368934206D94FF4967359434FF4D7
:100500007A73B1FBF3F12368491C19626168914267
:100510000BD84900B0FBF1F2C2F30B02042A01D25E
:10052000042019E0B0FBF1F016E0A3689BB301EBE7
:10053000C10202EB0112B0FBF2F242F4804212055A
:1005400030D04BB301EBC10202EB0111B0FBF1F073
:1005500040F4804040F400402168C861D4E90701BC
:10056000084321680860D4E90310084321688860C3
:10057000D4E9050108432168C8602068016841F09A
:10058000010101602564202084F83D00256384F882
:100590003E50002070BD00E006E001EB4102B0FBE0
:1005A000F2F2CCE70120D7E701EB4101B0FBF1F01B
:1005B000D0E7000040420F00A08601002DE9FF4F68
:1005C00081B099468B4604464FF00108FFF76CFF57
:1005D000054694F83D0020287BD1192301224D497E
:1005E0002046009500F049FF002872D194F83C00A5
:1005F00001286ED0012084F83C0020680168C907FA
:1006000003D1016841F0010101602068016821F413
:1006100000610160242084F83D00002626643E48E5
:10062000E06220272068016841F4807101604B4638
:1006300000224FF001112046009500F01EFF002817
:1006400058D121680BF0FE000861FFF72DFF2168EB
:10065000054648694969C0F3400094F83D20C1F35C
:1006600080214FF0A00A12E0B9F1000F04D0FFF78B
:100670001BFF411B494501D984F83DA02168486909
:100680004969C0F3400094F83D20C1F3802108433C
:1006900001D1A02AE8D184F83D7020684169C9439E
:1006A000890717D4016841F400710160206841692D
:1006B00080691923012217492046009500F0DDFECC
:1006C000C0B984F83D7084F83C60002005B0BDE8F6
:1006D000F08F1DE0016841F40071016021686FF442
:1006E00080604861192301220A492046009500F0E4
:1006F000C4FE08B10320E9E74146039808F1010868
:1007000081428FD384F83D7084F83C600120DDE79E
:100710000220DBE7020010000000FFFF2DE9F84F88
:100720001F4690468A460446DDF82890FFF7BCFE37
:10073000054694F83D0020286FD1192301226E4907
:100740002046009500F099FE0028F5D194F83C0071
:10075000012862D0012084F83C0020680168C907A4
:1007600003D1016841F0010101602068016821F4B2
:1007700000610160222084F83D00102084F83E00D2
:1007800000262664C4F8248067855C48E062608D9A
:1007900020852B464A465146204600F03EFD28B1B2
:1007A000206C84F83C60042841D04DE0208D544FEB
:1007B00068B1012814D002282068016816D041F4DD
:1007C00080610160206841698069009085E020684F
:1007D000416981690091016841F4007101607CE028
:1007E0002068016821F480610160F0E721F48061F4
:1007F00001602068016841F40061E2E7032849D8FC
:1008000001280BD0022817D04B460022394620463B
:10081000009500F032FEB8B92AE06AE02A4649465F
:10082000204600F09FFE28B1206C20280CD001202B
:10083000BDE8F88F206845E04B4600223946204647
:10084000009500F01AFE08B10320F1E72068016866
:1008500041F40071016020680169606A421C6262B3
:100860000170208D401E2085608D401E6085E1E76F
:100870002068016821F48061016020680169606A74
:10088000421C62620170208D401E2085608D401EDA
:100890006085D1E72A464946204600F063FE0028DD
:1008A000C2D120680269606A411C61620270208DB9
:1008B000401E2085608D401E608520684169C943C7
:1008C00049070AD40169606A421C62620170208D86
:1008D000401E2085608D401E6085208D00288DD1B2
:1008E000202084F83D0084F83E6084F83C600020BD
:1008F0009EE702209CE70000020010000000FFFFBE
:10090000040001002DE9F84F1F4690468A46044630
:10091000DDF82890FFF7C8FD064694F83D00202832
:100920007ED11923012243492046009600F0A5FDFF
:1009300000287DD194F83C00012879D0012084F86A
:100940003C0020680168C90703D1016841F001013A
:1009500001602068016821F400610160212084F8B1
:100960003D00102084F83E0000252564C4F8248052
:1009700067853148E062608D208533464A4651469E
:10098000204600F0B9FC28B1206C84F83C500428C3
:100990004CD00DE0206841698069009030E032461B
:1009A0004946204600F00FFE28B1206C042838D0BC
:1009B0000320BDE8F88F606A411C616221680078FD
:1009C0000861608D401E6085208D401E80B22085AC
:1009D00021684A69D24352070BD450B1606A421C65
:1009E000626200780861608D401E6085208D401E27
:1009F000208532464946204600F018FD0028D4D113
:100A0000208D0028CBD154F83D0B016841F40071D2
:100A10000160202004F81E09E57765770020C8E70B
:100A200006E02068016841F4007101600120C0E720
:100A30000220BEE7020010000000FFFF2DE9FF4F7B
:100A400083B09A46DDE9118793460446DDF840906D
:100A5000FFF72AFD064694F83D0020287DD1192392
:100A6000012243492046009600F007FD00287CD172
:100A700094F83C00012878D0012084F83C002068DC
:100A80000168C90703D1016841F0010101602068D4
:100A9000016821F400610160212084F83D004020BC
:100AA00084F83E0000252564C4F82490A4F82A8028
:100AB0003048E062608D2085CDE9007653465A4685
:100AC0002046049900F062FC80B3206C84F83C500E
:100AD000042848D008E032463946204600F073FD2D
:100AE00030B1206C042839D0032007B0BDE8F08F66
:100AF000606A411C6162216800780861208D401E97
:100B000080B22085618D491E618521684A69D24382
:100B100052070BD468B1606A421C626200780861B7
:100B2000208D401E2085608D401E6085208D002810
:100B3000D1D132463946204600F078FC0028D0D189
:100B400054F83D0B016841F400710160202004F865
:100B50001E09E57765770020C7E706E02068016891
:100B600041F4007101600120BFE70220BDE70000F1
:100B7000020010000000FFFF10B586B004461421EB
:100B80006846FFF767FB13492068884220D1124866
:100B9000016841F0020101600068694600F002004E
:100BA0000590C020009012200190012002900320A7
:100BB0000390042004900948FFF79EFB064810307C
:100BC000016841F400110160006800F40010059014
:100BD00006B010BD0054004030380240000402400E
:100BE0000248816802781144816070470400002047
:100BF0000B4810B5016841F400710160016841F4CF
:100C000080610160016841F480710160032000F09F
:100C100061F8002000F006F800F024F8002010BD74
:100C2000003C024070B50D4D04464FF47A712878AF
:100C3000B1FBF0F00A490968B1FBF0F000F0C4FA2A
:100C400048B9102C07D200222146501E00F022F88D
:100C500000206C6070BD012070BD00000400002009
:100C6000100000200A4808B5016841F48041016085
:100C7000006800F4804000900548001F016841F0C2
:100C800080510160006800F08050009008BD0000B5
:100C900044380240F0B40E4B1B680C46C3F30223E9
:100CA000C3F10705042D00D90425191D072901D218
:100CB000002300E0DB1E012606FA05F1491E214053
:100CC00099409E40761E16403143F0BC00F0E2BCD5
:100CD0000CED00E0064900F0070208684FF6FF033C
:100CE000184040EA0220034A1043086070470000A1
:100CF0000CED00E00000FA052DE9F0470E46050076
:100D000065D0DFF81481D8F80000F7B200F00F00CA
:100D1000B04207D288F80070D8F8000000F00F0049
:100D2000B04254D128683D4C810712D5400703D505
:100D3000206840F4E05020602878000703D5206840
:100D400040F4604020602068A96820F0F00008436B
:100D500020602878C0072DD03049686808390128FC
:100D600012D0022813D0032811D00968890700295E
:100D70002DDA216821F0030101432160FFF794FB84
:100D8000814641F2883A0EE009688903EFE7096875
:100D90008901ECE7FFF788FBA0EB0901514502D977
:100DA0000320BDE8F0872068696800F00C00B0EB14
:100DB000810FEFD1D8F80010404601F00F01B14289
:100DC00007D90770006800F00F00B04201D0012081
:100DD000E7E72878400705D52068E96820F4E05067
:100DE000084320602878000706D52068296920F488
:100DF000604040EAC100206000F026F82168084AFF
:100E0000C1F30311515CC840064908600020FFF798
:100E100009FF0020C5E70000003C024008380240FE
:100E20002A190008100000200448054900680968D4
:100E3000044AC1F38221515CC84070471000002071
:100E4000083802403A190008154810B5006810F03B
:100E50000C02144813D01449042A0FD0082A0ED1CA
:100E60000F4C241F2268236802F03F025B0207D563
:100E70002068C0F38810A0FB010106E0084610BD01
:100E80002168C1F38811A1FB00010023FFF798F945
:100E90002168C1F30141491C4900B0FBF1F010BDCC
:100EA000083802400024F40040787D012DE9F84F15
:100EB000050076D02878DFF8F8B2BE4CC00749D0DC
:100EC000DBF800105846C1F38101012908D0006801
:100ED000C0F3810002280AD1201D0068400206D517
:100EE0002068800336D568680028E2D032E0686860
:100EF000B0F5803F10D0B0F5A02F206810D020F4BE
:100F000080302060206820F4802020606868A0B1D4
:100F1000FFF7CAFA06460CE0206840F48030F4E798
:100F200040F480202060F7E7FFF7BEFA801B6428BA
:100F300073D820688003F7D50CE0FFF7B5FA0646B2
:100F400005E000BFFFF7B0FA801B6428F0D82068E6
:100F50008003F7D42878DFF8608280074FF000091B
:100F60003ED5DBF80010584611F00C0F09D0006890
:100F7000C0F3810002280BD18D48001F0068400299
:100F800006D42068800715D5E868012809D111E04A
:100F9000E868B8B10120C8F80000FFF785FA0646F6
:100FA00005E002E1FFF780FA801B0228C0D8206824
:100FB0008007F7D52068296920F0F80040EAC100D1
:100FC00020600DE0C8F80090FFF76EFA064604E0D6
:100FD000FFF76AFA801B02281FD820688007F7D421
:100FE0002878000722D5724E744869696C3671B151
:100FF00001210160FFF758FA074604E0FFF754FAB1
:10100000C01B022809D830688007F7D50EE0C0F869
:101010000090FFF749FA074605E083E0FFF744FA3E
:10102000C01B02287ED830688007F7D42878400794
:1010300068D5DFF87CA100270AF1380ADAF8000049
:10104000C0000BD4DAF8001041F08051CAF800104B
:10105000DAF80000012700F080500090584E306808
:10106000C00510D4306840F480703060FFF71CFA7F
:10107000009005E0FFF718FA0099401A022851D8AD
:101080003068C005F6D54A4EA868683601280FD0EA
:101090000528306810D020F001003060306820F062
:1010A00004003060A868B8B1FFF7FEF900900FE0C7
:1010B000306840F00100F4E740F004003060F7E7EA
:1010C000FFF7F2F90099411A41F28830814264D861
:1010D00030688007F4D50EE0FFF7E6F9009007E0EE
:1010E000FFF7E2F90099411A41F28830814254D861
:1010F00030688007F4D42FB1DAF8001021F0805165
:10110000CAF80010A869C0B3DBF80010C1F3810170
:1011100002294AD00228484607D0C8F86000FFF7E5
:10112000C3F900E039E005463AE04746C8F86000F8
:10113000FFF7BAF9064604E0FFF7B6F9801B02286C
:101140002BD820688001F7D4D5E907010843A96AA4
:101150001C4A490802EB01416A6A41EA82110843CC
:1011600095F82C1040EA01611148001F0160012030
:101170003866FFF799F9054605E014E0FFF794F9A2
:10118000401B022809D820688001F7D50BE000BF7A
:10119000FFF78AF9401B022802D90320BDE8F88F27
:1011A00020688001F4D40020F8E70120F6E7000071
:1011B000083802400038024000004742800E474293
:1011C000007000400000FFFF10B5401EB0F1807FAE
:1011D00001D3012010BD4FF0E02460610F216017A2
:1011E00000F058FA0020A06107202061002010BD07
:1011F000FEE701684A69D24352050CD46FF480625D
:101200004A6104210164002140F8301F202242730A
:10121000017301207047002070472DE9F84F044604
:10122000C06A1E4692460D4621680A6842F48062F2
:101230000A60042807D0012805D010F5803F02D0AD
:10124000206B112804D12068016841F4807101608D
:101250004FF001185346002241462046009600F008
:101260000CF9B8BB206908F10109B0F5804F12D024
:101270000620216800EAD51747F0F00008613346E0
:10128000524608F10701204600F028F938B1206CD9
:1012900004282FD01EE0E8B240F001001FE02168D2
:1012A000E8B20861334652464946204600F016F936
:1012B0000028ECD12068416981690091016841F4FE
:1012C000807101605346002241462046009600F09E
:1012D000D4F810B10320BDE8F88F47F0F100216881
:1012E0000861334652464946204600F0F7F8002888
:1012F000CDD1F0E70120EEE7F8B50446C06A1E46FE
:101300000D461746042807D0012805D010F5803F68
:1013100002D0206B122804D12068016841F480714A
:101320000160134600224FF001112046009600F0A4
:10133000A4F8A0B92069B0F5804F12D0062021682A
:1013400000EAD51040F0F000086133463A460E49F5
:10135000204600F0C3F838B1206C042811D00320D7
:10136000F8BD05F0FE0000E0E8B22168086106491A
:1013700033463A46891F204600F0B0F80028EBD1EA
:10138000F8BD0120F8BD0000080001002DE9F84378
:10139000044600680D46DDE9089701689846164640
:1013A00041F4807101604B4600224FF0011120464C
:1013B000009700F062F8E8B9216805F0FE000861C6
:1013C0003B464A461849204600F088F828B1206C70
:1013D00004280FD10120BDE8F883206841698069A5
:1013E00000903A464946204600F0EDF820B1206CC6
:1013F000042813D00320EEE7F5B2B8F1010F09D0AD
:101400002168300A08613A464946204600F0DBF878
:101410000028ECD1206805610020DCE72068016825
:1014200041F400710160D5E70200010070B5164675
:101430000D4604461AE02046FFF7DBFE08B1012006
:1014400070BD681C12D025B1FFF72EF8801BA84292
:101450000CD954F8400F40F0200044F81009002047
:101460002060202161732073032070BD20684069D3
:10147000C0434007DFD4002070BD2DE9F0471E4671
:1014800090460D460446C1F30747DDF8209012E070
:10149000701C10D02EB1FFF707F8A0EB0900B04286
:1014A00009D9002044F8300F20216173A073207304
:1014B0000320BDE8F0872068012F0AD0806925EA63
:1014C00000000004000C06D000214145E0D00020BF
:1014D000EFE74069F3E70121F7E700002DE9F04766
:1014E0009A4691460D46044600264FF02008C1F367
:1014F00007472AE020684069C043400512D42068AD
:10150000016841F40071016021686FF480604861F6
:1015100004202064266384F83D8084F83C60012028
:10152000BDE8F087B9F1FF3F0FD0B9F1000F05D04A
:10153000FEF7BAFFA0EB0A01494506D944F8306F1F
:1015400084F80D8026730320EAE72068012F07D076
:10155000D0F8180025EA00000004000CE0D0C9E72C
:101560004069F7E72DE9F041002590460E46044614
:10157000202721E04069C043C0060CD421686FF0E9
:10158000100048612564256384F83D7084F83C5060
:101590000120BDE8F0812EB1FEF786FFA0EB080028
:1015A000B04209D954F8400F40F0200044F8040933
:1015B000677025700320ECE720684169C94349063C
:1015C000D8D40020E5E770B516460D4604461AE06B
:1015D0002046FFF70EFE08B1012070BD681C12D036
:1015E00025B1FEF761FF801BA8420CD954F8400FCB
:1015F00040F0200044F81009002020602021617391
:101600002073032070BD20684069C0430006DFD40A
:10161000002070BD0D4808B5016841F080010160EF
:10162000016801F080010091016841F00101016051
:10163000016801F001010091016841F002010160BF
:10164000006800F00200009008BD00003038024041
:101650000D4810B50B4901600C49416000214FF461
:1016600080428160C0E9031241618161C161016210
:10167000FEF720FF002803D0BDE81040FEF728BE8B
:1016800010BD0000005400406C000020A086010046
:10169000FEE770470907090E002806DA00F00F0080
:1016A00000F1E02080F8141D704700F1E02080F880
:1016B0000014704770477047FFF792BA30B593B087
:1016C00030216846FEF7C6FD14210CA8FEF7C2FDC6
:1016D00019480025016841F080510160006800F060
:1016E000805011901548016841F480410160006804
:1016F000022400F4804011900120039010200490F7
:10170000009406940820CDE90750A820CDE90904EB
:1017100004200B906846FFF7C9FB0CA90F2081E855
:1017200031004FF4A0500F90E002109005210CA85A
:10173000FFF7E2FA13B030BD4038024000700040BD
:101740001048016841F4700101600F48016841F0E0
:10175000010101600C4A00210832116002680B4B44
:101760001A400260031D0A4A1A60026822F48022AD
:10177000026005480C300160024958068039086053
:101780007047000088ED00E000380240FFFFF6FEE1
:1017900010300024FEE702E008C8121F08C1002A2A
:1017A000FAD170477047002001E001C1121F002AE2
:1017B000FBD170470FB42A2210B50446002084F8EC
:1017C000540003A92046FEF72CFDBDF836006085C5
:1017D0000E98E0620F982063092210A904F13400EA
:1017E000FEF71FFD9DF8490084F83D009DF84A0072
:1017F00084F83E0013982064149860641598A064DF
:101800001698E0641798206510BC00205DF814FB62
:1018100010B5642304461A46D021FEF7CFFE08B166
:10182000012010BD64231A46D1212046FEF7C6FED2
:101830000028F6D1012084F85400002010BD0000DB
:10184000A8B0FFF7D5F9FFF739FFFFF7E3FEFFF781
:10185000FFFE2A22214912A8FEF7E3FC1F4C608DEF
:10186000ADF87200E06A1D90206B1E90092204F111
:1018700034011FA8FEF7D5FC94F83D008DF88500D3
:1018800094F83E008DF88600206C2290606C2390C6
:10189000A06C2490E06C2590206D2690482215A91C
:1018A0006846FEF7BEFC0DF1480C0D489CE80E00A2
:1018B000FFF780FF0A48FFF7ABFF4FF47A7401226D
:1018C0001A21074800F024F82046FEF703FD054AD8
:1018D0001A21034800F008F8F1E700006C0000202E
:1018E00014000020000000207CB515468DF804107F
:1018F00064240646012301AAD0210094FFF702F8D0
:1019000001232A46D12130460094FEF707FF7CBD13
:1019100017B583B06424012305AA8DE81C000A468C
:10192000D021FFF78BF806B010BD000000000000CA
:10193000000001020304060708090000000001027C
:1019400003040000641900080000002014000000D7
:10195000961700087819000814000020AC04000055
:10196000A6170008000000000100000010000000A1
:08197000000000000024F40057
:040000050800018965
:00000001FF
