:020000040800F2
:10000000680500209D010008EF1B00084D1700083F
:10001000ED1B000829080008F11C00080000000082
:10002000000000000000000000000000131C000899
:100030002B08000800000000111C0008151C000817
:10004000B7010008B7010008B7010008B7010008B0
:10005000B7010008B7010008B7010008B7010008A0
:10006000B7010008B7010008B7010008B701000890
:10007000B7010008B7010008B7010008B701000880
:10008000B7010008B7010008B7010008B701000870
:10009000B7010008B7010008B7010008B701000860
:1000A000B7010008B7010008B7010008B701000850
:1000B000B7010008B7010008B7010008B701000840
:1000C000B7010008B7010008B7010008B701000830
:1000D000B7010008B7010008B7010008B701000820
:1000E000B7010008B7010008B7010008B701000810
:1000F000B7010008B7010008B7010008B701000800
:10010000B7010008B7010008B7010008B7010008EF
:10011000B7010008B7010008B7010008B7010008DF
:10012000B7010008B7010008B7010008B7010008CF
:10013000B7010008B7010008B7010008B7010008BF
:10014000B7010008B7010008B7010008B7010008AF
:10015000B7010008B7010008B7010008B70100089F
:10016000B7010008B7010008B7010008B70100088F
:10017000B7010008B7010008B7010008000000003F
:10018000B7010008B7010008DFF80CD000F028FB29
:1001900000480047A1250008680500200648804760
:1001A00006480047FEE7FEE7FEE7FEE7FEE7FEE75C
:1001B000FEE7FEE7FEE7FEE79D1C00088901000858
:1001C0002DE9F05F0546002092469B46884606468C
:1001D000814640241BE0284641464746224600F01F
:1001E00063F953465A46C01A914110D31146184636
:1001F000224600F04AF92D1A67EB01084F462246C5
:100200000120002100F041F917EB00094E41201EAA
:10021000A4F10104DFDC484631462A464346BDE8E6
:10022000F09F40EA01039B0703D009E008C9121FB1
:1002300008C0042AFAD203E011F8013B00F8013BA0
:10024000521EF9D27047D2B201E000F8012B491ECC
:10025000FBD270470022F6E710B513460A46044663
:100260001946FFF7F0FF204610BD2DE9FE4F81EA49
:10027000030404F0004421F0004100944FF0000B0F
:1002800023F0004350EA01045ED052EA03045BD03D
:10029000C3F30A54C1F30A552C44A4F2F334019475
:1002A000A0FB0254C1F3130141F48011C3F3130303
:1002B00043F4801301FB024400FB034E840A970AB7
:1002C00044EA815447EA8357A4FB076802958D0AE4
:1002D00005FB07854FEA932C04FB0C542705029D70
:1002E0004FEA065847EA1637B5EB08056EEB070CE0
:1002F000870E920E47EA811742EA8312A7FB02019A
:10030000B6EB0B0164EB00042B0D43EA0C335E18D3
:1003100044EB1C50DA465146E7FB0201C5F31304D7
:100320004FEA0B3343EA14534FEA0432019C43EA89
:100330000603A4F10C040294009CCDE900B400F083
:1003400009F903B0BDE8F08F00200146F9E72DE977
:10035000F04D81EA030404F0004B21F000451446FF
:100360004FF0000A23F0004150EA050220D054EA81
:1003700001021DD0C5F30A570246C5F31303C1F3AA
:100380001300C1F30A5640F4801543F48013A7EB21
:100390000608101BD64608F2FD3873EB050002D3A1
:1003A00008F1010801E092185B41B8F1000F03DA8F
:1003B00000200146BDE8F08D00204FF48011064674
:1003C00084460EE0171B73EB050705D3121B63EB86
:1003D000050306434CEA010C49084FEA3000921825
:1003E0005B4150EA0107EDD152EA030012D082EAE4
:1003F000040083EA0501084305D0101BAB4106D277
:100400000122002306E000224FF0004302E06FF0DB
:10041000010253101AEB06004CEB085110EB0A00D6
:1004200041EB0B01BDE8F04D00F085B800F0004253
:1004300030F000400AD0C10D01F56071C0F3160024
:1004400042EA0151C20840071143704700200146AB
:10045000704701F0004330B421F0004150EA01023E
:1004600006D00A0DA2F56072C1F31301002A02DC66
:1004700030BC00207047440F44EAC104C100E018BA
:1004800030BC00EBC25000F01FB8202A04DB203A39
:1004900000FA02F1002070479140C2F1200320FAD7
:1004A00003F3194390407047202A04DB203A21FAD5
:1004B00002F00021704721FA02F3D040C2F120027D
:1004C00091400843194670470029A8BF7047401C57
:1004D000490008BF20F00100704710B4B0FA80FC5A
:1004E00000FA0CF050EA010404BF10BC704749B197
:1004F000CCF1200421FA04F411FA0CF118BF012107
:1005000021430843A3EB0C01CB1D4FEA00614FEAE6
:10051000102042BF002010BC704700EBC3501044B5
:100520000029A4BF10BC7047401C490008BF20F040
:10053000010010BC704710B5141E73F1000408DAF6
:10054000401C41F1000192185B411A4301D120F097
:10055000010010BD2DE9F04D92469B4611B1B1FA54
:1005600081F202E0B0FA80F220329046FFF78DFF70
:1005700004460F4640EA0A0041EA0B0153465A4638
:10058000084313D0114653EA010019D0C8F14002C4
:100590005046FFF789FF05460E46504659464246EB
:1005A000FFF773FF084305D0012004E020463946D9
:1005B000BDE8F08D0020054346EAE0762C43374342
:1005C0000A986305E40AA0EB08000022FD0A44EA49
:1005D00047540A3002D500200146E9E70105101909
:1005E0006941DDE9084500196941BDE8F04DA2E720
:1005F0002DE9FE4F804681EA0300C00F0C460090B3
:1006000021F0004123F00045B8EB0200A94105D2DA
:100610004046214690461C460B46024623F00040C9
:10062000104347D0270DC7F30A00C3F30A510290C5
:10063000401A019040286BDAC3F3130040F4801B8A
:100640000098924620B10023D2EB030A63EB0B0B18
:1006500001985946C0F140025046FFF716FF064682
:100660000D4650465946019A00F0CCF810EB0800B0
:100670006141002487EA115284EAE7731A4340D0AB
:10068000009A62B3019A012A4FEA075215DC001B57
:1006900061EB02014FF0004202EA0752CDE900424D
:1006A000001C41F5801132462B46FFF753FF03B083
:1006B000BDE8F08F40462146F9E7001B61EB0201DF
:1006C000001C41F5801300185B412018A2F50017AB
:1006D00047EB030140EAD570B6196D4111E06D0892
:1006E0004FEA360645EAC0754FEA0752001B61EB38
:1006F0000201001C41F5801149084FEA3000001941
:10070000514132462B4603B0BDE8F04FFFF713BF0F
:100710000098012240000023D0EB020263EBE0735B
:10072000009821464FEAE074B8EB000061EB040149
:10073000E9E783F000435BE781F0004158E72DE9EA
:10074000F04D00231A461B1A8A4103DB00200146A4
:10075000BDE8F08DC1F30A52C1F3130141F48015D5
:100760004FF0000BD10702D100186D41521E002737
:10077000044640F2FF11384601EB620A3E468046CD
:10078000024600204FF48011FFF78EFEC21971411E
:10079000BB1846EB0100B4EB030C75EB000C04D363
:1007A000E41A65EB000517460E46241908F101000E
:1007B0006D4180463428E3DDF91946EB0600091B3C
:1007C000A84103D24FF0FF32134601E00022134646
:1007D0001BEB070046EB0A51BDE8F04DFFF7ABBE3F
:1007E000064C074D06E0E06840F0010394E807007E
:1007F00098471034AC42F6D3FFF7CAFCD82800085B
:10080000F8280008202A06DBCB17203A41FA02F02C
:1008100043EAE07306E041FA02F3D040C2F120025D
:100820009140084319467047FEE770477047000043
:1008300070B5044600F0E6F80546601C02D0044896
:100840000078044400F0DEF8401BA042FAD370BDEB
:10085000000000202DE9F84FDFF87CB100224FF0B6
:1008600001084FF0030A4FF00F090BF1040E00BF0F
:100870000B6808FA02F42340A3426ED14D68022DA2
:1008800001D0122D0ED1D50800EB850CDCF82050DC
:100890005607F70E09FA07F6B5430E69BE402E4318
:1008A000CCF82060066855000F790AFA05FC07F0BD
:1008B000030726EA0C06AF40374307604E68012E57
:1008C00005D0022E03D0112E01D0122E0ED1866833
:1008D000CF6826EA0C06AF40374387604668A643D8
:1008E0000C79C4F30014944034434460C6688C68A7
:1008F00026EA0C06AC403443C4604C68E40065D57D
:10090000364C256845F480452560246822F00305AF
:1009100004F480440094324C2E19D6F80848950708
:100920002F0F09FA07F5AC432E4DA84201D100253F
:1009300024E02D4DA84201D101251FE02B4DA842F6
:1009400001D102251AE02A4DA84201D1032515E064
:10095000284DA84202D1042510E037E0264DA842D8
:1009600001D105250AE0254DA84201D1062505E063
:10097000234DA84201D1072500E00825BD402543AD
:10098000C6F80858DBF800405D464E689C43F60305
:1009900000D51C432C60DEF8004075464E689C4331
:1009A000B60300D51C432C600B4D08352C684E68EF
:1009B0009C43F60200D51C432C60074D0C352C6877
:1009C0004E689C43B60200D51C432C60521C102A72
:1009D000FFF44EAFBDE8F88F003C014044380240C0
:1009E00000300140000002400004024000080240C4
:1009F000000C0240001002400014024000180240A7
:100A0000001C024001488068704700000000002080
:100A100070B5040004D094F83D00002510B106E044
:100A2000012070BD84F83C50204600F053FB242088
:100A300084F83D002068016821F00101016000F0A8
:100A4000A1FC33492268B0FBF1F15160314A63687F
:100A5000934206D94FF4967359434FF47A73B1FB1E
:100A6000F3F12368491C1962616891420BD849006F
:100A7000B0FBF1F2C2F30B02042A01D2042019E008
:100A8000B0FBF1F016E0A3689BB301EBC10202EBEF
:100A90000112B0FBF2F242F48042120530D04BB3A7
:100AA00001EBC10202EB0111B0FBF1F040F4804018
:100AB00040F400402168C861D4E907010843216877
:100AC0000860D4E90310084321688860D4E905016F
:100AD00008432168C8602068016841F00101016095
:100AE0002564202084F83D00256384F83E500020D2
:100AF00070BD00E006E001EB4102B0FBF2F2CCE792
:100B00000120D7E701EB4101B0FBF1F0D0E7000095
:100B100040420F00A08601002DE9FF4F81B09946A9
:100B20008B4604464FF00108FFF76CFF054694F82A
:100B30003D0020287BD1192301224D4920460095F4
:100B400000F049FF002872D194F83C0001286ED0D3
:100B5000012084F83C0020680168C90703D10168BE
:100B600041F0010101602068016821F40061016029
:100B7000242084F83D00002626643E48E0622027B9
:100B80002068016841F4807101604B4600224FF0FB
:100B900001112046009500F01EFF002858D1216861
:100BA0000BF0FE000861FFF72DFF2168054648693C
:100BB0004969C0F3400094F83D20C1F380214FF013
:100BC000A00A12E0B9F1000F04D0FFF71BFF411B90
:100BD000494501D984F83DA0216848694969C0F3B5
:100BE000400094F83D20C1F38021084301D1A02AA0
:100BF000E8D184F83D7020684169C943890717D45A
:100C0000016841F40071016020684169806919231D
:100C1000012217492046009500F0DDFEC0B984F896
:100C20003D7084F83C60002005B0BDE8F08F1DE009
:100C3000016841F40071016021686FF480604861CF
:100C4000192301220A492046009500F0C4FE08B18C
:100C50000320E9E74146039808F1010881428FD358
:100C600084F83D7084F83C600120DDE70220DBE77A
:100C7000020010000000FFFF2DE9F84F1F469046CC
:100C80008A460446DDF82890FFF7BCFE054694F836
:100C90003D0020286FD1192301226E49204600957E
:100CA00000F099FE0028F5D194F83C00012862D0AC
:100CB000012084F83C0020680168C90703D101685D
:100CC00041F0010101602068016821F400610160C8
:100CD000222084F83D00102084F83E00002626647F
:100CE000C4F8248067855C48E062608D20852B46CF
:100CF0004A465146204600F03EFD28B1206C84F85B
:100D00003C60042841D04DE0208D544F68B101284B
:100D100014D002282068016816D041F48061016077
:100D2000206841698069009085E020684169816997
:100D30000091016841F4007101607CE02068016865
:100D400021F480610160F0E721F480610160206896
:100D5000016841F40061E2E7032849D801280BD07B
:100D6000022817D04B46002239462046009500F055
:100D700032FEB8B92AE06AE02A464946204600F029
:100D80009FFE28B1206C20280CD00120BDE8F88FF0
:100D9000206845E04B46002239462046009500F089
:100DA0001AFE08B10320F1E72068016841F40071E0
:100DB000016020680169606A421C62620170208DD6
:100DC000401E2085608D401E6085E1E72068016837
:100DD00021F48061016020680169606A421C6262DE
:100DE0000170208D401E2085608D401E6085D1E7FA
:100DF0002A464946204600F063FE0028C2D12068FA
:100E00000269606A411C61620270208D401E20856B
:100E1000608D401E608520684169C94349070AD436
:100E20000169606A421C62620170208D401E20854B
:100E3000608D401E6085208D00288DD1202084F893
:100E40003D0084F83E6084F83C6000209EE702206C
:100E50009CE70000020010000000FFFF04000100FA
:100E60002DE9F84F1F4690468A460446DDF8289043
:100E7000FFF7C8FD064694F83D0020287ED11923CF
:100E8000012243492046009600F0A5FD00287DD1AF
:100E900094F83C00012879D0012084F83C002068B7
:100EA0000168C90703D1016841F0010101602068B0
:100EB000016821F400610160212084F83D001020C8
:100EC00084F83E0000252564C4F8248067853148F5
:100ED000E062608D208533464A465146204600F048
:100EE000B9FC28B1206C84F83C5004284CD00DE0AB
:100EF000206841698069009030E0324649462046CA
:100F000000F00FFE28B1206C042838D00320BDE883
:100F1000F88F606A411C6162216800780861608D09
:100F2000401E6085208D401E80B2208521684A6960
:100F3000D24352070BD450B1606A421C62620078FF
:100F40000861608D401E6085208D401E20853246E0
:100F50004946204600F018FD0028D4D1208D0028F5
:100F6000CBD154F83D0B016841F4007101602020A1
:100F700004F81E09E57765770020C8E706E02068D9
:100F8000016841F4007101600120C0E70220BEE762
:100F9000020010000000FFFF2DE9FF4F83B09A46CA
:100FA000DDE9118793460446DDF84090FFF72AFDFE
:100FB000064694F83D0020287DD11923012243499B
:100FC0002046009600F007FD00287CD194F83C00F4
:100FD000012878D0012084F83C0020680168C90706
:100FE00003D1016841F0010101602068016821F42A
:100FF00000610160212084F83D00402084F83E001B
:1010000000252564C4F82490A4F82A803048E062C2
:10101000608D2085CDE9007653465A4620460499D6
:1010200000F062FC80B3206C84F83C50042848D067
:1010300008E032463946204600F073FD30B1206C9E
:10104000042839D0032007B0BDE8F08F606A411C46
:101050006162216800780861208D401E80B2208581
:10106000618D491E618521684A69D24352070BD4BC
:1010700068B1606A421C626200780861208D401E7F
:101080002085608D401E6085208D0028D1D132469C
:101090003946204600F078FC0028D0D154F83D0BAA
:1010A000016841F400710160202004F81E09E57711
:1010B00065770020C7E706E02068016841F4007109
:1010C00001600120BFE70220BDE700000200100020
:1010D0000000FFFF10B586B0044614216846FFF7F4
:1010E000B9F813492068884220D11248016841F0BC
:1010F000020101600068694600F002000590C0200E
:1011000000901220019001200290032003900420FF
:1011100004900948FFF79EFB06481030016841F42F
:1011200000110160006800F40010059006B010BDC9
:1011300000540040303802400004024002488168F8
:101140000278114481607047000000200B4810B500
:10115000016841F400710160016841F4806101603F
:10116000016841F480710160032000F061F8002003
:1011700000F006F800F024F8002010BD003C02400A
:1011800070B50D4D04464FF47A712878B1FBF0F03C
:101190000A490968B1FBF0F000F0C4FA48B9102C14
:1011A00007D200222146501E00F022F800206C6079
:1011B00070BD012070BD0000000000200C00002068
:1011C0000A4808B5016841F480410160006800F4F4
:1011D000804000900548001F016841F08051016087
:1011E000006800F08050009008BD000044380240C4
:1011F000F0B40E4B1B680C46C3F30223C3F1070582
:10120000042D00D90425191D072901D2002300E06F
:10121000DB1E012606FA05F1491E214099409E4039
:10122000761E16403143F0BC00F0E2BC0CED00E04D
:10123000064900F0070208684FF6FF03184040EA2D
:101240000220034A10430860704700000CED00E0E4
:101250000000FA052DE9F0470E46050065D0DFF8DD
:101260001481D8F80000F7B200F00F00B04207D2A6
:1012700088F80070D8F8000000F00F00B04254D198
:1012800028683D4C810712D5400703D5206840F4FB
:10129000E05020602878000703D5206840F46040C3
:1012A00020602068A96820F0F000084320602878BA
:1012B000C0072DD0304968680839012812D00228AB
:1012C00013D0032811D00968890700292DDA216875
:1012D00021F0030101432160FFF794FB814641F2B5
:1012E000883A0EE009688903EFE709688901ECE7AD
:1012F000FFF788FBA0EB0901514502D90320BDE8A7
:10130000F0872068696800F00C00B0EB810FEFD126
:10131000D8F80010404601F00F01B14207D907701C
:10132000006800F00F00B04201D00120E7E7287804
:10133000400705D52068E96820F4E05008432060A4
:101340002878000706D52068296920F4604040EA23
:10135000C100206000F026F82168084AC1F303119B
:10136000515CC840064908600020FFF709FF0020D3
:10137000C5E70000003C0240083802401C28000875
:101380000C0000200448054900680968044AC1F3BC
:101390008221515CC84070470C0000200838024090
:1013A0002C280008154810B5006810F00C021448ED
:1013B00013D01449042A0FD0082A0ED10F4C241F31
:1013C0002268236802F03F025B0207D52068C0F361
:1013D0008810A0FB010106E0084610BD2168C1F39A
:1013E0008811A1FB00010023FEF7EAFE2168C1F38A
:1013F0000141491C4900B0FBF1F010BD0838024022
:101400000024F40040787D012DE9F84F050076D0E6
:101410002878DFF8F8B2BE4CC00749D0DBF80010DE
:101420005846C1F38101012908D00068C0F381004A
:1014300002280AD1201D0068400206D520688003DA
:1014400036D568680028E2D032E06868B0F5803FA1
:1014500010D0B0F5A02F206810D020F4803020608C
:10146000206820F4802020606868A0B1FFF7CAFAE5
:1014700006460CE0206840F48030F4E740F4802019
:101480002060F7E7FFF7BEFA801B642873D8206856
:101490008003F7D50CE0FFF7B5FA064605E000BF7C
:1014A000FFF7B0FA801B6428F0D820688003F7D4D7
:1014B0002878DFF8608280074FF000093ED5DBF81E
:1014C0000010584611F00C0F09D00068C0F38100DD
:1014D00002280BD18D48001F0068400206D4206806
:1014E000800715D5E868012809D111E0E868B8B18E
:1014F0000120C8F80000FFF785FA064605E002E182
:10150000FFF780FA801B0228C0D820688007F7D533
:101510002068296920F0F80040EAC10020600DE051
:10152000C8F80090FFF76EFA064604E0FFF76AFA83
:10153000801B02281FD820688007F7D4287800076E
:1015400022D5724E744869696C3671B1012101600F
:10155000FFF758FA074604E0FFF754FAC01B0228C9
:1015600009D830688007F7D50EE0C0F80090FFF783
:1015700049FA074605E083E0FFF744FAC01B02285A
:101580007ED830688007F7D42878400768D5DFF820
:101590007CA100270AF1380ADAF80000C0000BD459
:1015A000DAF8001041F08051CAF80010DAF80000B3
:1015B000012700F080500090584E3068C00510D4CC
:1015C000306840F480703060FFF71CFA009005E04E
:1015D000FFF718FA0099401A022851D83068C00560
:1015E000F6D54A4EA868683601280FD0052830681D
:1015F00010D020F001003060306820F0040030602E
:10160000A868B8B1FFF7FEF900900FE0306840F02D
:101610000100F4E740F004003060F7E7FFF7F2F96B
:101620000099411A41F28830814264D830688007BD
:10163000F4D50EE0FFF7E6F9009007E0FFF7E2F9D6
:101640000099411A41F28830814254D830688007AD
:10165000F4D42FB1DAF8001021F08051CAF800104C
:10166000A869C0B3DBF80010C1F3810102294AD098
:101670000228484607D0C8F86000FFF7C3F900E029
:1016800039E005463AE04746C8F86000FFF7BAF986
:10169000064604E0FFF7B6F9801B02282BD8206825
:1016A0008001F7D4D5E907010843A96A1C4A490813
:1016B00002EB01416A6A41EA8211084395F82C1055
:1016C00040EA01611148001F016001203866FFF700
:1016D00099F9054605E014E0FFF794F9401B02284C
:1016E00009D820688001F7D50BE000BFFFF78AF921
:1016F000401B022802D90320BDE8F88F2068800132
:10170000F4D40020F8E70120F6E700000838024092
:101710000038024000004742800E474200700040FF
:101720000000FFFF10B5401EB0F1807F01D3012003
:1017300010BD4FF0E02460610F21601700F058FAEF
:101740000020A06107202061002010BDFEE7016895
:101750004A69D24352050CD46FF480624A61042175
:101760000164002140F8301F2022427301730120E0
:101770007047002070472DE9F84F0446C06A1E46A6
:1017800092460D4621680A6842F480620A60042885
:1017900007D0012805D010F5803F02D0206B11281A
:1017A00004D12068016841F4807101604FF0011894
:1017B0005346002241462046009600F00CF9B8BB83
:1017C000206908F10109B0F5804F12D00620216888
:1017D00000EAD51747F0F00008613346524608F199
:1017E0000701204600F028F938B1206C04282FD0DA
:1017F0001EE0E8B240F001001FE02168E8B2086195
:10180000334652464946204600F016F90028ECD1EE
:101810002068416981690091016841F4807101602B
:101820005346002241462046009600F0D4F810B1FD
:101830000320BDE8F88F47F0F100216808613346C6
:1018400052464946204600F0F7F80028CDD1F0E78F
:101850000120EEE7F8B50446C06A1E460D4617465D
:10186000042807D0012805D010F5803F02D0206B56
:10187000122804D12068016841F480710160134688
:1018800000224FF001112046009600F0A4F8A0B904
:101890002069B0F5804F12D00620216800EAD510EB
:1018A00040F0F000086133463A460E49204600F009
:1018B000C3F838B1206C042811D00320F8BD05F01E
:1018C000FE0000E0E8B221680861064933463A4666
:1018D000891F204600F0B0F80028EBD1F8BD0120A8
:1018E000F8BD0000080001002DE9F8430446006837
:1018F0000D46DDE9089701689846164641F4807167
:1019000001604B4600224FF001112046009700F085
:1019100062F8E8B9216805F0FE0008613B464A46D6
:101920001849204600F088F828B1206C04280FD10F
:101930000120BDE8F88320684169806900903A463B
:101940004946204600F0EDF820B1206C042813D061
:101950000320EEE7F5B2B8F1010F09D02168300A93
:1019600008613A464946204600F0DBF80028ECD1F1
:10197000206805610020DCE72068016841F40071FF
:101980000160D5E70200010070B516460D46044619
:101990001AE02046FFF7DBFE08B1012070BD681C8D
:1019A00012D025B1FFF72EF8801BA8420CD954F8AD
:1019B000400F40F0200044F8100900202060202152
:1019C00061732073032070BD20684069C0434007E5
:1019D000DFD4002070BD2DE9F0471E4690460D462D
:1019E0000446C1F30747DDF8209012E0701C10D0C8
:1019F0002EB1FFF707F8A0EB0900B04209D900208B
:101A000044F8300F20216173A07320730320BDE8D8
:101A1000F0872068012F0AD0806925EA00000004C1
:101A2000000C06D000214145E0D00020EFE74069DE
:101A3000F3E70121F7E700002DE9F0479A469146C8
:101A40000D46044600264FF02008C1F307472AE060
:101A500020684069C043400512D42068016841F401
:101A60000071016021686FF4806048610420206487
:101A7000266384F83D8084F83C600120BDE8F0874F
:101A8000B9F1FF3F0FD0B9F1000F05D0FEF7BAFF53
:101A9000A0EB0A01494506D944F8306F84F80D805F
:101AA00026730320EAE72068012F07D0D0F818003A
:101AB00025EA00000004000CE0D0C9E74069F7E720
:101AC0002DE9F041002590460E460446202721E0EE
:101AD0004069C043C0060CD421686FF01000486113
:101AE0002564256384F83D7084F83C500120BDE8EE
:101AF000F0812EB1FEF786FFA0EB0800B04209D9B5
:101B000054F8400F40F0200044F804096770257035
:101B10000320ECE720684169C9434906D8D4002076
:101B2000E5E770B516460D4604461AE02046FFF775
:101B30000EFE08B1012070BD681C12D025B1FEF761
:101B400061FF801BA8420CD954F8400F40F02000E0
:101B500044F81009002020602021617320730320C5
:101B600070BD20684069C0430006DFD4002070BD0E
:101B70000D4808B5016841F080010160016801F07D
:101B800080010091016841F001010160016801F0EC
:101B900001010091016841F002010160006800F05C
:101BA0000200009008BD0000303802400D4810B51A
:101BB0000B4901600C49416000214FF48042816073
:101BC000C0E9031241618161C1610162FEF720FF3A
:101BD000002803D0BDE81040FEF728BE10BD00006D
:101BE0000054004010010020A0860100FEE770476D
:101BF0000907090E002806DA00F00F0000F1E020C6
:101C000080F8141D704700F1E02080F80014704740
:101C100070477047FFF792BA30B593B030216846ED
:101C2000FEF718FB14210CA8FEF714FB1948002539
:101C3000016841F080510160006800F0805011900F
:101C40001548016841F4804101600068022400F4F5
:101C5000804011900120039010200490009406947D
:101C60000820CDE90750A820CDE9090404200B90F5
:101C70006846FFF7C9FB0CA90F2081E831004FF43B
:101C8000A0500F90E002109005210CA8FFF7E2FA97
:101C900013B030BD40380240007000401048016869
:101CA00041F4700101600F48016841F001010160D9
:101CB0000C4A00210832116002680B4B1A40026086
:101CC000031D0A4A1A60026822F480220260054855
:101CD0000C300160024958068039086070470000E6
:101CE00088ED00E000380240FFFFF6FE10300024CF
:101CF000FEE703B401984100009850EAC12018BFE4
:101D000004204A0D18BF40F0010040F2FF72B2EB10
:101D1000515F08BF40F00200012808BF052002B053
:101D2000704700000000000070B59B482DED020BCD
:101D30002DED068B079D25F00044A04218DC974846
:101D4000844202DC0AD1069840B19DED060BBDEC41
:101D5000068B02B0BDE8704000F003BB002DCCBF85
:101D60009FED8F0B9FED900BBDEC068B02B070BD0D
:101D70008F48A04215DD8F48A042D8BF4FF0FF34F6
:101D800058DD9DED060B51EC100BFFF7B2FF042858
:101D900008BF00F0FDFA9DED060BBDEC068B02B00E
:101DA00070BD9DED060B51EC100B00F075FBCDE9FD
:101DB000060181489FED828BA0423CDD8248A04213
:101DC0001FDD00249FED82AB9DED060B53EC1A2B1B
:101DD00051EC100BFEF70CFC9DED060B41EC190BC2
:101DE00053EC1A2B51EC100BFEF73FFA53EC182B67
:101DF000FEF79FFC53EC192BFEF7A9FACDE906017B
:101E000049E09DED060B012453EC182B51EC100B0F
:101E1000FEF7EEFB9DED060B41EC190B53EC182B76
:101E200051EC100BFEF785FC53EC192BFEF78FFAE3
:101E3000CDE906012FE06848A0421FDD02249FED96
:101E4000689B9DED060B53EC192B51EC100BFEF724
:101E50000CFA53EC182BFEF7CBFB9DED060B41EC77
:101E6000180B53EC192B51EC100BFEF762FC53ECE2
:101E7000182BFEF76CFACDE906010CE09DED060B80
:101E8000032453EC102B9FED580B51EC100BFEF775
:101E90005EFACDE906019DED060B53EC102B51ECDB
:101EA000100BFEF7E2F941EC180B53EC182BFEF780
:101EB000DCF941EC190B4E480621B0EE490AF0EE70
:101EC000690A784400F0D1F953EC182B51EC100B4F
:101ED000FEF7CBF941EC180B4648B0EE490AF0EE9C
:101EE000690A0521784400F0C0F953EC192B51EC34
:101EF000100BFEF7BAF941EC100B51EC180B53EC38
:101F0000102B002C0EDAFEF773FB9DED061B53EC35
:101F1000112BFEF7AAF99DED061B53EC112BFEF7D2
:101F20000BFC35E0FEF764FB9DED061B53EC112B1B
:101F3000FEF79BF941EC100B2F48784400EBC400EE
:101F400090ED001B51EC100B53EC112BFEF7F1FB45
:101F50009DED061B53EC112BFEF7EBFB41EC100B38
:101F60002648784400EBC40090ED001B51EC100BA8
:101F700053EC112BFEF7E0FB41EC100B002DA2BF40
:101F8000BDEC068B02B070BD51EC100B81F000412E
:101F900041EC100B01E70000000010440000F07F4E
:101FA000182D4454FB21F93F182D4454FB21F9BF4F
:101FB0000000DC3F0000203E0000F33F0000000076
:101FC000000000000000F03F0000E63F00000000BD
:101FD00000000000000000400080034000000000FE
:101FE000000000000000F83F000000000000F0BF0B
:101FF000DA090000900900001A090000D208000068
:1020000070B56B4E2DED040B2DED028B82B0DDF81B
:102010001CC0DDE905235C422CF000411C4341EA71
:10202000D474049D22F00040B44205D86C422C4385
:1020300040EAD474B4420BD99DED061B9DED040B10
:1020400002B0BDEC028B04B0BDE8704000F093B963
:10205000ACF14054A4F17F641C430BD0022404EA89
:10206000AC7444EAD27405439FED538B9FED542B1F
:1020700007D015E09DED040B51EC100B00F0AEF90C
:1020800042E0002C11BF012C9DED040B02B0BDEC11
:10209000028B04BF04B070BD022C38D0032C3BD09F
:1020A0000B439FED491B9FED4A0B0AD0B14218D15B
:1020B000B04209D121F0804120F080400791059085
:1020C0000FE0002A15DA10E0434B7B44002C08BFD8
:1020D00093ED000B0DD0012C10D0022C17D0032C47
:1020E0001AD0B0421DD1002A03DAB0EE410AF0EE58
:1020F000610A02B0BDEC028B04B070BD93ED000B21
:1021000051EC100B81F0004141EC100BF1E7B0EE07
:10211000480AF0EE680AECE7B0EE420AF0EE620A16
:10212000E7E7401A00153C28C8BF8DED000B19DC0D
:10213000BCF1000FBEBF10F13C0F9FED290B8DEDE0
:10214000000B0FDB9DED060B53EC102B9DED040BEC
:1021500051EC100BFEF7FBF800F09EF900F03EF991
:10216000CDE90001002C08BF9DED000BC1D0012C72
:1021700010D0022C9FED1C0B53EC102B9DED000B8F
:1021800051EC100B0DD0FEF7D4FA53EC182BFEF7E0
:10219000D0FAB9E7019880F0004001909DED000B66
:1021A000A7E7FEF7C6FA53EC182BFEF7C5FAABE724
:1021B0000000F07F00000000182D4454FB2109406E
:1021C000182D4454FB2109C0182D4454FB21F9BF9C
:1021D000182D4454FB21F93F0208000000000000C4
:1021E0000000000000000000075C143326A6A13C9C
:1021F00000B52DED048BB0EE409AF0EE609A83B0FE
:1022000051EC190BFEF79BFA41EC180B18EE100A73
:1022100018EE901A8DED008B002818BF012008439E
:1022200020F00040C0F17F6000F1E040C00F14D00A
:1022300019EE101A19EE900A8DED009B002918BFB7
:102240000121084320F00040C0F17F6000F1E04030
:10225000C00F04BF012000F0BBF8B0EE480A03B085
:10226000F0EE680ABDEC048B00BD70B504462DEDA0
:10227000028B4D1E00EBC500B0EE408AF0EE608A86
:1022800090ED000B35F0060017D053EC182B51ECF5
:10229000100BFDF7EAFF41EC100B6D1E04EBC500BF
:1022A00090ED001B51EC100B53EC112BFEF7A0F935
:1022B00041EC100B35F00600E7D1022D36D0042D8D
:1022C0001CD0062D1CBFBDEC028B70BD53EC182B2F
:1022D00051EC100BFDF7C9FF94ED0A1B53EC112BC9
:1022E000FEF786F953EC182BFDF7BFFF94ED081BA2
:1022F00053EC112BFEF77CF941EC100B53EC182B2F
:1023000051EC100BFDF7B1FF94ED061B53EC112BB4
:10231000FEF76EF953EC182BFDF7A7FF94ED040BB5
:1023200053EC102BFEF764F941EC100B53EC182B17
:1023300051EC100BFDF799FF94ED021B53EC112BA0
:10234000FEF756F953EC182BFDF78FFF94ED001BA9
:1023500053EC112BFEF74CF9BDEC028B41EC100B4A
:1023600070BD10B553EC102B51EC100BFEF740F97B
:1023700041EC100B10BD10B553EC112B51EC100BB0
:10238000FEF736F941EC100B10BD00000000000014
:102390009FED050B10B553EC102B51EC100BFDF716
:1023A00064FF41EC100B10BD0000000000000010A5
:1023B00002E008C8121F08C1002AFAD1704770470E
:1023C000002001E001C1121F002AFBD1704700006C
:1023D00001490860704700001000002010B541EC72
:1023E000100BFFF7A1FC51EC100B10BD10B504460B
:1023F0002DED048B00F016F9A06F7034FEF716F87F
:1024000041EC180B6068FEF711F841EC100BB0EED0
:10241000481AF0EE681AFFF7F3FD9FED1D8B51ECA3
:10242000100B53EC182BFDF720FFFEF712F820637A
:1024300094ED010AD4ED020A20EE000A00EEA00A93
:1024400010EE100AFDF7F2FF41EC100BFFF7D0FE83
:10245000B0EE409A94ED000AF0EE609AB1EE400AB8
:1024600010EE100AFDF7E2FF53EC192BFDF76FFF9A
:1024700041EC100BFFF758FC53EC182B51EC100BF0
:10248000FDF7F3FEFDF7E5FF6063BDEC048B10BDC7
:10249000AEB6627FD9A54C4082B0CDE9000121F0F3
:1024A000004001909DED000B02B051EC100B704705
:1024B0009FED0D0A80ED000A9FED0C0A80ED020AE7
:1024C0009FED0B0A80ED010A9FED0A0A80ED030AD9
:1024D00080ED040A80ED060A80ED070A80ED080A07
:1024E00080ED090A704700006F12833AA69B443BB7
:1024F0008FC2F53C000000000FB42A2210B504463C
:10250000002084F8540003A92046FDF78AFEBDF898
:10251000360060850E98E0620F982063092210A9AA
:1025200004F13400FDF77DFE9DF8490084F83D007C
:102530009DF84A0084F83E00139820641498606463
:102540001598A0641698E06417982065204600F05E
:102550000FF804F1A800FFF7ABFF04F1D000FFF77C
:10256000A7FF204600F0F1F810BC00205DF814FB36
:1025700010B5642304461A46D021FEF7CDFA08B1FF
:10258000012010BD64231A46D1212046FEF7C4FA6B
:102590000028F6D1012084F85400002010BD00006E
:1025A000A8B0FEF7D3FDFFF737FBFFF7E1FAFFF71F
:1025B000FDFA2A22194912A8FDF733FE174C608D47
:1025C000ADF87200E06A1D90206B1E90092204F1A4
:1025D00034011FA8FDF725FE94F83D008DF8850015
:1025E00094F83E008DF88600206C2290606C239059
:1025F000A06C2490E06C2590206D2690482215A9AF
:102600006846FDF70EFE0DF1480C05489CE80E00EB
:10261000FFF772FF0248FFF7E9FEFBE71001002019
:102620001400002010B504462DED068B82B0062361
:102630006A463B2100F072F8BDF8000040BA00B2D3
:1026400000EE100AB8EEC00A84ED190ABDF80200C7
:1026500040BA00B200EE900AB8EEE08A84ED1A8A21
:10266000BDF8040040BA00B200EE900A10EE100A65
:10267000F8EEE08AC4ED1B8AFDF7D8FE9FED199BAA
:1026800053EC192BFDF7F1FD9FED18AB53EC1A2B12
:10269000FDF7EBFDFDF7DDFE206718EE100AFDF7F4
:1026A000C5FE53EC192BFDF7E0FD53EC1A2BFDF79B
:1026B000DCFDFDF7CEFE606718EE900AFDF7B6FE72
:1026C00053EC192BFDF7D1FD53EC1A2BFDF7CDFD83
:1026D000FDF7BFFEA067C820FEF7AAF802B0BDEC68
:1026E000068B10BD0000000000000040000000004C
:1026F0000000003F7CB515468DF8041064240646A2
:10270000012301AAD0210094FEF7AAFB01232A4647
:10271000D12130460094FEF7AFFA7CBD2DE9FC4193
:102720001D4616468DF8041064240746012301AAAD
:10273000D0210094FEF794FB2B463246D121384637
:102740000094FEF799FABDE8FC8138B504460022F2
:102750006B2100F056F86420FEF76AF801226B2125
:10276000204600F04EF803221A21204600F049F8D6
:1027700004221921204600F044F86A461B21204615
:10278000FFF7B8FF9DF800001B2120F0E002204673
:1027900000F037F89DF800001B2120F018022046B9
:1027A00000F02FF89DF800001B2140EAC500C2B2DE
:1027B000204600F026F86A461C212046FFF79AFFC3
:1027C0009DF800001C2120F0E002204600F019F8DE
:1027D0009DF800001C2120F01802204600F011F89E
:1027E0009DF800201C21204600F00BF82222372102
:1027F000204600F006F801223821204600F001F8BA
:1028000038BD17B583B06424012305AA8DE81C00E8
:102810000A46D021FEF7C0FB06B010BD0000000044
:102820000000000001020304060708090000000080
:1028300001020304000000004FBB610567ACDD3FEF
:10284000182D4454FB21E93F9BF681D20B73EF3FD7
:10285000182D4454FB21F93FE2652F227F2B7A3C4F
:10286000075C143326A6813CBDCBF07A8807703C08
:10287000075C143326A6913CC4EB98999999C9BF7B
:10288000711623FEC671BCBF6D9A74AFF2B0B3BFB0
:102890009AFDDE522DDEADBF2F6C6A2C44B4A2BF70
:1028A0000D5555555555D53FFF8300922449C23FDC
:1028B0006E204CC5CD45B73F513DD0A0660DB13F10
:1028C000EB0D76244B7BA93F11DA22E33AAD903F22
:1028D0000000000000000000F828000800000020B0
:1028E00014000000B02300080C2900081400002088
:1028F00054050000C0230008010000001000000083
:0C290000000000000024F40000000000B3
:040000050800018965
:00000001FF
