:020000040800F2
:10000000C00700209D0100085F1C0008851B000838
:100010005D1C00089F0B00083D2200080000000046
:10002000000000000000000000000000831C000829
:10003000510C000800000000811C0008851C00080D
:10004000B7010008B7010008B7010008B7010008B0
:10005000B7010008B7010008B7010008B7010008A0
:10006000B7010008B7010008B7010008B701000890
:10007000B7010008B7010008B7010008B701000880
:10008000B7010008B7010008B7010008B701000870
:10009000B7010008B7010008B7010008B701000860
:1000A000B7010008B7010008B7010008B701000850
:1000B000B7010008B7010008B7010008B701000840
:1000C000B7010008B7010008B7010008B701000830
:1000D000B701000831220008B7010008B701000885
:1000E000B7010008B7010008B7010008B701000810
:1000F000B7010008B7010008B7010008B701000800
:10010000B7010008B7010008B7010008B7010008EF
:10011000B7010008B7010008B7010008B7010008DF
:10012000B7010008B7010008A10B0008B7010008DB
:10013000B7010008B7010008B7010008B7010008BF
:10014000B7010008B7010008B7010008B7010008AF
:10015000B7010008B7010008B7010008B70100089F
:10016000B7010008B7010008B7010008B70100088F
:10017000B7010008B7010008B7010008000000003F
:10018000B7010008B7010008DFF80CD000F070F9E3
:100190000048004729230008C00700200648804780
:1001A00006480047FEE7FEE7FEE7FEE7FEE7FEE75C
:1001B000FEE7FEE7FEE7FEE70D1D000889010008E7
:1001C0002DE9F05F0546002092469B46884606468C
:1001D000814640241BE0284641464746224600F01F
:1001E00078F853465A46C01A914110D31146184622
:1001F000224600F05FF82D1A67EB01084F462246B1
:100200000120002100F056F817EB00094E41201E96
:10021000A4F10104DFDC484631462A464346BDE8E6
:10022000F09FD2B201E000F8012B491EFBD27047CB
:100230000022F6E710B513460A4604461946FFF7B2
:10024000F0FF204610BD10B54843044602F092F876
:10025000002805D00021002C02D0641E0155FAE7C9
:1002600010BD70B5064601F0EBFF046805460A2292
:100270000021304600F08CF82C6070BD01F0004386
:1002800030B421F0004150EA010206D00A0DA2F577
:100290006072C1F31301002A02DC30BC00207047F9
:1002A000440F44EAC104C100E01830BC00EBC25066
:1002B00000F0A6B8202A04DB203A00FA02F1002060
:1002C00070479140C2F1200320FA03F31943904094
:1002D0007047202A04DB203A21FA02F000217047FF
:1002E00021FA02F3D040C2F120029140084319469E
:1002F000704700000FB4002300B589B00CA900912D
:100300000B996FF00042CB601E4B06931E4B079378
:100310000423CDE901321D4A089202466B460020B3
:1003200000F05AF909B05DF814FB70B586B00646C6
:100330004FF0FF300091CDE90101002015460C4639
:1003400004903246694604A8FFF7D4FF0246049899
:10035000211825B108B1084600E02046286004981D
:1003600000280DD0002A02DD0098884208D0081B22
:100370000094CDE901043246694604A8FFF7BAFFAC
:1003800006B070BD110800082F0800089D04000881
:100390002DE9F04791460F4680460446002614F8A2
:1003A000015B2DB100F076F80068405DC007F6D122
:1003B0002B2D02D02D2D18D0641E4A4639462046DA
:1003C00000F046FA27B13968A14201D1C7F8008090
:1003D00071054FF002040BD54042002803DD01F007
:1003E0002FFF0460A007BDE8F08746F48066E4E7CD
:1003F0000028F8DA01F024FF04606FF00040F2E713
:100400000029A8BF7047401C490008BF20F0010028
:10041000704710B4B0FA80FC00FA0CF050EA010406
:1004200004BF10BC704749B1CCF1200421FA04F498
:1004300011FA0CF118BF012121430843A3EB0C0171
:10044000CB1D4FEA00614FEA102042BF002010BCD4
:10045000704700EBC35010440029A4BF10BC704784
:10046000401C490008BF20F0010010BC704700008C
:10047000064C074D06E0E06840F0010394E80700F1
:1004800098471034AC42F6D3FFF782FE9825000857
:10049000B8250008004870479425000810B50446A8
:1004A000FFF7F8FF0068005D00F0010010BD0000DC
:1004B0002DE9FF4F087883B09946FF2805D0491CE5
:1004C0002D2804D00024002008E000200BE00124A7
:1004D000F9E700EB800003EB4000491C0B78FF2B91
:1004E000F7D104B1404200230293147819461D4607
:1004F0002D2C01D02B2C04D1521C2D2C13D00024D8
:100500000294AA461478FF2C0FD00A25A3FB057885
:1005100001FB05814FF0000C03FB0C11521CE31989
:100520004AEB0101EEE70124EAE7814453EA0100C6
:1005300002D019F5C87F06DA03980021C0E900113E
:1005400007B0BDE8F08F0025AE4E2F46DFF8B88229
:10055000184600F0BBFACDE90001B9F1000002DA5B
:10056000C9F1000400E004460023A74A1AEB030B7C
:1005700042EB045A12E0E00707D02A4633463846D9
:10058000414600F0C2F9074688462A4633461046DF
:10059000194600F0BAF905460E466410002CEAD15F
:1005A000DDE90001B9F1000F5A46534606DA00F0C2
:1005B0001EFA3A46434600F01AFA05E000F0A5F9A3
:1005C0003A46434600F0A1F9029A0AB181F000418F
:1005D000039AC2E90001B3E72DE9FF4F1F468DB032
:1005E000D7E901464FF0FF382E2045464FF000096D
:1005F0000B90B9696D1C0E988847396A8246884706
:100600000028F6D1BAF1FF3F0AD024F4D064002EBE
:1006100011DDBAF12B0F08D0BAF12D0F0BD102E08A
:10062000404611B08DE744F48064B9696D1C0E98A2
:1006300088478246761E6946600501D52D2000E078
:100640002B208DF8000001F1010B0DF1200809E0CD
:10065000B9696D1C0E98884782460F9844F400745F
:10066000761E0560002E02DDBAF1300FF0D00B9936
:100670008A453ED144F0800406E00F99681CA9F138
:10068000010944F400740860B9696D1C761E0E9867
:10069000884782463028F0D02BE00B998A4505D157
:1006A000200603D444F08004761E18E0504601F082
:1006B00003FE08B30DF11301761E44F400748B455C
:1006C00008D2AAF130000BF8010B200607D5A9F1DA
:1006D000010003E0200602D409F101008146A005D3
:1006E00002D50F99681C0860B9696D1C0E9888477F
:1006F0008246002ED1DC53E0002E51DDBAF1650FA9
:1007000002D0BAF1450F4BD1A00549D5B9696D1C8E
:1007100024F44074761E0E9888478246002E0CDD25
:100720002B2804D0BAF12D0F07D144F48074B96995
:100730006D1C0E9888478246761EE00501D52D2156
:1007400000E02B2108F8011BCDF82C8021E00DF1F1
:100750002901761E44F4007488450CD2AAF13000B9
:1007600010F0FF0088F8000002D10B99884509D9E4
:1007700008F1010806E0E00501D5244801E042F255
:100780000F708146B9696D1C0E98884782460F9894
:100790000560002E04DD504601F08EFD0028D6D104
:1007A000F9690E988847FF208BF8000088F8000050
:1007B0000020069007904B466A4608A906A8FFF756
:1007C00077FEA00502D46FF001002AE714F0240F91
:1007D0000AD0E00714D1DDE906123868031D3B603A
:1007E0000068C0E900120BE0DDE90601FFF746FDF5
:1007F0000146E00704D13868021D3A6000680160D4
:1008000028460EE7000014400000F03FF1D8FFFF3B
:10081000426842B1016811F8013B23B1521EC0E9A0
:100820000012184670470121C160881E7047426857
:100830005AB1C368016843B983688B4205D0491E29
:10084000521CC0E90012002070474FF0FF30704783
:100850002DE9F05F82460078002715468B460AF1A5
:100860000104B946302801D09DB113E014F8010B02
:100870000127782803D0582801D045B10AE00DB1EE
:10088000102D07D10027102514F8010B02E00825D0
:1008900000E00A250026B0460EE005FB080005FB37
:1008A00006F1012701EB10461FFA80F8B6F5803FEC
:1008B00000D3B94614F8010B294600F018F80028B7
:1008C000EBDABBF1000F05D00FB1641E00E0544617
:1008D000CBF80040B9F1000F06D001F0B1FC0221C5
:1008E0000160C81EBDE8F09F48EA0640FAE73A28D2
:1008F00000D2303820F02002412A01D3A2F1370083
:10090000884201D34FF0FF3070472DE9FE4F81EA56
:10091000030404F0004421F0004100944FF0000B68
:1009200023F0004350EA01045ED052EA03045BD096
:10093000C3F30A54C1F30A552C44A4F2F3340194CE
:10094000A0FB0254C1F3130141F48011C3F313035C
:1009500043F4801301FB024400FB034E840A970A10
:1009600044EA815447EA8357A4FB076802958D0A3D
:1009700005FB07854FEA932C04FB0C542705029DC9
:100980004FEA065847EA1637B5EB08056EEB070C39
:10099000870E920E47EA811742EA8312A7FB0201F3
:1009A000B6EB0B0164EB00042B0D43EA0C335E182D
:1009B00044EB1C50DA465146E7FB0201C5F3130431
:1009C0004FEA0B3343EA14534FEA0432019C43EAE3
:1009D0000603A4F10C040294009CCDE900B400F0DD
:1009E00090F803B0BDE8F08F00200146F9E72DE94B
:1009F000F04D81EA030404F0004B21F00045144659
:100A00004FF0000A23F0004150EA050220D054EADA
:100A100001021DD0C5F30A570246C5F31303C1F303
:100A20001300C1F30A5640F4801543F48013A7EB7A
:100A30000608101BD64608F2FD3873EB050002D3FA
:100A400008F1010801E092185B41B8F1000F03DAE8
:100A500000200146BDE8F08D00204FF480110646CD
:100A600084460EE0171B73EB050705D3121B63EBDF
:100A7000050306434CEA010C49084FEA300092187E
:100A80005B4150EA0107EDD152EA030012D082EA3D
:100A9000040083EA0501084305D0101BAB4106D2D0
:100AA0000122002306E000224FF0004302E06FF035
:100AB000010253101AEB06004CEB085110EB0A0030
:100AC00041EB0B01BDE8F04D00F00CB80EB540F263
:100AD000334202920022CDE90022134600F011F8C1
:100AE00003B000BD10B5141E73F1000408DA401CF9
:100AF00041F1000192185B411A4301D120F001003D
:100B000010BD2DE9F04D92469B4611B1B1FA81F22C
:100B100002E0B0FA80F220329046FFF7CBFB0446A9
:100B20000F4640EA0A0041EA0B0153465A46084381
:100B300013D0114653EA010019D0C8F140025046C3
:100B4000FFF7C7FB05460E46504659464246FFF79B
:100B5000B1FB084305D0012004E020463946BDE83A
:100B6000F08D0020054346EAE0762C4337430A988F
:100B70006305E40AA0EB08000022FD0A44EA47549A
:100B80000A3002D500200146E9E701051019694144
:100B9000DDE9084500196941BDE8F04DA2E7FEE72F
:100BA000014800F069B800005C01002001681823CA
:100BB000CAB2103AB2FBF3F2054B6FF30901032AF4
:100BC0009B5CC36500D9091D81650846704700001C
:100BD000F224000810B5014600208B698A6A4FF0A4
:100BE000C07453B1B3F5005F15D072B1012A0CD0B7
:100BF000022A0AD0032A09D104E01AB1012A06D038
:100C0000022A03D1C96AC90100D5012010BDC96AF1
:100C1000A142FAD010BD002AF7D0012AF2D0022A50
:100C2000F3D0032AF3D010BD30B50468256825F44D
:100C300080252560046863608368402B036803D0C7
:100C400099600068C26030BD9A600068C16030BDC4
:100C50007047704790F83510022903D08021416514
:100C600001207047052180F835100068016821F0E7
:100C700001010160002070472DE9F84304464FF060
:100C80000009CDF8009063484FF41651A56D006837
:100C9000B0FBF1F72E6894F85C10082000FA01F11F
:100CA00031420FD021680A6852070BD50A6822F03A
:100CB00004020A6094F85C108840A860606D40F0FF
:100CC0000100606594F85C104FF0010808FA01F02B
:100CD000304208D021684969090604D5A860606DD2
:100CE00040F00200606594F85C10042088403042B7
:100CF00008D021680968890704D5A860606D40F0B4
:100D00000400606594F85C1010208840304218D0D0
:100D100021680968090714D5A8602068016849039B
:100D200004D50068000308D5A16C07E00168C90577
:100D300003D4016821F008010160216C09B120464B
:100D4000884794F85C1020208840304231D02168D8
:100D50000968C9062DD5A86094F8350005282068D3
:100D6000016806D0490347D5006800031DD4616CB3
:100D70001CE021F0160101602068416921F080012A
:100D80004161206C08B9A06C20B12068016821F095
:100D90000801016094F85C103F208840A86084F846
:100DA000349084F83580216D1FE0E16B09B1204655
:100DB0008847606D00282BD0606DC00714D00520D7
:100DC00084F835002068016821F001010160009875
:100DD000401C0090B84203D820680068C007F6D1D4
:100DE00084F8349084F83580E16C002910D001B08B
:100DF0002046BDE8F04308470168C905D5D401681D
:100E000021F01001016084F8349084F83580CCE73B
:100E1000BDE8F8830C0000202DE9F041044600F005
:100E200091F906465CB1002584F83450022084F81C
:100E300035002068016821F0010101600DE001200A
:100E4000BDE8F08100F07EF9801B052805D920203F
:100E50006065032084F83500F2E720680068C00769
:100E6000F0D12268116820480140D4E901031843F9
:100E7000D4E903363343184363691843A36918431D
:100E8000E3691843236A18430843616A042903D1BC
:100E9000D4E90B1319430843106020684069666A5F
:100EA00020F0070130460E43012704280CD1A06A28
:100EB0000643E06A40B12046FFF78CFE20B1402097
:100EC000606584F83570BAE7206846612046FFF710
:100ED0006DFE94F85C203F2191408160656584F847
:100EE00035700020ACE700003F8010F02DE9F041A4
:100EF0000446866D90F83400002501280DD00120AD
:100F000084F8340094F835700020012F07D084F85D
:100F1000340002252846BDE8F0810220FBE70227C5
:100F200084F8357060652046FFF77EFE94F85C100B
:100F30003F208840B0602068016841F016010160E0
:100F40002068416941F080014161206C20B1206836
:100F5000016841F0080101602068016841F0010169
:100F60000160D7E770B5044600F0ECF80546601C58
:100F700002D004480078044400F0E4F8401BA0428A
:100F8000FAD370BD000000202DE9F84FDFF87CB1E6
:100F900000224FF001084FF0030A4FF00F090BF148
:100FA000040E00BF0B6808FA02F42340A3426ED17E
:100FB0004D68022D01D0122D0ED1D50800EB850C05
:100FC000DCF820505607F70E09FA07F6B5430E690C
:100FD000BE402E43CCF82060066855000F790AFA0F
:100FE00005FC07F0030726EA0C06AF40374307600D
:100FF0004E68012E05D0022E03D0112E01D0122EE4
:101000000ED18668CF6826EA0C06AF40374387606A
:101010004668A6430C79C4F30014944034434460FA
:10102000C6688C6826EA0C06AC403443C4604C6841
:10103000E40065D5364C256845F480452560246874
:1010400022F0030504F480440094324C2E19D6F8A3
:10105000084895072F0F09FA07F5AC432E4DA84213
:1010600001D1002524E02D4DA84201D101251FE02A
:101070002B4DA84201D102251AE02A4DA84201D1E8
:10108000032515E0284DA84202D1042510E037E0E1
:10109000264DA84201D105250AE0254DA84201D1DF
:1010A000062505E0234DA84201D1072500E00825CB
:1010B000BD402543C6F80858DBF800405D464E6841
:1010C0009C43F60300D51C432C60DEF800407546B7
:1010D0004E689C43B60300D51C432C600B4D08356D
:1010E0002C684E689C43F60200D51C432C60074DCB
:1010F0000C352C684E689C43B60200D51C432C600E
:10110000521C102AFFF44EAFBDE8F88F003C01409E
:101110004438024000300140000002400004024018
:1011200000080240000C024000100240001402407F
:1011300000180240001C02400AB181617047090496
:10114000FBE70000014880687047000000000020B5
:1011500002488168027811448160704700000020D5
:101160000B4810B5016841F400710160016841F459
:1011700080610160016841F480710160032000F02A
:101180006DF8002000F006F800F024F8002010BDF3
:10119000003C024070B50D4D04464FF47A7128783A
:1011A000B1FBF0F00A490968B1FBF0F000F0E0FA99
:1011B00048B9102C07D200222146501E00F02EF80C
:1011C00000206C6070BD012070BD00000000002098
:1011D0000C0000200A4808B5016841F48041016014
:1011E000006800F4804000900548001F016841F04D
:1011F00080510160006800F08050009008BD000040
:101200004438024000F01F02012191404009800053
:1012100000F1E020C0F8001170470000F0B40E4B60
:101220001B680C46C3F30223C3F10705042D00D944
:101230000425191D072901D2002300E0DB1E012629
:1012400006FA05F1491E214099409E40761E16403F
:101250003143F0BC00F004BD0CED00E0064900F0A5
:10126000070208684FF6FF03184040EA0220034ACD
:1012700010430860704700000CED00E00000FA0524
:101280002DE9F0470E46050065D0DFF81481D8F847
:101290000000F7B200F00F00B04207D288F80070EB
:1012A000D8F8000000F00F00B04254D128683D4C3F
:1012B000810712D5400703D5206840F4E050206034
:1012C0002878000703D5206840F46040206020683B
:1012D000A96820F0F000084320602878C0072DD0CE
:1012E000304968680839012812D0022813D0032831
:1012F00011D00968890700292DDA216821F003013E
:1013000001432160FFF71EFF814641F2883A0EE05B
:1013100009688903EFE709688901ECE7FFF712FF25
:10132000A0EB0901514502D90320BDE8F0872068F0
:10133000696800F00C00B0EB810FEFD1D8F8001015
:10134000404601F00F01B14207D90770006800F074
:101350000F00B04201D00120E7E72878400705D50B
:101360002068E96820F4E0500843206028780007EE
:1013700006D52068296920F4604040EAC100206059
:1013800000F036F82168084AC1F30311515CC840E7
:10139000064908600020FFF7FDFE0020C5E70000B9
:1013A000003C024008380240FA2400080C000020EB
:1013B0000448054900680968044AC1F38221515C68
:1013C000C84070470C000020083802400A25000879
:1013D0000448054900680968044AC1F34231515C78
:1013E000C84070470C000020083802400A25000859
:1013F000154810B5006810F00C02144813D01449B9
:10140000042A0FD0082A0ED10F4C241F226823680B
:1014100002F03F025B0207D52068C0F38810A0FBF2
:10142000010106E0084610BD2168C1F38811A1FB47
:1014300000010023FEF7C4FE2168C1F30141491CED
:101440004900B0FBF1F010BD083802400024F40060
:1014500040787D012DE9F84F050076D02878DFF837
:10146000F8B2BE4CC00749D0DBF800105846C1F3B3
:101470008101012908D00068C0F3810002280AD147
:10148000201D0068400206D52068800336D56868B4
:101490000028E2D032E06868B0F5803F10D0B0F5A7
:1014A000A02F206810D020F480302060206820F425
:1014B000802020606868A0B1FFF744FE06460CE07B
:1014C000206840F48030F4E740F480202060F7E7A3
:1014D000FFF738FE801B642873D820688003F7D597
:1014E0000CE0FFF72FFE064605E000BFFFF72AFEDF
:1014F000801B6428F0D820688003F7D42878DFF8B0
:10150000608280074FF000093ED5DBF80010584696
:1015100011F00C0F09D00068C0F3810002280BD134
:101520008D48001F0068400206D42068800715D54A
:10153000E868012809D111E0E868B8B10120C8F8CD
:101540000000FFF7FFFD064605E002E1FFF7FAFDA8
:10155000801B0228C0D820688007F7D52068296939
:1015600020F0F80040EAC10020600DE0C8F80090CB
:10157000FFF7E8FD064604E0FFF7E4FD801B0228C4
:101580001FD820688007F7D42878000722D5724E2C
:10159000744869696C3671B101210160FFF7D2FDB1
:1015A000074604E0FFF7CEFDC01B022809D83068CB
:1015B0008007F7D50EE0C0F80090FFF7C3FD07469F
:1015C00005E083E0FFF7BEFDC01B02287ED830682F
:1015D0008007F7D42878400768D5DFF87CA100277A
:1015E0000AF1380ADAF80000C0000BD4DAF800106B
:1015F00041F08051CAF80010DAF80000012700F02D
:1016000080500090584E3068C00510D4306840F4C7
:1016100080703060FFF796FD009005E0FFF792FDC7
:101620000099401A022851D83068C005F6D54A4EB4
:10163000A868683601280FD00528306810D020F03F
:1016400001003060306820F004003060A868B8B154
:10165000FFF778FD00900FE0306840F00100F4E7FC
:1016600040F004003060F7E7FFF76CFD0099411A85
:1016700041F28830814264D830688007F4D50EE0AA
:10168000FFF760FD009007E0FFF75CFD0099411A4D
:1016900041F28830814254D830688007F4D42FB1A9
:1016A000DAF8001021F08051CAF80010A869C0B320
:1016B000DBF80010C1F3810102294AD00228484614
:1016C00007D0C8F86000FFF73DFD00E039E00546AF
:1016D0003AE04746C8F86000FFF734FD064604E0EC
:1016E000FFF730FD801B02282BD820688001F7D43B
:1016F000D5E907010843A96A1C4A490802EB0141E0
:101700006A6A41EA8211084395F82C1040EA0161A7
:101710001148001F016001203866FFF713FD0546E0
:1017200005E014E0FFF70EFD401B022809D82068F1
:101730008001F7D50BE000BFFFF704FD401B022836
:1017400002D90320BDE8F88F20688001F4D400207E
:10175000F8E70120F6E700000838024000380240B0
:1017600000004742800E4742007000400000FFFF2B
:1017700010B5401EB0F1807F01D3012010BD4FF0A5
:10178000E02460610F21601700F06AFA0020A06178
:1017900007202061002010BD7047000070B502686E
:1017A00004461068D168536910F00F0F50D003F051
:1017B000010501F4907635435DD0C20705D0CA0516
:1017C00003D5E26B42F00102E263420705D5DA0776
:1017D00003D0E26B42F00202E263820705D5DA072A
:1017E00003D0E26B42F00402E263020705D5DA0798
:1017F00003D0E26B42F00802E263E26B002A33D0CE
:10180000800604D5880602D5204600F010FB20682B
:101810004069E16BC0F38010090700D428B320466B
:1018200000F0EEFA2068416949061AD5416921F0B5
:1018300040014161606BA0B11B490165606BFFF71E
:1018400009FA002810D0606B016DBDE870400847B0
:10185000830610D58B060ED52046BDE8704000F0FB
:10186000E6BA2046FFF798FF70BD2046FFF794FFC9
:101870000020E06370BD030606D50B0604D52046A4
:10188000BDE8704000F070BC4006F3D54806F1D5C5
:10189000D168204621F04001D160202184F8391020
:1018A00000F06FF970BD0000611D000870B5040004
:1018B00004D094F83900002510B106E0012070BD75
:1018C00084F83850204600F023F8242084F83900AA
:1018D0002068C16821F40051C160204600F0EEFA92
:1018E0002068016921F4904101612068416921F07B
:1018F0002A0141612068C16841F40051C160E5637B
:10190000202084F8390084F83A00002070BD0000DF
:1019100070B586B0064614216846FEF789FC244956
:101920003068884242D123480025016841F0100107
:101930000160006800F0100005901E48143801682E
:1019400041F0010101600068694600F00100059066
:101950004FF4C0600090022001900120029003200B
:101960000390072004901448FFF70EFB144C134813
:1019700020604FF00060C4E901054014C4E9035041
:1019800065618001A561C4E9075020466562FFF7E3
:1019900043FA08B1FFF75DF9746300221146252070
:1019A000A663FFF73BFC2520FFF72CFC06B070BDBB
:1019B00000100140443802400000024040640240F0
:1019C0005C0100202DE9F843044690F83A0099465E
:1019D00016460D4620284FD195B18EB194F83800A7
:1019E000012849D0012084F838000027E76322202D
:1019F00084F83A00FFF7A6FBA6858046E68531E02D
:101A00000120BDE8F883E08D401EE085A0684346D4
:101A1000B0F5805F4FF000024FF020012046CDF876
:101A2000009004D000F0D1FB98B10320E9E700F06A
:101A3000CCFB0028F9D1206900282068406803D039
:101A4000C1B225F8011B0DE0C0F3080125F8021B07
:101A500008E0206900282068406801D000F07F007D
:101A600005F8010BE08D0028CDD1202084F83A0044
:101A700084F838700020C4E70220C2E7F8B50446B5
:101A800090F83A0020283CD1C1B3BAB394F838009A
:101A9000012836D0012084F83800A162A2850025F3
:101AA000E563222084F83A00636B1748D863636BC0
:101AB00016481864636B1648D864606B1346056556
:101AC0000846666B216802463046091DFFF70EFA8C
:101AD000206801684168009184F83850C16841F479
:101AE0008071C1602068416941F001014161206855
:101AF000416941F0400141610020F8BDFFE701204C
:101B0000FBE70220F9E70000BB1D0008F71D0008F5
:101B1000711D000810B500681649884229D1164C7D
:101B2000224694F8BA1002F1400092F8B920242914
:101B300016D00A2903D094F8B830012B13D01154D1
:101B40000D4800F04DFC002084F8B90084F8B8007E
:101B500009490122BDE81040BA310848FFF78EBF9D
:101B6000012384F8B830115414F8B90F401C2070C8
:101B7000EEE710BD001001401C0000201C010020F9
:101B800070477047FEE70000094808B5016841F456
:101B9000800101600068002200F48000009011467E
:101BA0003A20FFF73BFBBDE808403A20FFF72ABB8D
:101BB0003038024070B586B014216846FEF738FB15
:101BC00016480024016841F080010160016801F0BD
:101BD00080010591016841F001010160016801F097
:101BE00001010591016841F00201016000680C4E9D
:101BF00000F002004FF4007505900022294630469F
:101C0000FFF79AFA01200095CDE9010469463046B4
:101C10000394FFF7B9F906B070BD000030380240F8
:101C2000000402400C4810B50A4901604FF41651F7
:101C30004160002181600C22C160C0E90412816111
:101C4000C161FFF733FE002803D0BDE81040FFF765
:101C500000B810BD001001401C010020FEE77047D5
:101C60000907090E002806DA00F00F0000F1E02055
:101C700080F8141D704700F1E02080F800147047D0
:101C800070477047FFF764BA30B593B030216846AB
:101C9000FEF7CEFA14210CA8FEF7CAFA194800255F
:101CA000016841F080510160006800F0805011909F
:101CB0001548016841F4804101600068022400F485
:101CC000804011900120039010200490009406940D
:101CD0000820CDE90750A820CDE9090404200B9085
:101CE0006846FFF7B7FB0CA90F2081E831004FF4DD
:101CF000A0500F90E002109005210CA8FFF7C0FA49
:101D000013B030BD403802400070004010480168F8
:101D100041F4700101600F48016841F00101016068
:101D20000C4A00210832116002680B4B1A40026015
:101D3000031D0A4A1A60026822F4802202600548E4
:101D40000C30016002495806803908607047000075
:101D500088ED00E000380240FFFFF6FE103000245E
:101D600010B5806B0021C185C184FFF715FD10BD42
:101D700070B5846B2068406994F83910C0F3C010C6
:101D80000025212904D118B1E584204600F046F849
:101D90002068406994F83A10C0F38010222904D1D9
:101DA00018B1E585204600F02BF8E06B40F01000FC
:101DB000E0632046FFF7F0FC70BD10B50146806B74
:101DC00009680968C90513D40021C1850168CA687A
:101DD00022F48072CA6001684A6922F001024A61F5
:101DE00001684A6922F040024A61202180F83A10D5
:101DF000FFF790FE10BD10B5806BFFF7C1FE10BD60
:101E00000168CA6822F49072CA6001684A6922F0C7
:101E100001024A61202180F83A1070470168CA68BF
:101E200022F0C002CA60202180F83910704710B536
:101E300090F83A10222901D0022010BD8168B1F536
:101E4000805F11D00169002901681FD0496801F045
:101E50007F03816A4A1C82620B70C18D491E09048E
:101E6000090CC18518D026E00269816A002A02683F
:101E7000526805D0D2B20A80816A491C8162ECE7BF
:101E8000C2F308020A80816A891CF7E74A68816AFE
:101E90004B1C83620A70E0E70168CA6822F4907202
:101EA000CA6001684A6922F001024A61202180F873
:101EB0003A10FFF72FFE002010BD00002DE9F04181
:101EC00004460068016921F44052E1681143016150
:101ED0002168C86849F20C6290432369A268E569E9
:101EE0001A4363692B431A430243CA602168486955
:101EF00020F44072A06910434861E1696425B1F59E
:101F0000004F9748974A21684FF032083FD09142DE
:101F100001D081427CD1FFF75BFA00EBC00101EBFD
:101F2000001061688900B0FBF1F6FFF751FA00EB91
:101F3000C00101EB001061688900B0FBF1F0B0FB5B
:101F4000F5F06FF01801484306EB800108EB011033
:101F5000B0FBF5F000F0F006FFF73AFA00EBC00135
:101F600001EB001061688900B0FBF1F0B0FBF5F007
:101F700006EB0016FFF72CFA00EBC00101EB001096
:101F800061688900B0FBF1F7FFF722FAD2E09142D5
:101F900001D081423DD1FFF71BFA00EBC00101EBFC
:101FA000001061684900B0FBF1F0B0FBF5F00601EC
:101FB000FFF70EFA00EBC00101EB00106168490069
:101FC000B0FBF1F7FFF704FA00EBC00101EB0010E2
:101FD00061684900B0FBF1F0B0FBF5F06FF018015B
:101FE000484307EB800108EBC100B0FBF5F000F0BF
:101FF000F80006EB4006FFF7EBF900EBC00101EB40
:10200000001061684900B0FBF1F7FFF7E1F93CE02F
:1020100055E0FFF7CDF900EBC00101EB001061685E
:102020004900B0FBF1F0B0FBF5F00601FFF7C0F995
:1020300000EBC00101EB001061684900B0FBF1F753
:10204000FFF7B6F900EBC00101EB00106168490031
:10205000B0FBF1F0B0FBF5F06FF01801484307EB6F
:10206000800108EBC100B0FBF5F000F0F80006EBD2
:102070004006FFF79DF900EBC00101EB001061681D
:102080004900B0FBF1F7FFF793F900EBC00101EB5A
:10209000001061684900B0FBF1F0B0FBF5F06FF0A3
:1020A0001801484307EB800108EBC100B0FBF5F0D5
:1020B00000F00700216830448860BDE8F081FFF738
:1020C00077F900EBC00101EB001061688900B0FBFB
:1020D000F1F6FFF76DF900EBC00101EB001061684C
:1020E0008900B0FBF1F0B0FBF5F06FF01801484348
:1020F00006EB800108EB0110B0FBF5F000F0F006F4
:10210000FFF756F900EBC00101EB00106168890090
:10211000B0FBF1F0B0FBF5F006EB0016FFF748F965
:1021200000EBC00101EB001061688900B0FBF1F722
:10213000FFF73EF900EBC00101EB00106168890078
:10214000B0FBF1F0B0FBF5F06FF01801484307EB7E
:10215000800108EB0110B0FBF5F000F00F00A9E7DB
:10216000001401400010014090F83910212901D0DD
:10217000022070478168B1F5805F016A0BD04A1C6C
:102180000262026809785160C18C491E0904090C79
:10219000C1840ED017E009880268C1F308015160BC
:1021A00001690029016A02D0491C0162ECE7891C1F
:1021B000FBE70168CA6822F08002CA600068C16853
:1021C00041F04001C160002070472DE9F041984680
:1021D00017460E460446069D1DE0681C1BD02DB117
:1021E000FEF7B0FFA0EB0800A84214D92068C16830
:1021F00021F4D071C1602068416921F00101416181
:10220000202084F8390084F83A00002084F838004F
:102210000320BDE8F0812068006836EA000004D0A1
:102220000020B842D9D00020F3E70120F9E70000F0
:102230000148FFF7B3BA00001C010020FEE70000D0
:10224000004870471000002030B583B0044600F00D
:1022500017F89FED090B05468DED000B0022214676
:102260006846FEF762F8284600F020F89DED000B66
:1022700003B030BD000000000000000000000000BE
:1022800001480068704700001000002002E008C804
:10229000121F08C1002AFAD170477047002001E0E0
:1022A00001C1121F002AFBD17047000001490860DC
:1022B000704700001000002030380A2801D20120A9
:1022C00070470020704700210A46D0F8BC305A54AD
:1022D000D0F8C0305A54491CC9B20B29F5D3704705
:1022E000F8B50446002084F8B90084F8B8004FF42B
:1022F0007A763046FEF736FE0125334601226946DE
:102300000848FFF75FFB9DF800000A2802D0002D67
:10231000F3D1F8BD012204F1BA010248FFF7AEFB88
:10232000F8BD00001C010020FEF71AFFFFF7ACFC0F
:10233000FFF740FCFFF728FCFFF774FC0B48FFF7A2
:10234000CFFF0B4C4FF40075002229462046FEF7C4
:10235000F3FEFA20FEF706FE012229462046FEF78C
:10236000EBFEFA20FEF7FEFDEEE700001C00002069
:1023700000040240F0B50B30154D20F00701002499
:10238000144A0FE003688B420BD38B4205D95E1AC7
:1023900043184768C3E9006700E04368136002C060
:1023A00004E0021D10680028ECD12046002802D16C
:1023B000286808B10020F0BD064A07481060074AA7
:1023C000121A22F00702C0E9002401202860D7E792
:1023D0001800002014000020C4010020C0030020C9
:1023E00070B50446002001460122231893F84030BE
:1023F0002C2B04D16318491C83F8E800C9B2401C97
:10240000C0B2231893F840300D2B01D0002AECD134
:1024100094F8EB0014F8EA1F411A0120FDF713FFAE
:1024200014F8A91925464819C4F87B008F34FFF722
:102430000BFF51EC100BFDF721FF6060607F217FE7
:10244000411A0120FDF7FFFE207F284444F8100CBC
:10245000FFF7FAFE51EC100BFDF710FFA060D03C27
:102460002046FFF730FF94F8EF0094F8EE10DC34CC
:10247000411A0120FDF7E7FEA07C284444F8180C1F
:10248000FFF7E2FE51EC100BFDF7F8FE2060E07E56
:10249000A17E411A0120FDF7D6FEA07E284444F813
:1024A000140CFFF7D1FE51EC100BFDF7E7FE606056
:1024B000207FE17E411A0120FDF7C5FEE07E284421
:1024C00044F8100CFFF7C0FE51EC100BFDF7D6FEE0
:1024D000A060A07F617F411A0120FDF7B4FE607FFC
:1024E000284444F80C0CFDF7BCFE84F820000020C2
:1024F00070BD000610160006101600000000000057
:1025000000000102030406070809000000000102A0
:102510000304004040404040404040404141414170
:1025200041404040404040404040404040404040AA
:1025300040404005020202020202020202020202BE
:10254000020202202020202020202020200202023F
:1025500002020202909090909090101010101010B3
:102560001010101010101010101010101010020287
:1025700002020202888888888888080808080808F3
:1025800008080808080808080808080808080202D7
:102590000202400013250008B825000800000020B2
:1025A0001C0000008C220008D42500081C0000201C
:1025B000A40700009C220008010000001000000099
:1025C000000000000024F4000000000000000000F3
:0425D0000000000007
:040000050800018965
:00000001FF
