:020000040800F2
:100000009842002059020008CB1E00082B1A000855
:10001000C91E0008CB0900081121000800000000DB
:100020000000000000000000000000009D0100082A
:10003000CD09000800000000F1010008411F000880
:1000400073020008730200087302000873020008BC
:1000500073020008730200087302000873020008AC
:10006000730200087302000873020008730200089C
:10007000730200087302000873020008730200088C
:10008000730200087302000873020008730200087C
:10009000730200087302000873020008730200086C
:1000A000730200084520000873020008730200086C
:1000B000730200087302000873020008730200084C
:1000C000730200087302000873020008730200083C
:1000D000730200087302000873020008730200082C
:1000E000730200087302000873020008730200081C
:1000F000730200087302000873020008730200080C
:1001000073020008730200087302000873020008FB
:1001100073020008730200087302000873020008EB
:1001200073020008730200087302000873020008DB
:1001300073020008730200087302000873020008CB
:1001400073020008730200087302000873020008BB
:1001500073020008730200087302000873020008AB
:10016000730200087302000873020008730200089B
:100170007302000873020008730200080000000008
:100180007302000873020008DFF80CD000F0BAFB1D
:100190000048004717350008984200202B4B19688B
:1001A0000868B0E8F04F80F30988BFF36F8F4FF015
:1001B000000080F3118870470000000006480068C6
:1001C000006880F3088862B661B6BFF34F8FBFF353
:1001D0006F8F00DF00BF00BF08ED00E0DFF80C000C
:1001E000016841F470010160704700BF88ED00E0D4
:1001F000EFF30980BFF36F8F144B1A681EF0100FD6
:1002000008BF20ED108A20E9F04F106008B44FF0CD
:10021000500080F31188BFF34F8FBFF36F8F03F04F
:1002200081FD4FF0000080F3118808BC1968086850
:10023000B0E8F04F1EF0100F08BFB0EC108A80F34A
:100240000988BFF36F8F704700BF00BF24000020F4
:10025000EFF30580704700000648804706480047D6
:10026000FEE7FEE7FEE7FEE7FEE7FEE7FEE7FEE766
:10027000FEE7FEE7F11F0008890100082DE9F05FA5
:100280000546002092469B46884606468146402405
:100290001BE0284641464746224600F04DFA5346A9
:1002A0005A46C01A914110D311461846224600F012
:1002B00034FA2D1A67EB01084F462246012000212F
:1002C00000F02BFA17EB00094E41201EA4F10104A7
:1002D000DFDC484631462A464346BDE8F09F40EA07
:1002E00001039B0703D009E008C9121F08C0042AB4
:1002F000FAD203E011F8013B00F8013B521EF9D29B
:100300007047D2B201E000F8012B491EFBD27047C2
:100310000022F6E710B513460A4604461946FFF7D1
:10032000F0FF204610BD2DE9FE4F804681EA030014
:10033000C00F0C46009021F0004123F00045B8EBBF
:100340000200A94105D24046214690461C460B4674
:10035000024623F00040104347D0270DC7F30A00A0
:10036000C3F30A510290401A019040286BDAC3F39C
:10037000130040F4801B0098924620B10023D2EB7A
:10038000030A63EB0B0B01985946C0F1400250463B
:1003900000F0C3F906460D4650465946019A00F052
:1003A000DBF910EB08006141002487EA115284EA6E
:1003B000E7731A4340D0009A62B3019A012A4FEAC8
:1003C000075215DC001B61EB02014FF0004202EA0C
:1003D0000752CDE90042001C41F5801132462B4600
:1003E00000F012FA03B0BDE8F08F40462146F9E76D
:1003F000001B61EB0201001C41F5801300185B41FA
:100400002018A2F5001747EB030140EAD570B61992
:100410006D4111E06D084FEA360645EAC0754FEAB6
:100420000752001B61EB0201001C41F580114908D5
:100430004FEA30000019514132462B4603B0BDE867
:10044000F04F00F0D2B90098012240000023D0EB19
:10045000020263EBE073009821464FEAE074B8EBC8
:10046000000061EB0401E9E783F000435BE781F002
:10047000004158E72DE9FE4F81EA030404F00044EF
:1004800021F0004100944FF0000B23F0004350EAAC
:1004900001045ED052EA03045BD0C3F30A54C1F3F3
:1004A0000A552C44A4F2F3340194A0FB0254C1F386
:1004B000130141F48011C3F3130343F4801301FBD0
:1004C000024400FB034E840A970A44EA815447EA37
:1004D0008357A4FB076802958D0A05FB07854FEA41
:1004E000932C04FB0C542705029D4FEA065847EA5B
:1004F0001637B5EB08056EEB070C870E920E47EA30
:10050000811742EA8312A7FB0201B6EB0B0164EBF1
:1005100000042B0D43EA0C335E1844EB1C50DA4602
:100520005146E7FB0201C5F313044FEA0B3343EADC
:1005300014534FEA0432019C43EA0603A4F10C046D
:100540000294009CCDE900B400F05EF903B0BDE870
:10055000F08F00200146F9E72DE9F04D81EA030410
:1005600004F0004B21F0004514464FF0000A23F040
:10057000004150EA050220D054EA01021DD0C5F323
:100580000A570246C5F31303C1F31300C1F30A5619
:1005900040F4801543F48013A7EB0608101BD646E1
:1005A00008F2FD3873EB050002D308F1010801E001
:1005B00092185B41B8F1000F03DA00200146BDE854
:1005C000F08D00204FF48011064684460EE0171B84
:1005D00073EB050705D3121B63EB050306434CEAD7
:1005E000010C49084FEA300092185B4150EA0107BC
:1005F000EDD152EA030012D082EA040083EA050139
:10060000084305D0101BAB4106D20122002306E0AF
:1006100000224FF0004302E06FF0010253101AEB8A
:1006200006004CEB085110EB0A0041EB0B01BDE852
:10063000F04D00F0DAB80EB5C10F80EAE070084462
:10064000CA07002140F233438DE80E000A460B46EC
:1006500000F0DAF803B000BD0EB540F2334102916C
:100660000021CDE900110A460B4600F0CDF803B099
:1006700000BD70B5C1F30A5201F000450024C1F37A
:10068000130140F2FF3341F480119A4201DA002055
:1006900070BD40F233439A42A2F2334203DC52422D
:1006A00000F04AF800E090402C43F1D0404270BD89
:1006B000C1F30A5210B5C1F3130140F2FF3341F404
:1006C00080119A4201DA002010BD40F233439A4271
:1006D000A2F2334203DC524200F02EF810BD9040EB
:1006E00010BD01F0004330B421F0004150EA010296
:1006F00006D00A0DA2F56072C1F31301002A02DCD4
:1007000030BC00207047440F44EAC104C100E01827
:1007100030BC00EBC25000F031B8202A04DB203A94
:1007200000FA02F1002070479140C2F1200320FA44
:1007300003F3194390407047202A04DB203A21FA42
:1007400002F00021704721FA02F3D040C2F12002EA
:100750009140084319467047202A06DBCB17203A00
:1007600041FA02F043EAE07306E041FA02F3D040B6
:10077000C2F1200291400843194670470029A8BFE2
:100780007047401C490008BF20F00100704710B4BA
:10079000B0FA80FC00FA0CF050EA010404BF10BC6F
:1007A000704749B1CCF1200421FA04F411FA0CF19C
:1007B00018BF012121430843A3EB0C01CB1D4FEAD5
:1007C00000614FEA102042BF002010BC704700EBD0
:1007D000C35010440029A4BF10BC7047401C4900FE
:1007E00008BF20F0010010BC704710B5141E73F153
:1007F000000408DA401C41F1000192185B411A43E1
:1008000001D120F0010010BD2DE9F04D92469B462C
:1008100011B1B1FA81F202E0B0FA80F220329046D2
:10082000FFF77BFF04460F4640EA0A0041EA0B014E
:1008300053465A46084313D0114653EA010019D0D3
:10084000C8F140025046FFF777FF05460E46504676
:1008500059464246FFF761FF084305D0012004E0F6
:1008600020463946BDE8F08D0020054346EAE07693
:100870002C4337430A986305E40AA0EB08000022E2
:10088000FD0A44EA47540A3002D500200146E9E750
:10089000010510196941DDE9084500196941BDE804
:1008A000F04DA2E770B521F0004303430CD0C1F333
:1008B0000A550024D5EB040564EB0403D617AD1AE2
:1008C000B34102DB0020014670BD201841EB02510C
:1008D00070BD000030B5041E71F1000404DB4FF060
:1008E0000044404264EB0101141E73F1000405DB77
:1008F0001C464FF00043524263EB0403994208BF89
:10090000904230BD064C074D06E0E06840F0010320
:1009100094E8070098471034AC42F6D3FFF738FC50
:10092000AC410008CC4100082DE9F04D00231A46E7
:100930001B1A8A4103DB00200146BDE8F08DC1F39C
:100940000A52C1F3130141F480154FF0000BD10797
:1009500002D100186D41521E0027044640F2FF11DB
:10096000384601EB620A3E468046024600204FF4BC
:100970008011FFF7E1FEC2197141BB1846EB01007F
:10098000B4EB030C75EB000C04D3E41A65EB000523
:1009900017460E46241908F101006D41804634289F
:1009A000E3DDF91946EB0600091BA84103D24FF01D
:1009B000FF32134601E0002213461BEB070046EB13
:1009C0000A51BDE8F04DFFF710BFFEE770477047D2
:1009D00070B5044600F0E6F80546601C02D00448F5
:1009E0000078044400F0DEF8401BA042FAD370BD4A
:1009F000140000202DE9F84FDFF87CB100224FF001
:100A000001084FF0030A4FF00F090BF1040E00BF6D
:100A10000B6808FA02F42340A3426ED14D68022D00
:100A200001D0122D0ED1D50800EB850CDCF820503A
:100A30005607F70E09FA07F6B5430E69BE402E4376
:100A4000CCF82060066855000F790AFA05FC07F01B
:100A5000030726EA0C06AF40374307604E68012EB5
:100A600005D0022E03D0112E01D0122E0ED1866891
:100A7000CF6826EA0C06AF40374387604668A64336
:100A80000C79C4F30014944034434460C6688C6805
:100A900026EA0C06AC403443C4604C68E40065D5DB
:100AA000364C256845F480452560246822F003050E
:100AB00004F480440094324C2E19D6F80848950767
:100AC0002F0F09FA07F5AC432E4DA84201D100259E
:100AD00024E02D4DA84201D101251FE02B4DA84255
:100AE00001D102251AE02A4DA84201D1032515E0C3
:100AF000284DA84202D1042510E037E0264DA84237
:100B000001D105250AE0254DA84201D1062505E0C1
:100B1000234DA84201D1072500E00825BD4025430B
:100B2000C6F80858DBF800405D464E689C43F60363
:100B300000D51C432C60DEF8004075464E689C438F
:100B4000B60300D51C432C600B4D08352C684E684D
:100B50009C43F60200D51C432C60074D0C352C68D5
:100B60004E689C43B60200D51C432C60521C102AD0
:100B7000FFF44EAFBDE8F88F003C0140443802401E
:100B80000030014000000240000402400008024022
:100B9000000C024000100240001402400018024005
:100BA000001C0240014880687047000014000020CB
:100BB00070B5040004D094F83D00002510B106E0A3
:100BC000012070BD84F83C50204600F0C1FA24207A
:100BD00084F83D002068016821F00101016000F007
:100BE00059FC33492268B0FBF1F15160314A636826
:100BF000934206D94FF4967359434FF47A73B1FB7D
:100C0000F3F12368491C1962616891420BD84900CD
:100C1000B0FBF1F2C2F30B02042A01D2042019E066
:100C2000B0FBF1F016E0A3689BB301EBC10202EB4D
:100C30000112B0FBF2F242F48042120530D04BB305
:100C400001EBC10202EB0111B0FBF1F040F4804076
:100C500040F400402168C861D4E9070108432168D5
:100C60000860D4E90310084321688860D4E90501CD
:100C700008432168C8602068016841F001010160F3
:100C80002564202084F83D00256384F83E50002030
:100C900070BD00E006E001EB4102B0FBF2F2CCE7F0
:100CA0000120D7E701EB4101B0FBF1F0D0E70000F4
:100CB00040420F00A08601002DE9FF4F81B0994608
:100CC0008B4604464FF00108FFF76CFF054694F889
:100CD0003D0020287BD1192301224D492046009553
:100CE00000F0A7FF002872D194F83C0001286ED0D4
:100CF000012084F83C0020680168C90703D101681D
:100D000041F0010101602068016821F40061016087
:100D1000242084F83D00002626643E48E062202717
:100D20002068016841F4807101604B4600224FF059
:100D300001112046009500F07CFF002858D1216861
:100D40000BF0FE000861FFF72DFF2168054648699A
:100D50004969C0F3400094F83D20C1F380214FF071
:100D6000A00A12E0B9F1000F04D0FFF71BFF411BEE
:100D7000494501D984F83DA0216848694969C0F313
:100D8000400094F83D20C1F38021084301D1A02AFE
:100D9000E8D184F83D7020684169C943890717D4B8
:100DA000016841F40071016020684169806919237C
:100DB000012217492046009500F03BFFC0B984F896
:100DC0003D7084F83C60002005B0BDE8F08F1DE068
:100DD000016841F40071016021686FF4806048612E
:100DE000192301220A492046009500F022FF08B18C
:100DF0000320E9E74146039808F1010881428FD3B7
:100E000084F83D7084F83C600120DDE70220DBE7D8
:100E1000020010000000FFFF2DE9FF4F83B09A464B
:100E2000DDE9118793460446DDF84090FFF7BAFEEE
:100E3000054694F83D00202874D1192301227249F7
:100E40002046009500F0F5FE0028F5D194F83C000E
:100E5000012867D0012084F83C0020680168C90798
:100E600003D1016841F0010101602068016821F4AB
:100E700000610160222084F83D00402084F83E009B
:100E800000262664C4F82490A4F82A805F48E06213
:100E9000608D2085CDE9007553465A462046049959
:100EA00000F0D8FD28B1206C84F83C60042843D0C1
:100EB00076E0208DC8B1012820D00228206823D0F8
:100EC000416980690090208D03286BD801282AD0C1
:100ED0004F4902283B464FF0000200955BD0884600
:100EE000204600F0A6FEE8BB40E020684169816929
:100EF0000091016841F40071016076E020680168AA
:100F000021F480610160F0E7016821F480610160F3
:100F10002068016841F400610160206841698069CE
:100F2000009062E06EE02A463946204600F0F6FE68
:100F300030B1206C202833D0012007B0BDE8F08FFD
:100F4000206847E02068016841F400710160206872
:100F50000169606A421C62620170208D401E20851A
:100F6000608D00E01CE0401E6085E9E720680168B4
:100F700021F48061016020680169606A421C62623C
:100F80000170208D401E2085608D401E60853B468F
:100F9000002241460095204600F04BFE0028D1D0AB
:100FA0000320CAE72A463946204600F0B7FE00284B
:100FB000BFD120680169606A421C62620170208DA5
:100FC000401E2085608D401E608520684169C943B0
:100FD00049070AD40169606A421C62620170208D6F
:100FE000401E2085608D401E6085208D00287FF486
:100FF0006AAF202084F83D0084F83E6084F83C60AD
:1010000000209AE7022098E7020010000000FFFF8E
:10101000040001002DE9FF4F83B09A46DDE91187F6
:1010200093460446DDF84090FFF7BCFD064694F871
:101030003D0020287DD119230122434920460096F6
:1010400000F0F7FD00287CD194F83C00012878D00E
:10105000012084F83C0020680168C90703D10168B9
:1010600041F0010101602068016821F40061016024
:10107000212084F83D00402084F83E0000252564AE
:10108000C4F82490A4F82A803048E062608D20855E
:10109000CDE9007653465A462046049900F052FDA9
:1010A00080B3206C84F83C50042848D008E03246D5
:1010B0003946204600F063FE30B1206C042839D058
:1010C000032007B0BDE8F08F606A411C61622168AF
:1010D00000780861208D401E80B22085618D491EF8
:1010E000618521684A69D24352070BD468B1606AAE
:1010F000421C626200780861208D401E2085608D50
:10110000401E6085208D0028D1D1324639462046C8
:1011100000F068FD0028D0D154F83D0B016841F47F
:1011200000710160202004F81E09E5776577002032
:10113000C7E706E02068016841F400710160012002
:10114000BFE70220BDE70000020010000000FFFF23
:1011500010B586B0044614216846FFF7D9F8134944
:101160002068884220D11248016841F002010160E4
:101170000068694600F002000590C020009012202F
:10118000019001200290032003900420049009485C
:10119000FFF730FC06481030016841F4001101608F
:1011A000006800F40010059006B010BD0054004027
:1011B000303802400004024002488168027811443D
:1011C00081607047140000200B4810B5016841F49D
:1011D00000710160016841F480610160016841F4BF
:1011E00080710160032000F08BF8002000F006F809
:1011F00000F03EF8002010BD003C024010B5014652
:1012000088B00022192000F05BF8192000F04CF89B
:1012100013480024016841F001010160006805A93C
:1012200000F001000690684600F014F900F042F961
:101230000C494000B0FBF1F10C480B4A491E02601A
:1012400040F2E732C0E90324C0E9011400F004FBD6
:1012500010B1012008B010BD044800F019FBF9E7F7
:101260004438024040420F00000001406801002065
:101270000C4882B0016841F480410160006800F4CC
:10128000804000900748001F016841F080510160D4
:101290000068002200F0805000900F21901E02B0E4
:1012A00000F00EB84438024000F01F0201219140C6
:1012B0004009800000F1E020C0F8001170470000F4
:1012C000F0B40E4B1B680C46C3F30223C3F10705B1
:1012D000042D00D90425191D072901D2002300E09F
:1012E000DB1E012606FA05F1491E214099409E4069
:1012F000761E16403143F0BC00F0E8BD0CED00E076
:10130000064900F0070208684FF6FF03184040EA5C
:101310000220034A10430860704700000CED00E013
:101320000000FA052DE9F0470E46050065D0DFF80C
:101330001481D8F80000F7B200F00F00B04207D2D5
:1013400088F80070D8F8000000F00F00B04254D1C7
:1013500028683D4C810712D5400703D5206840F42A
:10136000E05020602878000703D5206840F46040F2
:1013700020602068A96820F0F000084320602878E9
:10138000C0072DD0304968680839012812D00228DA
:1013900013D0032811D00968890700292DDA2168A4
:1013A00021F0030101432160FFF7FCFB814641F27C
:1013B000883A0EE009688903EFE709688901ECE7DC
:1013C000FFF7F0FBA0EB0901514502D90320BDE86E
:1013D000F0872068696800F00C00B0EB810FEFD156
:1013E000D8F80010404601F00F01B14207D907704C
:1013F000006800F00F00B04201D00120E7E7287834
:10140000400705D52068E96820F4E05008432060D3
:101410002878000706D52068296920F4604040EA52
:10142000C100206000F056F82168084AC1F303119A
:10143000515CC840064908600020FFF7DFFE00202D
:10144000C5E70000003C024008380240C4400008E4
:10145000200000200F2202600C4A136803F00303EF
:101460004360136803F0F0038360136803F4E053F0
:10147000C36012684FF4E05303EAD20202610448E9
:10148000006800F00F000860704700000838024054
:10149000003C02400448054900680968044AC1F359
:1014A0008221515CC840704720000020083802406B
:1014B000D44000080448054900680968044AC1F39B
:1014C0004231515CC840704720000020083802407B
:1014D000D4400008154810B5006810F00C021448FC
:1014E00013D01449042A0FD0082A0ED10F4C241F00
:1014F0002268236802F03F025B0207D52068C0F330
:101500008810A0FB010106E0084610BD2168C1F368
:101510008811A1FB00010023FEF7B0FE2168C1F392
:101520000141491C4900B0FBF1F010BD08380240F0
:101530000024F40040787D012DE9F84F050076D0B5
:101540002878DFF8F8B2BE4CC00749D0DBF80010AD
:101550005846C1F38101012908D00068C0F3810019
:1015600002280AD1201D0068400206D520688003A9
:1015700036D568680028E2D032E06868B0F5803F70
:1015800010D0B0F5A02F206810D020F4803020605B
:10159000206820F4802020606868A0B1FFF702FB7B
:1015A00006460CE0206840F48030F4E740F48020E8
:1015B0002060F7E7FFF7F6FA801B642873D82068ED
:1015C0008003F7D50CE0FFF7EDFA064605E000BF13
:1015D000FFF7E8FA801B6428F0D820688003F7D46E
:1015E0002878DFF8608280074FF000093ED5DBF8ED
:1015F0000010584611F00C0F09D00068C0F38100AC
:1016000002280BD18D48001F0068400206D42068D4
:10161000800715D5E868012809D111E0E868B8B15C
:101620000120C8F80000FFF7BDFA064605E002E118
:10163000FFF7B8FA801B0228C0D820688007F7D5CA
:101640002068296920F0F80040EAC10020600DE020
:10165000C8F80090FFF7A6FA064604E0FFF7A2FAE2
:10166000801B02281FD820688007F7D4287800073D
:1016700022D5724E744869696C3671B101210160DE
:10168000FFF790FA074604E0FFF78CFAC01B022828
:1016900009D830688007F7D50EE0C0F80090FFF752
:1016A00081FA074605E083E0FFF77CFAC01B0228B9
:1016B0007ED830688007F7D42878400768D5DFF8EF
:1016C0007CA100270AF1380ADAF80000C0000BD428
:1016D000DAF8001041F08051CAF80010DAF8000082
:1016E000012700F080500090584E3068C00510D49B
:1016F000306840F480703060FFF754FA009005E0E5
:10170000FFF750FA0099401A022851D83068C005F6
:10171000F6D54A4EA868683601280FD005283068EB
:1017200010D020F001003060306820F004003060FC
:10173000A868B8B1FFF736FA00900FE0306840F0C3
:101740000100F4E740F004003060F7E7FFF72AFA01
:101750000099411A41F28830814264D8306880078C
:10176000F4D50EE0FFF71EFA009007E0FFF71AFA33
:101770000099411A41F28830814254D8306880077C
:10178000F4D42FB1DAF8001021F08051CAF800101B
:10179000A869C0B3DBF80010C1F3810102294AD067
:1017A0000228484607D0C8F86000FFF7FBF900E0C0
:1017B00039E005463AE04746C8F86000FFF7F2F91D
:1017C000064604E0FFF7EEF9801B02282BD82068BC
:1017D0008001F7D4D5E907010843A96A1C4A4908E2
:1017E00002EB01416A6A41EA8211084395F82C1024
:1017F00040EA01611148001F016001203866FFF7CF
:10180000D1F9054605E014E0FFF7CCF9401B0228AA
:1018100009D820688001F7D50BE000BFFFF7C2F9B7
:10182000401B022802D90320BDE8F88F2068800100
:10183000F4D40020F8E70120F6E700000838024061
:101840000038024000004742800E474200700040CE
:101850000000FFFF7047704710B5040003D094F8F4
:10186000390010B107E0012010BD002084F83800D5
:10187000204600F00CF8022084F83900211D206871
:1018800000F0E6FB012084F83900002010BD70470D
:101890000168CA6842F00102CA600068016841F04C
:1018A0000101016000207047704770B50446006870
:1018B00001694FF00005C943890715D4C168C943C0
:1018C000890711D4E91E0161012020762068806912
:1018D0008007204602D0FFF7E7FF04E000F098F809
:1018E000204600F096F8257620680169C94349072B
:1018F00017D4C168C943490713D46FF004010161CB
:10190000022020762068806910F4407F204602D0B3
:10191000FFF7CAFF04E000F07BF8204600F079F8FA
:10192000257620680169C943090716D4C168C943EF
:10193000090712D46FF008010161042020762068A5
:10194000C0698007204602D0FFF7AEFF04E000F038
:101950005FF8204600F05DF8257620680169C943EC
:10196000C90617D4C168C943C90613D46FF0100162
:101970000161082020762068C06910F4407F20466D
:1019800002D0FFF791FF04E000F042F8204600F09B
:1019900040F8257620680169C943C90708D1C168A4
:1019A000C943C90704D1891E0161204600F032F8FD
:1019B00020680169C943090609D4C168C9430906F9
:1019C00005D46FF0800101612046FFF743FF2068D6
:1019D0000169C943490609D4C168C943490605D408
:1019E0006FF040010161204600F01EF82068016997
:1019F000C94389060BD4C168C943890607D46FF06F
:101A0000200101612046BDE87040FFF724BF70BD92
:101A10007047704700680349884201D1FFF7CCBB8B
:101A200070470000000001407047FEE701684A6906
:101A3000D24352050CD46FF480624A6104210164E0
:101A4000002140F8301F20224273017301207047AB
:101A5000002070472DE9F84F0446006889460B9D29
:101A600001689846174641F480610160206801686A
:101A700041F48071016000954FF0011A0022514637
:101A800020460A9B00F0D5F8F0BB216809F0FE0063
:101A900008610AF1010B2B46594620460A9A00F0CC
:101AA000F9F818B1206C042812D03AE02068416996
:101AB000806900902A4620460A9900F060F950B1EA
:101AC000206C04282DD12068016841F40071016068
:101AD0000120BDE8F88FFEB2B8F1010F09D02168EE
:101AE000380A08612A4620460A9900F048F9002879
:101AF000E6D1206806612A4620460A9900F03FF99F
:101B00000028DDD1206800E00BE0016841F480711D
:101B1000016000950022514620460A9B00F089F89A
:101B200008B10320D5E7216809F0FF0040F001006B
:101B300008612B46594620460A9A00F0ABF8002867
:101B4000B0D1C6E72DE9F843044600680D46DDE94B
:101B5000089701689846164641F4807101604B462B
:101B600000224FF001112046009700F062F8E8B91A
:101B7000216805F0FE0008613B464A4618492046A8
:101B800000F088F828B1206C04280FD10120BDE8AE
:101B9000F88320684169806900903A4649462046AA
:101BA00000F0EDF820B1206C042813D00320EEE7FC
:101BB000F5B2B8F1010F09D02168300A08613A4640
:101BC0004946204600F0DBF80028ECD1206805618A
:101BD0000020DCE72068016841F400710160D5E76E
:101BE0000200010070B516460D4604461AE0204674
:101BF000FFF71CFF08B1012070BD681C12D025B191
:101C0000FEF7D0FF801BA8420CD954F8400F40F0DB
:101C1000200044F810090020206020216173207307
:101C2000032070BD20684069C0434007DFD4002016
:101C300070BD2DE9F0471E4690460D460446C1F39F
:101C40000747DDF8209012E0701C10D02EB1FEF78F
:101C5000A9FFA0EB0900B04209D9002044F8300FD9
:101C600020216173A07320730320BDE8F0872068F2
:101C7000012F0AD0806925EA00000004000C06D07C
:101C800000214145E0D00020EFE74069F3E7012162
:101C9000F7E700002DE9F0479A4691460D460446C5
:101CA00000264FF02008C1F307472AE0206840696A
:101CB000C043400512D42068016841F400710160FE
:101CC00021686FF48060486104202064266384F8F2
:101CD0003D8084F83C600120BDE8F087B9F1FF3F0A
:101CE0000FD0B9F1000F05D0FEF75CFFA0EB0A01A1
:101CF000494506D944F8306F84F80D8026730320D7
:101D0000EAE72068012F07D0D0F8180025EA000084
:101D10000004000CE0D0C9E74069F7E72DE9F04185
:101D2000002590460E460446202721E04069C04326
:101D3000C0060CD421686FF010004861256425634B
:101D400084F83D7084F83C500120BDE8F0812EB14C
:101D5000FEF728FFA0EB0800B04209D954F8400F65
:101D600040F0200044F80409677025700320ECE778
:101D700020684169C9434906D8D40020E5E770B519
:101D800016460D4604461AE02046FFF74FFE08B1FE
:101D9000012070BD681C12D025B1FEF703FF801B27
:101DA000A8420CD954F8400F40F0200044F8100924
:101DB00000202060202161732073032070BD206803
:101DC0004069C0430006DFD4002070BD10B59AB052
:101DD00014221C496846FEF782FA0021684601F089
:101DE000B9FB194C174914222060143105A8FEF7DD
:101DF00076FA002105A801F0ADFB124960601422BB
:101E000028310AA8FEF76BFA00210AA801F0A2FB0C
:101E10000C49A06014223C310FA8FEF760FA0021A3
:101E20000FA801F097FB0749E0601422503114A875
:101E3000FEF755FA002114A801F08CFB20611AB0BE
:101E400010BD000060400008000000200D4808B5EB
:101E5000016841F080010160016801F0800100919A
:101E6000016841F001010160016801F00101009188
:101E7000016841F002010160006800F0020000907A
:101E800008BD0000303802400D4810B50B49016014
:101E90000C49416000214FF480428160C0E9031287
:101EA00041618161C1610162FEF782FE002803D0B9
:101EB000BDE81040FEF78BBD10BD0000005400408F
:101EC00014010020801A0600FEE770470907090E7A
:101ED000002806DA00F00F0000F1E02080F8141D61
:101EE000704700F1E02080F800147047012001F0F5
:101EF00025FBFBE70A4801F0CBFA094801F0F4FAA8
:101F0000074801F07BFD06490648C867044801F010
:101F10004FF8034801F026F8012001F00FFBF5E728
:101F200088000020CD8B0100012001F007FBFBE7BA
:101F3000012001F003FBFBE7012001F0FFFAFBE7C2
:101F400010B5502080F31188BFF34F8FBFF36F8F10
:101F500001F0C0FF18B104494FF080500860002024
:101F600080F3118810BD000004ED00E030B593B09F
:101F700030216846FEF7CCF914210CA8FEF7C8F909
:101F800019480025016841F080510160006800F0A7
:101F9000805011901548016841F48041016000684B
:101FA000022400F48040119001200390102004903E
:101FB000009406940820CDE90750A820CDE9090433
:101FC00004200B906846FFF7B7FA0CA90F2081E8B0
:101FD00031004FF4A0500F90E002109005210CA8A2
:101FE000FFF7A0F913B030BD403802400070004048
:101FF0001048016841F4700101600F48016841F028
:10200000010101600C4A00210832116002680B4B8B
:102010001A400260031D0A4A1A60026822F48022F4
:10202000026005480C30016002495806803908609A
:102030007047000088ED00E000380240FFFFF6FE28
:10204000103000240148FFF730BC00006801002078
:10205000F0B50268234B244D244E254F254C4FF0FC
:10206000804C984209D0604507D0A84205D0B042C4
:1020700003D0B84201D0A04204D122F0700E4A68C9
:1020800042EA0E0298421BD0604519D0A84217D0F0
:10209000B04215D0B84213D0A04211D0164DA8427C
:1020A0000ED0164DA8420BD0154DA84208D0154DA4
:1020B000A84205D0144DA84202D0144DA84203D125
:1020C00022F44075CA682A4302608A68C2620A68BC
:1020D0008262984201D0A04201D1096901630121C5
:1020E0004161F0BD000001400004004000080040D4
:1020F000000C004000040140004001400044014049
:102100000048014000180040001C00400020004032
:10211000FEE703B401984100009850EAC12018BFBF
:1021200004204A0D18BF40F0010040F2FF72B2EBEC
:10213000515F08BF40F00200012808BF052002B02F
:1021400070470000000000002DE9F04D2DED040B5C
:102150002DED0E8B96B0DDE92550279CDDF890A083
:1021600025F0004624F00048BAF1000F14BF012109
:10217000002101EB4502FC4953184A1093422AD32F
:10218000002814BF0123002303EB44030B44F74949
:102190008B4220D358EA00019FEDF59B76D0DFF803
:1021A000D8B35D4503D1BAF1000F05D188E0BAF18B
:1021B000000F08BF002100D0012101EB450111F5FE
:1021C000001F08D8002814BF0121002101EB4401A1
:1021D00011F5001F0BD99DED261B9DED240B16B0AC
:1021E000BDEC0E8B04B0BDE8F04D00F069BE0027D9
:1021F000002DBCBFE149884521DAE1498845A8BFE7
:1022000002271CDAC3451ADCDE4901EB28511429E8
:1022100008DDC1F1340220FA02F101FA02F2824231
:102220000DD108E058B9C1F1140228FA02F101FAFF
:1022300002F2424503D101F00101C1F1020756EA61
:102240000A0124D1002C22DA002D18BF022F01D060
:10225000012F0AD0022000F07FFE16B0BDEC0E8BDD
:1022600004B0BDE8F04D00F013BE022000F074FE93
:1022700000F00EFE51EC100B81F0004141EC100B10
:1022800016B0BDEC0E8B04B0BDE8F08D18E09FEDEC
:10229000BEAB9FEDBF8B002871D1B848804522D1DD
:1022A00005F1804010F5801008BFBAF1000F07D08B
:1022B000B3450ADC002CA8BF9DED260BE0DA0DE04B
:1022C000B0EE490AF0EE690ADAE7002C06DA9DED75
:1022D000260B51EC100B81F000416FE0AE487844C2
:1022E00090ED000BCCE7D8454DD1002C48DA2EB14B
:1022F00086423AD1BAF1000F42D126E0BAF1000F7E
:1023000013D0022000F028FE00F0F6FD8DED020B48
:102310009DED240B8DED000B10EE900A039961F3F7
:102320001E0003909DED020BAAE78DED02AB9DED23
:10233000240B1AEE901A10EE900A8DED000B61F34B
:102340001E0003909DED020B9AE78DED028B9DED33
:10235000240B18EE901A10EE900A8DED000B61F32D
:102360001E0003909DED020B8AE709DA9DED240B18
:1023700051EC190B53EC102BFEF7EEF81EE020E0A9
:102380009DED240B7CE786421BDAB4F1804F0DD023
:10239000A4F10050B0F1FF5013D1002D11DB9DEDE1
:1023A000240B51EC100B01F06DFB07E09DED240BAD
:1023B00053EC102B51EC100B00F0C2BC41EC100B95
:1023C0005EE79DED240B51EC100B01F054F8BAF1CF
:1023D000000FCDE90E0142D19FED710B46B3A6F17E
:1023E000E040B0F17F600CD05E4538D1002D00DABE
:1023F000A7B3022F0CBF01204FF0FF30FEF71BF9EF
:10240000DCE7002D01DD002C0DDA002D01DD002CB4
:102410001FDB002D16DA002C14DB012F08BF9FED07
:10242000620B3FF42DAFB0EE4A0AF0EE6A0A27E7DE
:10243000022F18BF002D0CD0012F0AD1002DFFF65E
:102440001FAF06E0002DB8BF002C08DA012F3FF4C3
:1024500017AFB0EE480AF0EE680A11E71BE0012062
:1024600000EBE57050EA070115D0791EB0EE498AFD
:10247000F0EE698A084308BF9FED4D8B4E4800255A
:10248000804570DD4D494E48884514DDB0420DDB76
:10249000002C19DB2FE0012000F05EFD16B0BDEC32
:1024A0000E8B04B0BDE8F04D00F016BDB34502DC64
:1024B000002C09DC1FE0864202DA002C1BDA03E064
:1024C0005E452BDD002C16DD022000F045FD00F0FE
:1024D00013FD8DED020B53EC1A2B51EC180BFDF78D
:1024E000C9FFCDE900010399019861F31E00039033
:1024F0009DED020BC4E6022000F02EFD00F00CFD65
:1025000010EE901A18EE900A8DED020B8DED008BF7
:1025100061F31E0003909DED020BB1E69DED0E0BE5
:1025200053EC192B51EC100BFDF79EFF9FED260B82
:10253000CDE9080153EC102B9DED080B51EC100B6D
:10254000FDF798FF9FED221B53EC112BFDF78FFF3A
:102550009DED081B53EC112BFDF78CFF9FED1E1B0F
:1025600053EC112B3CE08CE0FFFF1F00FFFF0F003E
:10257000000000000000F03F0000F03F0000F07F8E
:102580000000404301FCFFFF000000000000F07F5E
:102590000000000000000000861E00000000000097
:1025A0000000000000000080000000000000F0FFBC
:1025B000000000000000F0BF0000E0410000F04318
:1025C000FFFFEF3F00000000000000000000D03FD0
:1025D000555555555555D53F000000000000E03FCA
:1025E000FDF745FF9DED080B41EC1A0B53EC102B4A
:1025F00051EC100BFDF73EFF53EC1A2BFDF73AFFA1
:1026000041EC1A0B9FEDFE0B53EC102B9DED080BCC
:1026100051EC100BFDF72EFF41EC1B0B9FEDFA0B5D
:1026200051EC1A0B53EC102BFDF724FF41EC1A0B65
:102630009FEDF70B53EC102B9DED080B51EC100B9D
:10264000FDF718FF53EC1A2BFDF70EFF41EC1A0BA8
:1026500051EC1B0B53EC1A2BFDF765FE0690CDE9F0
:1026600006519DED060B53EC1B2B51EC100BFDF7A7
:10267000FBFE53EC1A2BFDF7FAFE41EC100B00F0B9
:10268000A1B90020B6F5801F0EDA9FEDE30B53ECE5
:10269000102B9DED0E0B51EC100BFDF7EBFECDE971
:1026A0000E016FF034000E4600EB2650A0F2FF370B
:1026B000C6F31300DA4940F07F6646F04056884280
:1026C000D8BF002408DDD7498142C8BF012403DCFC
:1026D0000024A6F580167F1CD348784400EBC40084
:1026E0000F9690ED00CB9DED0E0B53EC1C2B51EC97
:1026F000100BFDF7B9FE9DED0E0B41EC1B0B53ECDF
:102700001C2B51EC100BFDF70EFE41EC100B51ECA5
:10271000190B53EC102BFDF71FFF41EC1D0B51EC77
:102720001B0B53EC1D2BFDF7A5FE41EC1A0BBF480C
:102730008DED10AB7844109590ED000B4FF00050EC
:1027400040EA660000EB84408DED080B00F50020A8
:1027500009909DED080B53EC1C2B51EC100BFDF771
:1027600083FE9DED0E1B53EC112BFDF780FE41EC1B
:10277000100B53EC102B9DED100B51EC100BFDF7D3
:1027800079FE9DED080B41EC1C0B53EC102B9DEDDD
:10279000100B51EC100BFDF76DFE53EC1B2BFDF7EE
:1027A00066FE53EC1C2BFDF75FFE53EC1D2BFDF773
:1027B00061FE41EC1C0B53EC1A2B51EC1A0BFDF78C
:1027C00059FE41EC1B0B9A480621B0EE4B0AF0EE85
:1027D0006B0A784400F0E0FAB0EE401AF0EE601AAE
:1027E000B0EE41DAF0EE61DA53EC1B2B51EC1B0B2F
:1027F000FDF740FE53EC1D2BFDF73CFE9DED100B4D
:1028000041EC1B0B53EC1A2B51EC100BFDF78BFD1D
:1028100053EC1C2BFDF72EFE53EC1B2BFDF783FD19
:102820009DED100B41EC1B0B53EC102B51EC100BDE
:10283000FDF720FE41EC1D0B9FED7FEB53EC1E2BB3
:10284000FDF771FD53EC1B2BFDF76DFD0890CDE9F5
:1028500008519DED080B53EC1E2B51EC100BFDF7AE
:1028600003FE53EC1D2BFDF7FFFD53EC1B2BFDF777
:10287000FEFD9DED080B41EC1D0B53EC102B9DED67
:10288000100B51EC100BFDF7F5FD41EC1B0B53EC5D
:102890001A2B51EC1D0BFDF7EDFD9DED080B41ECE6
:1028A0001A0B53EC102B51EC1C0BFDF7E3FD53EC12
:1028B0001A2BFDF738FD41EC1A0B51EC1B0B53ECB6
:1028C0001A2BFDF730FD0C90CDE90C519DED0C0B52
:1028D00053EC1B2B51EC100BFDF7C6FD53EC1A2BE0
:1028E000FDF7C5FD41EC1B0B9FED550B53EC102B79
:1028F0009DED0C0B51EC100BFDF7BCFD41EC1A0BE0
:102900009FED510B51EC1B0B53EC102BFDF7B2FD5F
:1029100041EC1B0B9FED4E0B53EC102B9DED0C0B64
:1029200051EC100BFDF7A6FD53EC1B2BFDF7FBFC48
:1029300041EC100B4848784400EBC40090ED001BBC
:1029400051EC100B53EC112BFDF7EDFC41EC1B0B84
:102950003846FDF770FECDE9080153EC1B2B51EC16
:102960001A0BFDF7E0FC41EC100B3C48784400EBFF
:10297000C40090ED00CB51EC100B53EC1C2BFDF779
:10298000D2FC9DED081B53EC112BFDF7CCFC0690FF
:10299000CDE906519DED080B53EC102B9DED060B78
:1029A00051EC100BFDF760FD53EC1C2BFDF75CFDAB
:1029B00053EC1A2BFDF758FD53EC1B2BFDF757FD7D
:1029C00041EC100B9DED261B53EC102B8DED001BE5
:1029D00000959DED260B51EC100BFDF74BFD9DED89
:1029E000000B41EC1A0B53EC102B9DED260B51EC18
:1029F000100BFDF739FD9DED061B53EC112B2FE05D
:102A0000000000604715F73FFE822B654715F73F32
:102A100044DF5DF80BAE543E000000000000404370
:102A20008E9803007AB60B00021A0000301A0000DC
:102A30003A190000000000000000000000000840FB
:102A4000000000E009C7EE3FFD033ADC09C7EE3F96
:102A5000F5015B14E02F3EBEC61700008017000092
:102A6000FDF708FD53EC1A2BFDF75DFC9DED060B01
:102A700041EC1A0B53EC102B9DED000B51EC100B9D
:102A8000FDF7F8FCCDE90C019DED0C0B51EC1A0B98
:102A900053EC102BFDF747FCCDE902010C46AA4987
:102AA0008C422FDB611A084318D19DED0C0B53ECBF
:102AB000102B9DED020B51EC100BFDF7D5FC41ECFA
:102AC0001B0B9FEDA30B51EC1A0B53EC102BFDF7D6
:102AD0002AFC53EC1B2BFDF7FDFE2DD2022000F04B
:102AE0003BFA00F009FA10EE901A18EE900A8DEDFC
:102AF000020B8DED008B61F31E0003909DED020B28
:102B0000FFF7BEBB944A24F00041914214D393498D
:102B1000214408437FF4EFAC9DED0C0B53EC102BDC
:102B20009DED020B51EC100BFDF79EFC53EC1A2BA4
:102B3000FDF7D0FE7FF6DFAC24F000408849894ADB
:102B4000002601EB205182422BDA481C4FF4801101
:102B500021FA00F02044844AC0F30A517A44A1F2D9
:102B6000FF3192ED000B814A8DED080BCA4020EA3F
:102B70000202C0F3130040F48010C1F1140120FAE6
:102B800001F60992002CB8BF76429DED080B53EC7C
:102B9000102B9DED0C0B51EC100BFDF765FCCDE9F6
:102BA0000C019DED0C0B51EC1A0B53EC102BFDF7A7
:102BB000BAFB9FED6F0B0890CDE9085153EC102B39
:102BC0009DED080B51EC100BFDF754FC41EC1B0B79
:102BD0009FED690B53EC102B9DED080B51EC100B86
:102BE000FDF748FC9DED0C0B41EC1C0B53EC102B3E
:102BF0009DED080B51EC100BFDF736FC53EC1A2B36
:102C0000FDF735FC9FED5E1B53EC112BFDF732FCFD
:102C100053EC1C2BFDF787FB41EC1A0B51EC1B0B03
:102C200053EC1A2BFDF77FFBCDE902019DED020B62
:102C300053EC1B2B51EC100BFDF716FC53EC1A2B2D
:102C4000FDF715FC9DED020B41EC1A0B53EC102B1C
:102C500051EC100BFDF70EFCCDE908014A489DED43
:102C6000080B0521784400F097F89DED081B51EC06
:102C7000100B53EC112BFDF7FDFB9DED021B53ECEC
:102C8000112BFDF7F4FBCDE906019DED020B53EC92
:102C90001A2B51EC100BFDF7EDFB53EC1A2BFDF743
:102CA00042FB9FED3B0B41EC1A0B53EC102B9DEDBF
:102CB000060B51EC100BFDF7D7FB9DED060B41EC1D
:102CC0001B0B53EC102B9DED020B51EC100BFDF781
:102CD000D1FB53EC1B2BFDF73FFC53EC1A2BFDF7FC
:102CE000C3FB9DED021B53EC112BFDF7BDFB53EC19
:102CF000192BFDF7BCFBCDE9020101EB06500115D4
:102D00000029C8BF039015DC9DED020B324651EC43
:102D1000100BFDF7C7FDFFF7FCF9042808BF00F012
:102D2000FBF832469DED020B51EC100BFDF7BAFD9E
:102D3000CDE902019DED020B51EC180B53EC102B69
:102D4000FDF798FBFFF73ABB000090400000000041
:102D5000FE822B654715973C00CC904000346F3FB6
:102D600001FCFFFF0000E03F08160000FFFF0F001E
:102D700000000000432EE63F396CA80C615C20BEC9
:102D8000EF39FAFE422EE63FD814000000000000A2
:102D9000000000000000004070B504462DED028BDD
:102DA0004D1E00EBC500B0EE408AF0EE608A90ED5B
:102DB000000B35F0060017D053EC182B51EC100B1C
:102DC000FDF758FB41EC100B6D1E04EBC50090EDB8
:102DD000001B51EC100B53EC112BFDF7A4FA41EC46
:102DE000100B35F00600E7D1022D36D0042D1CD093
:102DF000062D1CBFBDEC028B70BD53EC182B51ECA3
:102E0000100BFDF737FB94ED0A1B53EC112BFDF76C
:102E10008AFA53EC182BFDF72DFB94ED081B53ECAD
:102E2000112BFDF780FA41EC100B53EC182B51ECF1
:102E3000100BFDF71FFB94ED061B53EC112BFDF758
:102E400072FA53EC182BFDF715FB94ED040B53ECC1
:102E5000102BFDF768FA41EC100B53EC182B51ECDA
:102E6000100BFDF707FB94ED021B53EC112BFDF744
:102E70005AFA53EC182BFDF7FDFA94ED001B53ECB6
:102E8000112BFDF750FABDEC028B41EC100B70BD1D
:102E90009FED070B10B553EC102B9FED070B51EC7A
:102EA000100BFDF759FB41EC100B10BD00000000AA
:102EB0000000000000000000000000000000F03FE3
:102EC00010B553EC112B51EC100BFDF72CFA41EC23
:102ED000100B10BD000000009FED050B10B553EC6A
:102EE000102B51EC100BFDF737FB41EC100B10BD14
:102EF00000000000000000009FED050B10B553EC32
:102F0000102B51EC100BFDF7B5FA41EC100B10BD76
:102F100000000000000000709FED050B10B553ECA1
:102F2000102B51EC100BFDF7A5FA41EC100B10BD66
:102F3000000000000000001002E008C8121F08C1D5
:102F4000002AFAD170477047002001E001C1121F2A
:102F5000002AFBD17047000001490860704700005B
:102F60008400002010B50446D4E91E01401AFDF784
:102F700062FB9FED0B1B53EC112BFDF77BFA9FEDD2
:102F80000A1B53EC112BFDF775FAFDF7AAFB00EEB7
:102F9000100A0020B1EE400A84ED220A10BD0000A4
:102FA0007B14AE47E17A843F5C8FC2F528DC204079
:102FB000F0B504462DED0E8B83B0AE22F42100F067
:102FC000DFFE0E20FDF704FDF621204600F0FAFC9E
:102FD000E066B422F421204600F0D2FE0E20FDF778
:102FE000F7FC6A46F621204600F0FCFC01AAF72116
:102FF000204600F0F7FC02AAF821204600F0F2FC7F
:103000009DF800009DF80410000400EB01208009E9
:103010009FEDFECBB0EE4C1AF0EE6C1A9FEDFD8BDF
:1030200020675834B0EE480AF0EE680AFFF78CF8D3
:10303000B0EE401AF0EE601AB0EE419AF0EE619AEE
:10304000208AFDF709FB53EC192BFDF785FA41ECBB
:10305000190B618A6069401AFDF7EDFA53EC192BE0
:10306000FDF708FAFDF705FB0546B4F90C00284406
:10307000FDF7E1FA41EC190B9FEDE8DBB0EE480AF1
:10308000F0EE680AB0EE4D1AF0EE6D1AFFF75CF83C
:10309000B0EE401AF0EE601AB0EE41AAF0EE61AA6E
:1030A000B4F90A00FDF7C7FA53EC1A2BFDF7E2F961
:1030B00053EC192BFDF750FAFDF7DBFA05449FEDB1
:1030C000D9BBB0EE480AF0EE680AB0EE4B1AF0EE4B
:1030D0006B1AFFF739F8B0EE409AF0EE609A05F1FE
:1030E0000800FDF7A8FA53EC192BFDF735FAFDF7A8
:1030F000C0FAE061FDF79FFA9FEDCC1B53EC112B5A
:10310000FDF7B8F9FDF7EDFAB0EE4D1AF0EE6D1AD5
:10311000B0EE480AF0EE680AA5F57A65E062FFF7BE
:1031200013F8B0EE40AAF0EE60AA9FEDC2EBB0EE4D
:10313000480AF0EE680AB0EE4E1AF0EE6E1AFFF78B
:1031400003F805FB05F6B0EE409AF0EE609A3046C3
:10315000FDF771FA53EC192BFDF7FEF941EC190B51
:10316000B4F90600FDF767FA53EC192BFDF782F965
:1031700053EC1A2BFDF7F0F9FDF77BFA0746B0EE9A
:103180004D1AF0EE6D1AB0EE480AF0EE680AFEF73E
:10319000DBFFB4F90000B0EE409AF0EE609A6843AD
:1031A000FDF749FA53EC192BFDF7D6F9FDF761FA53
:1031B00034F9021C384400EB81008000C11700EB99
:1031C000917087109FED9D1BB0EE480AF0EE680AE3
:1031D000FEF7BAFFB4F90200B0EE409AF0EE609A42
:1031E0006843FDF728FA53EC192BFDF7B5F9FDF705
:1031F00040FA05469FED93DBB0EE480AF0EE680A10
:10320000B0EE4D1AF0EE6D1AFEF79EFFB0EE409A4A
:10321000F0EE609AB0EE4E1AF0EE6E1AB0EE480A7A
:10322000F0EE680AFEF790FFB0EE40AAF0EE60AA5A
:103230003046FDF700FA53EC1A2BFDF78DF941ECFF
:103240001A0BB4F90400FDF7F6F953EC1A2BFDF74D
:1032500011F953EC192BFDF77FF9FDF70AFA064631
:10326000B0EE481AF0EE681AB0EE480AF0EE680ABE
:10327000FEF76AFFA819B0EE409AF0EE609A80F06F
:103280000200FDF7D8F953EC192BFDF765F9FDF7AE
:10329000F0F90546B0EE4C1AF0EE6C1AB0EE480AA2
:1032A000F0EE680AFEF750FFE08905F50045B0EE44
:1032B000409AF0EE609A6843FDF7CEF953EC192B73
:1032C000FDF74AF9FDF7F4F90146A06943F2D4028B
:1032D000C01B5043583CB0F1004F03D290FBF1F0BB
:1032E0004000A0679FED59ABB0EE480AF0EE680AC7
:1032F000B0EE4A1AF0EE6A1AFEF726FFB0EE409AD8
:10330000F0EE609AA06FFDF796F953EC192BFDF7DC
:1033100023F941EC190BB0EE4A1AF0EE6A1AB0EE3E
:10332000480AF0EE680AFEF70FFFB0EE40AAF0EE92
:1033300060AAA06FFDF77FF953EC1A2BFDF70CF98B
:1033400053EC192BFDF796F8FDF793F90546B0EE0F
:103350004D1AF0EE6D1AB0EE480AF0EE680AFEF76C
:10336000F3FE40F6DE30B0EE409AF0EE609A68432D
:10337000FDF761F953EC192BFDF7EEF8FDF779F93C
:103380000546B0EE4D1AF0EE6D1AB0EE480AF0EEBA
:10339000680AFEF7D9FE2F49A06FB0EE409AF0EE12
:1033A000609A4843FDF747F953EC192BFDF7D4F821
:1033B000FDF75FF90646B0EE4B1AF0EE6B1AB0EE71
:1033C000480AF0EE680AFEF7BFFEA819B0EE408A80
:1033D000F0EE608A00F6CF60FDF72DF953EC182B64
:1033E000FDF7BAF841EC180BA06FFDF724F953EC88
:1033F000182BFCF798FFFDF73CF9A067FDF71BF9C8
:103400009FED151B53EC112B2AE00000000000007B
:1034100000002E40000000000000004000000000FE
:103420000000264000000000000010409A99999981
:103430009999B93F000000000000284000000000FA
:1034400000002A40000000000000304000000000A2
:103450000000204043E3FFFF7B14AE47E17A843F46
:10346000FDF708F8FDF73DF9C4F8800003B000202F
:10347000BDEC0E8BF0BD82B0CDE9000121F0004023
:1034800001909DED000B02B051EC100B7047000055
:1034900070B504462A221349FCF721FF114D688DAF
:1034A0006085E86AE062286B2063092205F1340137
:1034B00004F13400FCF713FF95F83D0084F83D005B
:1034C00095F83E0084F83E00286C2064686C6064C7
:1034D000A86CA064E86CE064286D2065002084F886
:1034E000540070BD1401002010B5642304461A4630
:1034F000EF21FDF7E1FB08B1012010BD64231A465E
:10350000EE212046FDF7D8FB0028F6D1012084F8F3
:103510005400002010BDFDF757FEFEF727FDFEF713
:1035200095FCFEF7B1FCFEF751FC00F00EF8FEE74B
:1035300001460020842900D0C81C704710B500B98E
:10354000012000F08DFB002010BD10B500F0AEFB97
:10355000002010BD3EB504460D46B0F90800FFF747
:10356000E7FF02A9CDE90001208A2B4682B2D4E907
:10357000001000F083FC012801D000203EBD02981D
:103580003EBD00002DE9F041184C0F460546E668A7
:103590002068001D00F0ADFA38B9206890F82C10B2
:1035A00001208840216981432161681C07D137B11E
:1035B0002168BDE8F0410E48091D00F0D2BA20682C
:1035C0003544B5424560216805D2A06BBDE8F041A5
:1035D000091D00F0AEBA606B091D00F0AAFAA06ADE
:1035E000854200D2A562BDE8F081000024000020E1
:1035F000800200202DE9F041054600F0BFFA2E4C74
:10360000A068401CA06020682C4F10B1606940B3D6
:103610002DE02560A068012829D1002606EB860050
:1036200007EB800000F077FA761C072EF6D32348CC
:103630008C3000F070FA2148A03000F06CFA1F487E
:10364000B43000F068FA1D48C83000F064FA1B4836
:10365000DC3000F060FA19488C3060631430A063ED
:1036600005E02068E96AC06A884200D82560606A7F
:10367000401C6062E96A0120226988401043206191
:1036800001EB810007EB8000291D00F06AFA00F0D1
:1036900095FA606900280CD02068E96AC06A8842FF
:1036A00007D207494FF080500860BFF34F8FBFF338
:1036B0006F8FBDE8F081000024000020A4010020ED
:1036C00004ED00E070B5114E114C17E000F022FB44
:1036D0003068B8B100F062FC00F050FAF068C568DC
:1036E000281D00F006FAA068401EA0606068401E19
:1036F000606000F063FA284600F00CF8606800286B
:10370000E4D170BD00F04AFCF8E700006C02002034
:103710002400002010B50446006B00F063FA204638
:10372000BDE8104000F05EBA10484FF470514207F7
:1037300006D0C01D0D4920F00700411AC1F5705197
:103740000B4A00230144C2E900030839103A21F072
:10375000070111604B600B600B1AC0E90013936006
:103760004FF000405360D06070470000940200208A
:1037700070000020074C4FF08056074DFFF7A2FF66
:1037800020680128FAD92E60BFF34F8FBFF36F8FE7
:10379000F4E70000A401002004ED00E02DE9F0476B
:1037A0009A46DDE9098481466FF00303206B03EB41
:1037B00082021044089D20F00706700707D05020B1
:1037C00080F31188BFF34F8FBFF36F8FFEE723188D
:1037D0000A5C83F834200A5C12B1401C1028F6D32E
:1037E000002784F84370072D00D30625E562C4E95D
:1037F0001157201D00F09AF904F1180000F096F915
:103800002461C5F107006462A061E76484F8507028
:1038100052464946304600F0BFF82060B8F1000F2C
:1038200001D0C8F80040BDE8F087000030B511496C
:1038300000E011460A688242FBD34B685C18844260
:1038400003D1406818444860084643681C189442F5
:1038500009D1084C103C2468A24209D052681A448D
:1038600042600A6812680260814200D0086030BD80
:103870000460F9E7700000200648416B096829B12F
:10388000416BC968C9684968816270474FF0FF3170
:10389000FAE700002400002008484068401C4FF070
:1038A000500080F3118804D0BFF34F8FBFF36F8FA8
:1038B000FEE7BFF34F8FBFF36F8FFEE77800002066
:1038C0002DE9F0410546002700F024FA314E30681A
:1038D00008B9FFF729FFF06805424BD1C5B3083599
:1038E00068070ED005F00700C0F10800054468071E
:1038F00007D0502080F31188BFF34F8FBFF36F8F35
:10390000FEE72DB37068854234D822481030014656
:103910000C6801E020460C466168A94202D2216889
:103920000029F7D131688C4224D0076821680160F2
:1039300060680837411B10290FD96019420708D069
:10394000502080F31188BFF34F8FBFF36F8FFEE7D6
:1039500010E041606560FFF769FF61687068401AB8
:103960007060B268904200D2B060F06801430020FD
:10397000C4E9000100F012FB780707D0502080F363
:103980001188BFF34F8FBFF36F8FFEE73846BDE856
:10399000F08100006000002010B5031F4FF080741C
:1039A0001C601B1F21F001011960191F044B0B60E3
:1039B00014390A60091F6FF0020244380A6010BD12
:1039C000993800081FB56424022303AA8DE81C005F
:1039D0000A460123EE21FDF71FFABDF80C0004B0E2
:1039E00040BA10BD3EB5642300920124CDE90143E5
:1039F0000A462346EE21FDF70FFA3EBD10B50446F8
:103A0000AA21FFF7DFFFA4F85600AC212046FFF7FC
:103A1000D9FFA4F85800AE212046FFF7D3FFA4F841
:103A20005A00B6212046FFF7CDFFA4F85C00B8216C
:103A30002046FFF7C7FFA4F85E00BA212046FFF733
:103A4000C1FFA4F86000BC212046FFF7BBFFA4F82B
:103A50006200BE212046FFF7B5FFA4F86400B02144
:103A60002046FFF7AFFFA4F86600B2212046FFF71B
:103A7000A9FFA4F86800B4212046FFF7A3FFA4F82B
:103A80006A0010BD00B52DED048B83B041EC190B1D
:103A9000FCF74AFF41EC180B18EE100A18EE901ACA
:103AA0008DED008B002818BF0120084320F0004056
:103AB000C0F17F6000F1E040C00F14D019EE101A81
:103AC00019EE900A8DED009B002918BF01210843D3
:103AD00020F00040C0F17F6000F1E040C00F04BF63
:103AE0000120FFF739FA51EC180B03B0BDEC048B41
:103AF00000BDD0E9013201699A60D0E901235A6022
:103B00004A68824201D182684A60002202610868E4
:103B1000401E0860704700F108014FF0FF32C0E915
:103B20000112C16001610021016070470021016143
:103B3000704730B50B685A1C02D000F1080202E051
:103B4000026904E02246546825689D42FAD9536808
:103B50004B6099608A60516008610168491C01608E
:103B600030BD42684A6093688B6093685960916089
:103B700008610168491C016070470000502080F313
:103B80001188BFF34F8FBFF36F8F0A494868401CFD
:103B9000486001280CD10848006810F0FF0F07D0DA
:103BA000502080F31188BFF34F8FBFF36F8FFEE774
:103BB000704700007800002004ED00E008494868E4
:103BC00028B1401E486001D180F311887047502011
:103BD00080F31188BFF34F8FBFF36F8FFEE70000B4
:103BE0007800002070B5002827D0144DA0F10804FB
:103BF0006168E868014207D1502080F31188BFF363
:103C00004F8FBFF36F8FFEE722683AB1502080F3E9
:103C10001188BFF34F8FBFF36F8FFEE78143616061
:103C200000F078F860686968084468602046FFF72B
:103C3000FDFDBDE8704000F0B1B970BD600000202E
:103C400006484FF47A710068B0FBF1F14FF0E020C4
:103C5000491E4161072101617047000020000020DA
:103C600010B5020014D00F48006B38B1502080F31B
:103C70001188BFF34F8FBFF36F8FFEE700F04AF854
:103C800000211046FFF77EFC00F088F9002807D1DC
:103C900005494FF080500860BFF34F8FBFF36F8F1F
:103CA00010BD00002400002004ED00E01CB5154804
:103CB0000024CDE900402346802213A1144800F0DF
:103CC000DDF8012809D0401C1AD1502080F311885A
:103CD000BFF34F8FBFF36F8FFEE7502080F3118843
:103CE000BFF34F8FBFF36F8F06484FF0FF312C3873
:103CF000816201214161C460BDE81C4000F04EB802
:103D00001CBD00005000002049444C45000000004C
:103D1000753700080248016B491C016370470000B9
:103D2000240000201448016B11B10121C1617047CA
:103D30000021C1610169B1FA81F1C1F11F0101EBFB
:103D400081020E4951F822306BB101EB820101F181
:103D500008034A6852684A609A4201D152684A6030
:103D6000D16801607047502080F31188BFF34F8FF6
:103D7000BFF36F8FFEE7000024000020A4010020A5
:103D800017B583B06424012305AA8DE81C000A46F8
:103D9000EF21FDF73FF906B010BD00001CB5324819
:103DA0000168324A914207D1502080F31188BFF355
:103DB0004F8FBFF36F8FFEE700682C49491E884282
:103DC00007D1502080F31188BFF34F8FBFF36F8F5F
:103DD000FEE7274908780190FF20087008788DF8E1
:103DE00000009DF800009DF8002000F0F0009042D7
:103DF00007D0502080F31188BFF34F8FBFF36F8F30
:103E0000FEE79DF800001B4A00F0500010700720EC
:103E1000906005E09DF800305B008DF80030401E9A
:103E20009DF800301B06F5D4000200F4E0609060BD
:103E3000019808700C482030016841F4700101605D
:103E4000016841F070410160FFF7FAFE0020506008
:103E5000FCF7C4F90848016841F040410160FCF7F3
:103E6000ADF900201CBD000000ED00E071C20F4163
:103E700000E400E07800002034EF00E02DE9FF5F6F
:103E80008346DDE90E87994616468A469000FFF77D
:103E900017FD05001AD05420FFF712FD040012D0C0
:103EA00025630021CDE90241CDE900874B4632462A
:103EB00051465846FFF772FC2046FFF79BFB012056
:103EC00004B0BDE8F09F2846FFF78CFE4FF0FF30AE
:103ED000F6E700002DE9F0412E4C0027206B40B1A1
:103EE000A069401CA061E06900B101273846BDE827
:103EF000F081E668761CE66013D1606B006838B12B
:103F0000502080F31188BFF34F8FBFF36F8FFEE710
:103F1000606BA16B6163A063206A401C2062FFF7A5
:103F2000ABFCA06ADFF87080864209D3606B006842
:103F300080B1606BC068C568686886420DD2A062B7
:103F40002068C06A00EB800158F821000128CAD916
:103F50000127C8E74FF0FF30F1E7281DFFF7C9FD43
:103F6000A86A18B105F11800FFF7C3FDE86A01213E
:103F7000226981401143216100EB800108EB81003F
:103F8000291DFFF7EEFDE86A2168C96A8842CDD392
:103F90000127CBE724000020A40100202DE9F047F1
:103FA0002C4D00242746286B38B1FFF7E7FD286B1E
:103FB000401E2863286B40B146E0502080F31188F2
:103FC000BFF34F8FBFF36F8FFEE7A968224E01202A
:103FD000D1B3A6F1B40980463068E8B1F068C4688E
:103FE00004F11800FFF785FD201DFFF782FDE06A50
:103FF0002A6908FA00F11143296100EB800109EBFD
:104000008100211DFFF7ADFDE06A2968C96A884279
:10401000E2D3C5F81C80DFE70CB1FFF72DFCAC69DB
:1040200044B14646FFF756FF00B1EE61641EF9D178
:104030000020A861E86938B10849012738070860FD
:10404000BFF34F8FBFF36F8FFFF7B8FD3846BDE862
:10405000F0870000240000205802002004ED00E05A
:10406000A0410008ED1E0008000000000000000054
:104070008000000070410008F51E0008FDFF0000F0
:1040800000000000800000007C410008291F00089B
:10409000FDFF0000000000008000000088410008D3
:1040A000311F0008FDFF000000000000800000003C
:1040B00094410008391F0008FDFF000000000000C7
:1040C0008000000000000000000000000102030466
:1040D00006070809000000000102030400000000B8
:1040E000000000000000F03F000000000000F83F6A
:1040F00000000000000000000000004003B8E23FA4
:10410000000000000000000006D0CF43EBFD4C3E55
:10411000033333333333E33FFFAB6FDBB66DDB3F4A
:104120004D268F515555D53F01411DA96074D13F92
:1041300065DBC9934A86CD3FEF4E454A287ECA3F8C
:104140003E5555555555C53F93BDBE166CC166BF0E
:104150002CDE25AF6A56113FF16BD2C541BDBBBE07
:10416000D0A4BE726937663E000000000000000067
:104170006D795461736B3032000000006D795461C9
:10418000736B3033000000006D795461736B303411
:10419000000000006D795461736B30350000000041
:1041A00064656661756C745461736B00CC41000882
:1041B0000000002088000000382F0008544200084A
:1041C0008800002010420000482F00080000000076
:1041D00000000000000000000000000000000000DF
:1041E0000100000010000000000000000024F400A6
:1041F00000000000000000000000000000000000BF
:1042000000000000000000000000000000000000AE
:10421000000000000000000000000000000000009E
:10422000000000000000000000000000000000008E
:10423000000000000000000000000000000000007E
:104240000000000000000000AAAAAAAA00000000C6
:04425000000000006A
:040000050800018965
:00000001FF
