:020000040800F2
:10000000F00400209D0100082F1B00080D170008B8
:100010002D1B00080F090008311C0008000000001B
:10002000000000000000000000000000531B00085A
:100030001109000800000000511B0008551B0008B2
:10004000B7010008B7010008B7010008B7010008B0
:10005000B7010008B7010008B7010008B7010008A0
:10006000B7010008B7010008B7010008B701000890
:10007000B7010008B7010008B7010008B701000880
:10008000B7010008B7010008B7010008B701000870
:10009000B7010008B7010008B7010008B701000860
:1000A000B7010008B7010008B7010008B701000850
:1000B000B7010008B7010008B7010008B701000840
:1000C000B7010008B7010008B7010008B701000830
:1000D000B7010008B7010008B7010008B701000820
:1000E000B7010008B7010008B7010008B701000810
:1000F000B7010008B7010008B7010008B701000800
:10010000B7010008B7010008B7010008B7010008EF
:10011000B7010008B7010008B7010008B7010008DF
:10012000B7010008B7010008B7010008B7010008CF
:10013000B7010008B7010008B7010008B7010008BF
:10014000B7010008B7010008B7010008B7010008AF
:10015000B7010008B7010008B7010008B70100089F
:10016000B7010008B7010008B7010008B70100088F
:10017000B7010008B7010008B7010008000000003F
:10018000B7010008B7010008DFF80CD000F05CFBF5
:1001900000480047E92F0008F00400200648804787
:1001A00006480047FEE7FEE7FEE7FEE7FEE7FEE75C
:1001B000FEE7FEE7FEE7FEE7DD1B00088901000819
:1001C0002DE9F05F0546002092469B46884606468C
:1001D000814640241BE0284641464746224600F01F
:1001E0004DFA53465A46C01A914110D3114618464B
:1001F000224600F034FA2D1A67EB01084F462246DA
:100200000120002100F02BFA17EB00094E41201EBF
:10021000A4F10104DFDC484631462A464346BDE8E6
:10022000F09F40EA01039B0703D009E008C9121FB1
:1002300008C0042AFAD203E011F8013B00F8013BA0
:10024000521EF9D27047D2B201E000F8012B491ECC
:10025000FBD270470022F6E710B513460A46044663
:100260001946FFF7F0FF204610BD2DE9FE4F8046EE
:1002700081EA0300C00F0C46009021F0004123F0FA
:100280000045B8EB0200A94105D240462146904600
:100290001C460B46024623F00040104347D0270D72
:1002A000C7F30A00C3F30A510290401A0190402894
:1002B0006BDAC3F3130040F4801B0098924620B120
:1002C0000023D2EB030A63EB0B0B01985946C0F1F4
:1002D0004002504600F0C3F906460D4650465946C6
:1002E000019A00F0DBF910EB08006141002487EA75
:1002F000115284EAE7731A4340D0009A62B3019A1C
:10030000012A4FEA075215DC001B61EB02014FF096
:10031000004202EA0752CDE90042001C41F580117B
:1003200032462B4600F012FA03B0BDE8F08F40468B
:100330002146F9E7001B61EB0201001C41F5801327
:1003400000185B412018A2F5001747EB030140EAB3
:10035000D570B6196D4111E06D084FEA360645EAD1
:10036000C0754FEA0752001B61EB0201001C41F50A
:10037000801149084FEA30000019514132462B469E
:1003800003B0BDE8F04F00F0D2B900980122400060
:100390000023D0EB020263EBE073009821464FEAA2
:1003A000E074B8EB000061EB0401E9E783F000437F
:1003B0005BE781F0004158E72DE9FE4F81EA030435
:1003C00004F0004421F0004100944FF0000B23F0B2
:1003D000004350EA01045ED052EA03045BD0C3F349
:1003E0000A54C1F30A552C44A4F2F3340194A0FB3F
:1003F0000254C1F3130141F48011C3F3130343F416
:10040000801301FB024400FB034E840A970A44EA6E
:10041000815447EA8357A4FB076802958D0A05FBC0
:1004200007854FEA932C04FB0C542705029D4FEAE5
:10043000065847EA1637B5EB08056EEB070C870E32
:10044000920E47EA811742EA8312A7FB0201B6EB3C
:100450000B0164EB00042B0D43EA0C335E1844EBF4
:100460001C50DA465146E7FB0201C5F313044FEA7C
:100470000B3343EA14534FEA0432019C43EA060368
:10048000A4F10C040294009CCDE900B400F05EF9E4
:1004900003B0BDE8F08F00200146F9E72DE9F04DEB
:1004A00081EA030404F0004B21F0004514464FF0AC
:1004B000000A23F0004150EA050220D054EA01026C
:1004C0001DD0C5F30A570246C5F31303C1F3130049
:1004D000C1F30A5640F4801543F48013A7EB0608D5
:1004E000101BD64608F2FD3873EB050002D308F165
:1004F000010801E092185B41B8F1000F03DA002017
:100500000146BDE8F08D00204FF480110646844678
:100510000EE0171B73EB050705D3121B63EB0503F6
:1005200006434CEA010C49084FEA300092185B413F
:1005300050EA0107EDD152EA030012D082EA04002A
:1005400083EA0501084305D0101BAB4106D2012206
:10055000002306E000224FF0004302E06FF00102AA
:1005600053101AEB06004CEB085110EB0A0041EB5C
:100570000B01BDE8F04D00F0DAB80EB5C10F80EA0E
:10058000E0700844CA07002140F233438DE80E00B2
:100590000A460B4600F0DAF803B000BD0EB540F293
:1005A000334102910021CDE900110A460B4600F0CB
:1005B000CDF803B000BD70B5C1F30A5201F000459B
:1005C0000024C1F3130140F2FF3341F480119A4239
:1005D00001DA002070BD40F233439A42A2F2334266
:1005E00003DC524200F04AF800E090402C43F1D086
:1005F000404270BDC1F30A5210B5C1F3130140F27D
:10060000FF3341F480119A4201DA002010BD40F21C
:1006100033439A42A2F2334203DC524200F02EF8F6
:1006200010BD904010BD01F0004330B421F00041F6
:1006300050EA010206D00A0DA2F56072C1F313015F
:10064000002A02DC30BC00207047440F44EAC10499
:10065000C100E01830BC00EBC25000F031B8202AD5
:1006600004DB203A00FA02F1002070479140C2F109
:10067000200320FA03F3194390407047202A04DB3B
:10068000203A21FA02F00021704721FA02F3D0400B
:10069000C2F120029140084319467047202A06DB28
:1006A000CB17203A41FA02F043EAE07306E041FA40
:1006B00002F3D040C2F1200291400843194670472E
:1006C0000029A8BF7047401C490008BF20F0010066
:1006D000704710B4B0FA80FC00FA0CF050EA010444
:1006E00004BF10BC704749B1CCF1200421FA04F4D6
:1006F00011FA0CF118BF012121430843A3EB0C01AF
:10070000CB1D4FEA00614FEA102042BF002010BC11
:10071000704700EBC35010440029A4BF10BC7047C1
:10072000401C490008BF20F0010010BC704710B504
:10073000141E73F1000408DA401C41F10001921804
:100740005B411A4301D120F0010010BD2DE9F04DAD
:1007500092469B4611B1B1FA81F202E0B0FA80F202
:1007600020329046FFF77BFF04460F4640EA0A001E
:1007700041EA0B0153465A46084313D0114653EA47
:10078000010019D0C8F140025046FFF777FF054637
:100790000E46504659464246FFF761FF084305D0D2
:1007A000012004E020463946BDE8F08D00200543D5
:1007B00046EAE0762C4337430A986305E40AA0EB47
:1007C00008000022FD0A44EA47540A3002D50020FE
:1007D0000146E9E7010510196941DDE908450019FD
:1007E0006941BDE8F04DA2E770B521F00043034335
:1007F0000CD0C1F30A550024D5EB040564EB0403C7
:10080000D617AD1AB34102DB0020014670BD201897
:1008100041EB025170BD000030B5041E71F10004BF
:1008200004DB4FF00044404264EB0101141E73F1FD
:10083000000405DB1C464FF00043524263EB040307
:10084000994208BF904230BD064C074D06E0E06873
:1008500040F0010394E8070098471034AC42F6D307
:10086000FFF796FC18320008383200082DE9F04DE9
:1008700000231A461B1A8A4103DB00200146BDE80B
:10088000F08DC1F30A52C1F3130141F480154FF00A
:10089000000BD10702D100186D41521E00270446FB
:1008A00040F2FF11384601EB620A3E46804602469E
:1008B00000204FF48011FFF7E1FEC2197141BB180F
:1008C00046EB0100B4EB030C75EB000C04D3E41A07
:1008D00065EB000517460E46241908F101006D412D
:1008E00080463428E3DDF91946EB0600091BA841D0
:1008F00003D24FF0FF32134601E0002213461BEBF8
:10090000070046EB0A51BDE8F04DFFF710BFFEE7C8
:100910007047704770B5044600F0E6F80546601C65
:1009200002D004480078044400F0DEF8401BA042E6
:10093000FAD370BD040000202DE9F84FDFF87CB138
:1009400000224FF001084FF0030A4FF00F090BF19E
:10095000040E00BF0B6808FA02F42340A3426ED1D4
:100960004D68022D01D0122D0ED1D50800EB850C5B
:10097000DCF820505607F70E09FA07F6B5430E6962
:10098000BE402E43CCF82060066855000F790AFA65
:1009900005FC07F0030726EA0C06AF403743076063
:1009A0004E68012E05D0022E03D0112E01D0122E3A
:1009B0000ED18668CF6826EA0C06AF4037438760C1
:1009C0004668A6430C79C4F3001494403443446051
:1009D000C6688C6826EA0C06AC403443C4604C6898
:1009E000E40065D5364C256845F4804525602468CB
:1009F00022F0030504F480440094324C2E19D6F8FA
:100A0000084895072F0F09FA07F5AC432E4DA84269
:100A100001D1002524E02D4DA84201D101251FE080
:100A20002B4DA84201D102251AE02A4DA84201D13E
:100A3000032515E0284DA84202D1042510E037E037
:100A4000264DA84201D105250AE0254DA84201D135
:100A5000062505E0234DA84201D1072500E0082521
:100A6000BD402543C6F80858DBF800405D464E6897
:100A70009C43F60300D51C432C60DEF8004075460D
:100A80004E689C43B60300D51C432C600B4D0835C3
:100A90002C684E689C43F60200D51C432C60074D21
:100AA0000C352C684E689C43B60200D51C432C6064
:100AB000521C102AFFF44EAFBDE8F88F003C0140F5
:100AC000443802400030014000000240000402406F
:100AD00000080240000C02400010024000140240D6
:100AE00000180240001C0240014880687047000066
:100AF0000400002070B5040004D094F83D000025E7
:100B000010B106E0012070BD84F83C50204600F092
:100B1000C1FA242084F83D002068016821F0010119
:100B2000016000F00FFC33492268B0FBF1F1516025
:100B3000314A6368934206D94FF4967359434FF490
:100B40007A73B1FBF3F12368491C19626168914221
:100B50000BD84900B0FBF1F2C2F30B02042A01D218
:100B6000042019E0B0FBF1F016E0A3689BB301EBA1
:100B7000C10202EB0112B0FBF2F242F48042120514
:100B800030D04BB301EBC10202EB0111B0FBF1F02D
:100B900040F4804040F400402168C861D4E9070176
:100BA000084321680860D4E903100843216888607D
:100BB000D4E9050108432168C8602068016841F054
:100BC000010101602564202084F83D00256384F83C
:100BD0003E50002070BD00E006E001EB4102B0FB9A
:100BE000F2F2CCE70120D7E701EB4101B0FBF1F0D5
:100BF000D0E7000040420F00A08601002DE9FF4F22
:100C000081B099468B4604464FF00108FFF76CFF10
:100C1000054694F83D0020287BD1192301224D4937
:100C20002046009500F077FE002872D194F83C0031
:100C300001286ED0012084F83C0020680168C907B3
:100C400003D1016841F0010101602068016821F4CD
:100C500000610160242084F83D00002626643E489F
:100C6000E06220272068016841F4807101604B46F2
:100C700000224FF001112046009500F04CFE0028A4
:100C800058D121680BF0FE000861FFF72DFF2168A5
:100C9000054648694969C0F3400094F83D20C1F316
:100CA00080214FF0A00A12E0B9F1000F04D0FFF745
:100CB0001BFF411B494501D984F83DA021684869C3
:100CC0004969C0F3400094F83D20C1F380210843F6
:100CD00001D1A02AE8D184F83D7020684169C94358
:100CE000890717D4016841F40071016020684169E7
:100CF00080691923012217492046009500F00BFE58
:100D0000C0B984F83D7084F83C60002005B0BDE8AF
:100D1000F08F1DE0016841F40071016021686FF4FB
:100D200080604861192301220A492046009500F09D
:100D3000F2FD08B10320E9E74146039808F10108F4
:100D400081428FD384F83D7084F83C600120DDE758
:100D50000220DBE7020010000000FFFF2DE9FF4F3B
:100D600083B09A46DDE9118793460446DDF840904A
:100D7000FFF7BAFE054694F83D00202874D11923E8
:100D8000012272492046009500F0C5FD0028F5D1EA
:100D900094F83C00012867D0012084F83C002068CA
:100DA0000168C90703D1016841F0010101602068B1
:100DB000016821F400610160222084F83D00402098
:100DC00084F83E0000262664C4F82490A4F82A8003
:100DD0005F48E062608D2085CDE9007553465A4634
:100DE0002046049900F0A7FC28B1206C84F83C60F0
:100DF000042843D076E0208DC8B1012820D00228F5
:100E0000206823D0416980690090208D03286BD829
:100E100001282AD04F4902283B464FF00002009596
:100E20005BD08846204600F076FDE8BB40E02068B5
:100E3000416981690091016841F40071016076E0C7
:100E40002068016821F480610160F0E7016821F405
:100E5000806101602068016841F4006101602068E0
:100E600041698069009062E06EE02A46394620467A
:100E700000F0C6FD30B1206C202833D0012007B02F
:100E8000BDE8F08F206847E02068016841F40071F8
:100E9000016020680169606A421C62620170208DF5
:100EA000401E2085608D00E01CE0401E6085E9E763
:100EB0002068016821F48061016020680169606A2E
:100EC000421C62620170208D401E2085608D401E94
:100ED00060853B46002241460095204600F01BFD00
:100EE0000028D1D00320CAE72A463946204600F020
:100EF00087FD0028BFD120680169606A421C6262D8
:100F00000170208D401E2085608D401E6085206808
:100F10004169C94349070AD40169606A421C626297
:100F20000170208D401E2085608D401E6085208DC3
:100F300000287FF46AAF202084F83D0084F83E60EA
:100F400084F83C6000209AE7022098E70200100035
:100F50000000FFFF040001002DE9FF4F83B09A4617
:100F6000DDE9118793460446DDF84090FFF7BCFDAC
:100F7000064694F83D0020287DD1192301224349DB
:100F80002046009600F0C7FC00287CD194F83C0075
:100F9000012878D0012084F83C0020680168C90746
:100FA00003D1016841F0010101602068016821F46A
:100FB00000610160212084F83D00402084F83E005B
:100FC00000252564C4F82490A4F82A803048E06203
:100FD000608D2085CDE9007653465A462046049917
:100FE00000F022FC80B3206C84F83C50042848D0E8
:100FF00008E032463946204600F033FD30B1206C1F
:10100000042839D0032007B0BDE8F08F606A411C86
:101010006162216800780861208D401E80B22085C1
:10102000618D491E618521684A69D24352070BD4FC
:1010300068B1606A421C626200780861208D401EBF
:101040002085608D401E6085208D0028D1D13246DC
:101050003946204600F038FC0028D0D154F83D0B2A
:10106000016841F400710160202004F81E09E57751
:1010700065770020C7E706E02068016841F4007149
:1010800001600120BFE70220BDE700000200100060
:101090000000FFFF10B586B0044614216846FFF734
:1010A000D9F813492068884220D11248016841F0DC
:1010B000020101600068694600F002000590C0204E
:1010C0000090122001900120029003200390042040
:1010D00004900948FFF730FC06481030016841F4DD
:1010E00000110160006800F40010059006B010BD0A
:1010F0000054004030380240000402400248816839
:101100000278114481607047040000200B4810B53C
:10111000016841F400710160016841F4806101607F
:10112000016841F480710160032000F061F8002043
:1011300000F006F800F024F8002010BD003C02404A
:1011400070B50D4D04464FF47A712878B1FBF0F07C
:101150000A490968B1FBF0F000F0C4FA48B9102C54
:1011600007D200222146501E00F022F800206C60B9
:1011700070BD012070BD00000400002010000020A0
:101180000A4808B5016841F480410160006800F434
:10119000804000900548001F016841F080510160C7
:1011A000006800F08050009008BD00004438024004
:1011B000F0B40E4B1B680C46C3F30223C3F10705C2
:1011C000042D00D90425191D072901D2002300E0B0
:1011D000DB1E012606FA05F1491E214099409E407A
:1011E000761E16403143F0BC00F0A2BC0CED00E0CE
:1011F000064900F0070208684FF6FF03184040EA6E
:101200000220034A10430860704700000CED00E024
:101210000000FA052DE9F0470E46050065D0DFF81D
:101220001481D8F80000F7B200F00F00B04207D2E6
:1012300088F80070D8F8000000F00F00B04254D1D8
:1012400028683D4C810712D5400703D5206840F43B
:10125000E05020602878000703D5206840F4604003
:1012600020602068A96820F0F000084320602878FA
:10127000C0072DD0304968680839012812D00228EB
:1012800013D0032811D00968890700292DDA2168B5
:1012900021F0030101432160FFF726FC814641F262
:1012A000883A0EE009688903EFE709688901ECE7ED
:1012B000FFF71AFCA0EB0901514502D90320BDE854
:1012C000F0872068696800F00C00B0EB810FEFD167
:1012D000D8F80010404601F00F01B14207D907705D
:1012E000006800F00F00B04201D00120E7E7287845
:1012F000400705D52068E96820F4E05008432060E5
:101300002878000706D52068296920F4604040EA63
:10131000C100206000F026F82168084AC1F30311DB
:10132000515CC840064908600020FFF709FF002013
:10133000C5E70000003C0240083802406C3100085C
:10134000100000200448054900680968044AC1F3F8
:101350008221515CC84070471000002008380240CC
:101360007C310008154810B5006810F00C021448D4
:1013700013D01449042A0FD0082A0ED10F4C241F71
:101380002268236802F03F025B0207D52068C0F3A1
:101390008810A0FB010106E0084610BD2168C1F3DA
:1013A0008811A1FB00010023FEF70AFF2168C1F3A9
:1013B0000141491C4900B0FBF1F010BD0838024062
:1013C0000024F40040787D012DE9F84F050076D027
:1013D0002878DFF8F8B2BE4CC00749D0DBF800101F
:1013E0005846C1F38101012908D00068C0F381008B
:1013F00002280AD1201D0068400206D5206880031B
:1014000036D568680028E2D032E06868B0F5803FE1
:1014100010D0B0F5A02F206810D020F480302060CC
:10142000206820F4802020606868A0B1FFF75CFB92
:1014300006460CE0206840F48030F4E740F4802059
:101440002060F7E7FFF750FB801B642873D8206803
:101450008003F7D50CE0FFF747FB064605E000BF29
:10146000FFF742FB801B6428F0D820688003F7D484
:101470002878DFF8608280074FF000093ED5DBF85E
:101480000010584611F00C0F09D00068C0F381001D
:1014900002280BD18D48001F0068400206D4206846
:1014A000800715D5E868012809D111E0E868B8B1CE
:1014B0000120C8F80000FFF717FB064605E002E12F
:1014C000FFF712FB801B0228C0D820688007F7D5E1
:1014D0002068296920F0F80040EAC10020600DE092
:1014E000C8F80090FFF700FB064604E0FFF7FCFA9F
:1014F000801B02281FD820688007F7D428780007AF
:1015000022D5724E744869696C3671B1012101604F
:10151000FFF7EAFA074604E0FFF7E6FAC01B0228E5
:1015200009D830688007F7D50EE0C0F80090FFF7C3
:10153000DBFA074605E083E0FFF7D6FAC01B022876
:101540007ED830688007F7D42878400768D5DFF860
:101550007CA100270AF1380ADAF80000C0000BD499
:10156000DAF8001041F08051CAF80010DAF80000F3
:10157000012700F080500090584E3068C00510D40C
:10158000306840F480703060FFF7AEFA009005E0FC
:10159000FFF7AAFA0099401A022851D83068C0050E
:1015A000F6D54A4EA868683601280FD0052830685D
:1015B00010D020F001003060306820F0040030606E
:1015C000A868B8B1FFF790FA00900FE0306840F0DB
:1015D0000100F4E740F004003060F7E7FFF784FA19
:1015E0000099411A41F28830814264D830688007FE
:1015F000F4D50EE0FFF778FA009007E0FFF774FAF1
:101600000099411A41F28830814254D830688007ED
:10161000F4D42FB1DAF8001021F08051CAF800108C
:10162000A869C0B3DBF80010C1F3810102294AD0D8
:101630000228484607D0C8F86000FFF755FA00E0D6
:1016400039E005463AE04746C8F86000FFF74CFA33
:10165000064604E0FFF748FA801B02282BD82068D2
:101660008001F7D4D5E907010843A96A1C4A490853
:1016700002EB01416A6A41EA8211084395F82C1095
:1016800040EA01611148001F016001203866FFF740
:101690002BFA054605E014E0FFF726FA401B022866
:1016A00009D820688001F7D50BE000BFFFF71CFACE
:1016B000401B022802D90320BDE8F88F2068800172
:1016C000F4D40020F8E70120F6E7000008380240D3
:1016D0000038024000004742800E47420070004040
:1016E0000000FFFF10B5401EB0F1807F01D3012044
:1016F00010BD4FF0E02460610F21601700F018FA70
:101700000020A06107202061002010BDFEE70168D5
:101710004A69D24352050CD46FF480624A610421B5
:101720000164002140F8301F202242730173012020
:101730007047002070472DE9F84F0446006889463D
:101740000B9D01689846174641F48061016020684E
:10175000016841F48071016000954FF0011A002288
:10176000514620460A9B00F0D6F8F0BB216809F0EC
:10177000FE0008610AF1010B2B46594620460A9AE1
:1017800000F0FAF818B1206C042812D03AE0206872
:101790004169806900902A4620460A9900F061F963
:1017A00050B1206C04282DD12068016841F40071EB
:1017B00001600120BDE8F88FFEB2B8F1010F09D039
:1017C0002168380A08612A4620460A9900F049F93A
:1017D0000028E6D1206806612A4620460A9900F0D2
:1017E00040F90028DDD1206800E00BE0016841F4F9
:1017F0008071016000950022514620460A9B00F04E
:101800008AF808B10320D5E7216809F0FF0040F00D
:10181000010008612B46594620460A9A00F0ACF8B0
:101820000028B0D1C6E700002DE9F843044600685F
:101830000D46DDE9089701689846164641F4807127
:1018400001604B4600224FF001112046009700F046
:1018500062F8E8B9216805F0FE0008613B464A4697
:101860001849204600F088F828B1206C04280FD1D0
:101870000120BDE8F88320684169806900903A46FC
:101880004946204600F0EDF820B1206C042813D022
:101890000320EEE7F5B2B8F1010F09D02168300A54
:1018A00008613A464946204600F0DBF80028ECD1B2
:1018B000206805610020DCE72068016841F40071C0
:1018C0000160D5E70200010070B516460D460446DA
:1018D0001AE02046FFF71BFF08B1012070BD681C0D
:1018E00012D025B1FFF700F9801BA8420CD954F89B
:1018F000400F40F0200044F8100900202060202113
:1019000061732073032070BD20684069C0434007A5
:10191000DFD4002070BD2DE9F0471E4690460D46ED
:101920000446C1F30747DDF8209012E0701C10D088
:101930002EB1FFF7D9F8A0EB0900B04209D9002079
:1019400044F8300F20216173A07320730320BDE899
:10195000F0872068012F0AD0806925EA0000000482
:10196000000C06D000214145E0D00020EFE740699F
:10197000F3E70121F7E700002DE9F0479A46914689
:101980000D46044600264FF02008C1F307472AE021
:1019900020684069C043400512D42068016841F4C2
:1019A0000071016021686FF4806048610420206448
:1019B000266384F83D8084F83C600120BDE8F08710
:1019C000B9F1FF3F0FD0B9F1000F05D0FFF78CF848
:1019D000A0EB0A01494506D944F8306F84F80D8020
:1019E00026730320EAE72068012F07D0D0F81800FB
:1019F00025EA00000004000CE0D0C9E74069F7E7E1
:101A00002DE9F041002590460E460446202721E0AE
:101A10004069C043C0060CD421686FF010004861D3
:101A20002564256384F83D7084F83C500120BDE8AE
:101A3000F0812EB1FFF758F8A0EB0800B04209D9A9
:101A400054F8400F40F0200044F8040967702570F6
:101A50000320ECE720684169C9434906D8D4002037
:101A6000E5E770B516460D4604461AE02046FFF736
:101A70004EFE08B1012070BD681C12D025B1FFF7E1
:101A800033F8801BA8420CD954F8400F40F02000D6
:101A900044F8100900202060202161732073032086
:101AA00070BD20684069C0430006DFD4002070BDCF
:101AB0000D4808B5016841F080010160016801F03E
:101AC00080010091016841F001010160016801F0AD
:101AD00001010091016841F002010160006800F01D
:101AE0000200009008BD0000303802400D4810B5DB
:101AF0000B4901600C49416000214FF48042816034
:101B0000C0E9031241618161C1610162FEF7F2FF28
:101B1000002803D0BDE81040FEF7FBBE10BD00005A
:101B2000005400409C000020A0860100FEE77047A2
:101B30000907090E002806DA00F00F0000F1E02086
:101B400080F8141D704700F1E02080F80014704701
:101B500070477047FFF7D2BA30B593B0302168466E
:101B6000FEF778FB14210CA8FEF774FB194800253A
:101B7000016841F080510160006800F080501190D0
:101B80001548016841F4804101600068022400F4B6
:101B9000804011900120039010200490009406943E
:101BA0000820CDE90750A820CDE9090404200B90B6
:101BB0006846FFF709FC0CA90F2081E831004FF4BB
:101BC000A0500F90E002109005210CA8FFF722FB17
:101BD00013B030BD4038024000700040104801682A
:101BE00041F4700101600F48016841F0010101609A
:101BF0000C4A00210832116002680B4B1A40026047
:101C0000031D0A4A1A60026822F480220260054815
:101C10000C300160024958068039086070470000A6
:101C200088ED00E000380240FFFFF6FE103000248F
:101C3000FEE703B401984100009850EAC12018BFA4
:101C400004204A0D18BF40F0010040F2FF72B2EBD1
:101C5000515F08BF40F00200012808BF052002B014
:101C600070470000000000002DE9F04D2DED040B41
:101C70002DED0E8B96B0DDE92550279CDDF890A068
:101C800025F0004624F00048BAF1000F14BF0121EE
:101C9000002101EB4502FC4953184A1093422AD314
:101CA000002814BF0123002303EB44030B44F7492E
:101CB0008B4220D358EA00019FEDF59B76D0DFF8E8
:101CC000D8B35D4503D1BAF1000F05D188E0BAF170
:101CD000000F08BF002100D0012101EB450111F5E3
:101CE000001F08D8002814BF0121002101EB440186
:101CF00011F5001F0BD99DED261B9DED240B16B091
:101D0000BDEC0E8B04B0BDE8F04D00F069BE0027BD
:101D1000002DBCBFE149884521DAE1498845A8BFCB
:101D200002271CDAC3451ADCDE4901EB28511429CD
:101D300008DDC1F1340220FA02F101FA02F2824216
:101D40000DD108E058B9C1F1140228FA02F101FAE4
:101D500002F2424503D101F00101C1F1020756EA46
:101D60000A0124D1002C22DA002D18BF022F01D045
:101D7000012F0AD0022000F07FFE16B0BDEC0E8BC2
:101D800004B0BDE8F04D00F013BE022000F074FE78
:101D900000F00EFE51EC100B81F0004141EC100BF5
:101DA00016B0BDEC0E8B04B0BDE8F08D18E09FEDD1
:101DB000BEAB9FEDBF8B002871D1B848804522D1C2
:101DC00005F1804010F5801008BFBAF1000F07D070
:101DD000B3450ADC002CA8BF9DED260BE0DA0DE030
:101DE000B0EE490AF0EE690ADAE7002C06DA9DED5A
:101DF000260B51EC100B81F000416FE0AE487844A7
:101E000090ED000BCCE7D8454DD1002C48DA2EB12F
:101E100086423AD1BAF1000F42D126E0BAF1000F62
:101E200013D0022000F028FE00F0F6FD8DED020B2D
:101E30009DED240B8DED000B10EE900A039961F3DC
:101E40001E0003909DED020BAAE78DED02AB9DED08
:101E5000240B1AEE901A10EE900A8DED000B61F330
:101E60001E0003909DED020B9AE78DED028B9DED18
:101E7000240B18EE901A10EE900A8DED000B61F312
:101E80001E0003909DED020B8AE709DA9DED240BFD
:101E900051EC190B53EC102BFEF700FB1EE020E079
:101EA0009DED240B7CE786421BDAB4F1804F0DD008
:101EB000A4F10050B0F1FF5013D1002D11DB9DEDC6
:101EC000240B51EC100B01F00DF907E09DED240BF4
:101ED00053EC102B51EC100B00F0C2BC41EC100B7A
:101EE0005EE79DED240B51EC100B01F02DF8BAF1DB
:101EF000000FCDE90E0142D19FED710B46B3A6F163
:101F0000E040B0F17F600CD05E4538D1002D00DAA2
:101F1000A7B3022F0CBF01204FF0FF30FEF72DFBBF
:101F2000DCE7002D01DD002C0DDA002D01DD002C99
:101F30001FDB002D16DA002C14DB012F08BF9FEDEC
:101F4000620B3FF42DAFB0EE4A0AF0EE6A0A27E7C3
:101F5000022F18BF002D0CD0012F0AD1002DFFF643
:101F60001FAF06E0002DB8BF002C08DA012F3FF4A8
:101F700017AFB0EE480AF0EE680A11E71BE0012047
:101F800000EBE57050EA070115D0791EB0EE498AE2
:101F9000F0EE698A084308BF9FED4D8B4E4800253F
:101FA000804570DD4D494E48884514DDB0420DDB5B
:101FB000002C19DB2FE0012000F05EFD16B0BDEC17
:101FC0000E8B04B0BDE8F04D00F016BDB34502DC49
:101FD000002C09DC1FE0864202DA002C1BDA03E049
:101FE0005E452BDD002C16DD022000F045FD00F0E3
:101FF00013FD8DED020B53EC1A2B51EC180BFEF771
:10200000DBF9CDE900010399019861F31E0003900B
:102010009DED020BC4E6022000F02EFD00F00CFD49
:1020200010EE901A18EE900A8DED020B8DED008BDC
:1020300061F31E0003909DED020BB1E69DED0E0BCA
:1020400053EC192B51EC100BFEF7B0F99FED260B5A
:10205000CDE9080153EC102B9DED080B51EC100B52
:10206000FEF7AAF99FED221B53EC112BFEF7A1F905
:102070009DED081B53EC112BFEF79EF99FED1E1BE7
:1020800053EC112B3CE08CE0FFFF1F00FFFF0F0023
:10209000000000000000F03F0000F03F0000F07F73
:1020A0000000404301FCFFFF000000000000F07F43
:1020B00000000000000000000E14000000000000FE
:1020C0000000000000000080000000000000F0FFA1
:1020D000000000000000F0BF0000E0410000F043FD
:1020E000FFFFEF3F00000000000000000000D03FB5
:1020F000555555555555D53F000000000000E03FAF
:10210000FEF757F99DED080B41EC1A0B53EC102B21
:1021100051EC100BFEF750F953EC1A2BFEF74CF96B
:1021200041EC1A0B9FEDFE0B53EC102B9DED080BB1
:1021300051EC100BFEF740F941EC1B0B9FEDFA0B35
:1021400051EC1A0B53EC102BFEF736F941EC1A0B3D
:102150009FEDF70B53EC102B9DED080B51EC100B82
:10216000FEF72AF953EC1A2BFEF720F941EC1A0B73
:1021700051EC1B0B53EC1A2BFEF777F80690CDE9C8
:1021800006519DED060B53EC1B2B51EC100BFEF78B
:102190000DF953EC1A2BFEF70CF941EC100B00F083
:1021A000A1B90020B6F5801F0EDA9FEDE30B53ECCA
:1021B000102B9DED0E0B51EC100BFEF7FDF8CDE949
:1021C0000E016FF034000E4600EB2650A0F2FF37F0
:1021D000C6F31300DA4940F07F6646F04056884265
:1021E000D8BF002408DDD7498142C8BF012403DCE1
:1021F0000024A6F580167F1CD348784400EBC40069
:102200000F9690ED00CB9DED0E0B53EC1C2B51EC7B
:10221000100BFEF7CBF89DED0E0B41EC1B0B53ECB6
:102220001C2B51EC100BFEF720F841EC100B51EC7D
:10223000190B53EC102BFEF731F941EC1D0B51EC4F
:102240001B0B53EC1D2BFEF7B7F841EC1A0BBF48E4
:102250008DED10AB7844109590ED000B4FF00050D1
:1022600040EA660000EB84408DED080B00F500208D
:1022700009909DED080B53EC1C2B51EC100BFEF755
:1022800095F89DED0E1B53EC112BFEF792F841ECE7
:10229000100B53EC102B9DED100B51EC100BFEF7B7
:1022A0008BF89DED080B41EC1C0B53EC102B9DEDB6
:1022B000100B51EC100BFEF77FF853EC1B2BFEF7C5
:1022C00078F853EC1C2BFEF771F853EC1D2BFEF73E
:1022D00073F841EC1C0B53EC1A2B51EC1A0BFEF764
:1022E0006BF841EC1B0B9A480621B0EE4B0AF0EE5E
:1022F0006B0A784400F0E0FAB0EE401AF0EE601A93
:10230000B0EE41DAF0EE61DA53EC1B2B51EC1B0B13
:10231000FEF752F853EC1D2BFEF74EF89DED100B17
:1023200041EC1B0B53EC1A2B51EC100BFDF79DFFEE
:1023300053EC1C2BFEF740F853EC1B2BFDF795FFDD
:102340009DED100B41EC1B0B53EC102B51EC100BC3
:10235000FEF732F841EC1D0B9FED7FEB53EC1E2B8B
:10236000FDF783FF53EC1B2BFDF77FFF0890CDE9B2
:1023700008519DED080B53EC1E2B51EC100BFEF792
:1023800015F853EC1D2BFEF711F853EC1B2BFEF741
:1023900010F89DED080B41EC1D0B53EC102B9DED3F
:1023A000100B51EC100BFEF707F841EC1B0B53EC34
:1023B0001A2B51EC1D0BFDF7FFFF9DED080B41ECB7
:1023C0001A0B53EC102B51EC1C0BFDF7F5FF53ECE3
:1023D0001A2BFDF74AFF41EC1A0B51EC1B0B53EC87
:1023E0001A2BFDF742FF0C90CDE90C519DED0C0B23
:1023F00053EC1B2B51EC100BFDF7D8FF53EC1A2BB1
:10240000FDF7D7FF41EC1B0B9FED550B53EC102B49
:102410009DED0C0B51EC100BFDF7CEFF41EC1A0BB0
:102420009FED510B51EC1B0B53EC102BFDF7C4FF30
:1024300041EC1B0B9FED4E0B53EC102B9DED0C0B49
:1024400051EC100BFDF7B8FF53EC1B2BFDF70DFF04
:1024500041EC100B4848784400EBC40090ED001BA1
:1024600051EC100B53EC112BFDF7FFFE41EC1B0B55
:102470003846FEF782F8CDE9080153EC1B2B51ECEE
:102480001A0BFDF7F2FE41EC100B3C48784400EBD0
:10249000C40090ED00CB51EC100B53EC1C2BFDF75E
:1024A000E4FE9DED081B53EC112BFDF7DEFE0690BC
:1024B000CDE906519DED080B53EC102B9DED060B5D
:1024C00051EC100BFDF772FF53EC1C2BFDF76EFF68
:1024D00053EC1A2BFDF76AFF53EC1B2BFDF769FF3A
:1024E00041EC100B9DED261B53EC102B8DED001BCA
:1024F00000959DED260B51EC100BFDF75DFF9DED5A
:10250000000B41EC1A0B53EC102B9DED260B51ECFC
:10251000100BFDF74BFF9DED061B53EC112B2FE02D
:10252000000000604715F73FFE822B654715F73F17
:1025300044DF5DF80BAE543E000000000000404355
:102540008E9803007AB60B008A0F0000B80F0000C7
:10255000C20E000000000000000000000000084063
:10256000000000E009C7EE3FFD033ADC09C7EE3F7B
:10257000F5015B14E02F3EBE4E0D0000080D00007B
:10258000FDF71AFF53EC1A2BFDF76FFE9DED060BBE
:1025900041EC1A0B53EC102B9DED000B51EC100B82
:1025A000FDF70AFFCDE90C019DED0C0B51EC1A0B68
:1025B00053EC102BFDF759FECDE902010C46AA4958
:1025C0008C422FDB611A084318D19DED0C0B53ECA4
:1025D000102B9DED020B51EC100BFDF7E7FE41ECCB
:1025E0001B0B9FEDA30B51EC1A0B53EC102BFDF7BB
:1025F0003CFE53EC1B2BFEF70FF92DD2022000F00E
:102600003BFA00F009FA10EE901A18EE900A8DEDE0
:10261000020B8DED008B61F31E0003909DED020B0C
:10262000FFF7BEBB944A24F00041914214D3934972
:10263000214408437FF4EFAC9DED0C0B53EC102BC1
:102640009DED020B51EC100BFDF7B0FE53EC1A2B75
:10265000FEF7E2F87FF6DFAC24F000408849894AB3
:10266000002601EB205182422BDA481C4FF48011E6
:1026700021FA00F02044844AC0F30A517A44A1F2BE
:10268000FF3192ED000B814A8DED080BCA4020EA24
:102690000202C0F3130040F48010C1F1140120FACB
:1026A00001F60992002CB8BF76429DED080B53EC61
:1026B000102B9DED0C0B51EC100BFDF777FECDE9C7
:1026C0000C019DED0C0B51EC1A0B53EC102BFDF78C
:1026D000CCFD9FED6F0B0890CDE9085153EC102B0A
:1026E0009DED080B51EC100BFDF766FE41EC1B0B4A
:1026F0009FED690B53EC102B9DED080B51EC100B6B
:10270000FDF75AFE9DED0C0B41EC1C0B53EC102B0E
:102710009DED080B51EC100BFDF748FE53EC1A2B06
:10272000FDF747FE9FED5E1B53EC112BFDF744FEBA
:1027300053EC1C2BFDF799FD41EC1A0B51EC1B0BD4
:1027400053EC1A2BFDF791FDCDE902019DED020B33
:1027500053EC1B2B51EC100BFDF728FE53EC1A2BFE
:10276000FDF727FE9DED020B41EC1A0B53EC102BED
:1027700051EC100BFDF720FECDE908014A489DED14
:10278000080B0521784400F097F89DED081B51ECEB
:10279000100B53EC112BFDF70FFE9DED021B53ECBC
:1027A000112BFDF706FECDE906019DED020B53EC62
:1027B0001A2B51EC100BFDF7FFFD53EC1A2BFDF714
:1027C00054FD9FED3B0B41EC1A0B53EC102B9DED90
:1027D000060B51EC100BFDF7E9FD9DED060B41ECEE
:1027E0001B0B53EC102B9DED020B51EC100BFDF766
:1027F000E3FD53EC1B2BFDF751FE53EC1A2BFDF7B9
:10280000D5FD9DED021B53EC112BFDF7CFFD53ECD5
:10281000192BFDF7CEFDCDE9020101EB06500115A4
:102820000029C8BF039015DC9DED020B324651EC28
:10283000100BFDF7D9FFFFF7FCF9042808BF00F0E3
:10284000FBF832469DED020B51EC100BFDF7CCFF6F
:10285000CDE902019DED020B51EC180B53EC102B4E
:10286000FDF7AAFDFFF73ABB000090400000000012
:10287000FE822B654715973C00CC904000346F3F9B
:1028800001FCFFFF0000E03F900B0000FFFF0F0086
:1028900000000000432EE63F396CA80C615C20BEAE
:1028A000EF39FAFE422EE63F600A00000000000009
:1028B000000000000000004070B504462DED028BC2
:1028C0004D1E00EBC500B0EE408AF0EE608A90ED40
:1028D000000B35F0060017D053EC182B51EC100B01
:1028E000FDF76AFD41EC100B6D1E04EBC50090ED89
:1028F000001B51EC100B53EC112BFDF7B6FC41EC17
:10290000100B35F00600E7D1022D36D0042D1CD077
:10291000062D1CBFBDEC028B70BD53EC182B51EC87
:10292000100BFDF749FD94ED0A1B53EC112BFDF73D
:102930009CFC53EC182BFDF73FFD94ED081B53EC6A
:10294000112BFDF792FC41EC100B53EC182B51ECC2
:10295000100BFDF731FD94ED061B53EC112BFDF729
:1029600084FC53EC182BFDF727FD94ED040B53EC7E
:10297000102BFDF77AFC41EC100B53EC182B51ECAB
:10298000100BFDF719FD94ED021B53EC112BFDF715
:102990006CFC53EC182BFDF70FFD94ED001B53EC72
:1029A000112BFDF762FCBDEC028B41EC100B70BDEE
:1029B0009FED070B10B553EC102B9FED070B51EC5F
:1029C000100BFDF76BFD41EC100B10BD000000007B
:1029D0000000000000000000000000000000F03FC8
:1029E00010B553EC112B51EC100BFDF73EFC41ECF4
:1029F000100B10BD000000009FED050B10B553EC4F
:102A0000102B51EC100BFDF749FD41EC100B10BDE4
:102A100000000000000000009FED050B10B553EC16
:102A2000102B51EC100BFDF7C7FC41EC100B10BD47
:102A300000000000000000709FED050B10B553EC86
:102A4000102B51EC100BFDF7B7FC41EC100B10BD37
:102A5000000000000000001002E008C8121F08C1BA
:102A6000002AFAD170477047002001E001C1121F0F
:102A7000002AFBD170470000014908607047000040
:102A800014000020F0B504462DED0E8B83B0AE226D
:102A9000F42100F05EFB0E20FDF73CFFF6212046FE
:102AA00000F0C0FAE066B422F421204600F051FBA9
:102AB0000E20FDF72FFF6A46F621204600F0C2FAED
:102AC00001AAF721204600F0BDFA02AAF82120460B
:102AD00000F0B8FA9DF800009DF80410000400EB27
:102AE000012080099FEDFECBB0EE4C1AF0EE6C1A7F
:102AF0009FEDFD8B20675834B0EE480AF0EE680A6F
:102B0000FFF7B2F8B0EE401AF0EE601AB0EE419A5C
:102B1000F0EE619A208AFDF741FD53EC192BFDF789
:102B2000BDFC41EC190B618A6069401AFDF725FD77
:102B300053EC192BFDF740FCFDF73DFD0546B4F9BC
:102B40000C002844FDF719FD41EC190B9FEDE8DB63
:102B5000B0EE480AF0EE680AB0EE4D1AF0EE6D1ACB
:102B6000FFF782F8B0EE401AF0EE601AB0EE41AA1C
:102B7000F0EE61AAB4F90A00FDF7FFFC53EC1A2B42
:102B8000FDF71AFC53EC192BFDF788FCFDF713FD3C
:102B900005449FEDD9BBB0EE480AF0EE680AB0EEEE
:102BA0004B1AF0EE6B1AFFF75FF8B0EE409AF0EEBA
:102BB000609A05F10800FDF7E0FC53EC192BFDF7D6
:102BC0006DFCFDF7F8FCE061FDF7D7FC9FEDCC1B39
:102BD00053EC112BFDF7F0FBFDF725FDB0EE4D1A80
:102BE000F0EE6D1AB0EE480AF0EE680AA5F57A65C7
:102BF000A062FFF739F8B0EE40AAF0EE60AA9FEDB0
:102C0000C2EBB0EE480AF0EE680AB0EE4E1AF0EEF3
:102C10006E1AFFF729F805FB05F6B0EE409AF0EEC4
:102C2000609A3046FDF7A9FC53EC192BFDF736FCF2
:102C300041EC190BB4F90600FDF79FFC53EC192B7E
:102C4000FDF7BAFB53EC1A2BFDF728FCFDF7B3FC9C
:102C50000746B0EE4D1AF0EE6D1AB0EE480AF0EEEF
:102C6000680AFFF701F8B4F90000B0EE409AF0EE00
:102C7000609A6843FDF781FC53EC192BFDF70EFCBD
:102C8000FDF799FC34F9021C384400EB8100800008
:102C9000C11700EB917087109FED9D1BB0EE480AA5
:102CA000F0EE680AFEF7E0FFB4F90200B0EE409AD9
:102CB000F0EE609A6843FDF760FC53EC192BFDF7CA
:102CC000EDFBFDF778FC05469FED93DBB0EE480A7F
:102CD000F0EE680AB0EE4D1AF0EE6D1AFEF7C4FF82
:102CE000B0EE409AF0EE609AB0EE4E1AF0EE6E1A28
:102CF000B0EE480AF0EE680AFEF7B6FFB0EE40AA62
:102D0000F0EE60AA3046FDF738FC53EC1A2BFDF7C5
:102D1000C5FB41EC1A0BB4F90400FDF72EFC53EC93
:102D20001A2BFDF749FB53EC192BFDF7B7FBFDF709
:102D300042FC0646B0EE481AF0EE681AB0EE480AB9
:102D4000F0EE680AFEF790FFA819B0EE409AF0EE98
:102D5000609A80F00200FDF710FC53EC192BFDF790
:102D60009DFBFDF728FC0546B0EE4C1AF0EE6C1A00
:102D7000B0EE480AF0EE680AFEF776FFE08905F546
:102D80000045B0EE409AF0EE609A6843FDF706FC0D
:102D900053EC192BFDF782FBFDF72CFC0146A069D3
:102DA00043F2D402C01B5043583CB0F1004F03D251
:102DB00090FBF1F04000A0679FED59ABB0EE480AE0
:102DC000F0EE680AB0EE4A1AF0EE6A1AFEF74CFF0F
:102DD000B0EE409AF0EE609AA06FFDF7CEFB53EC98
:102DE000192BFDF75BFB41EC190BB0EE4A1AF0EE24
:102DF0006A1AB0EE480AF0EE680AFEF735FFB0EE48
:102E000040AAF0EE60AAA06FFDF7B7FB53EC1A2BB7
:102E1000FDF744FB53EC192BFDF7CEFAFDF7CBFB86
:102E20000546B0EE4D1AF0EE6D1AB0EE480AF0EE1F
:102E3000680AFEF719FF40F6DE30B0EE409AF0EE79
:102E4000609A6843FDF799FB53EC192BFDF726FBBD
:102E5000FDF7B1FB0546B0EE4D1AF0EE6D1AB0EE7F
:102E6000480AF0EE680AFEF7FFFE2F49A06FB0EEA9
:102E7000409AF0EE609A4843FDF77FFB53EC192B24
:102E8000FDF70CFBFDF797FB0646B0EE4B1AF0EE94
:102E90006B1AB0EE480AF0EE680AFEF7E5FEA819D4
:102EA000B0EE408AF0EE608A00F6CF60FDF765FB79
:102EB00053EC182BFDF7F2FA41EC180BA06FFDF75D
:102EC0005CFB53EC182BFDF7D0F9FDF774FBA06702
:102ED000FDF753FB9FED151B53EC112B2AE000006F
:102EE0000000000000002E40000000000000004034
:102EF000000000000000264000000000000010401C
:102F00009A9999999999B93F0000000000002840CA
:102F10000000000000002A400000000000003040D7
:102F2000000000000000204043E3FFFF7B14AE4799
:102F3000E17A843FFDF740FAFDF775FBE06703B0E7
:102F40000020BDEC0E8BF0BD82B0CDE9000121F078
:102F5000004001909DED000B02B051EC100B70474A
:102F600070B504462A221349FDF75BF9114D688DAF
:102F70006085E86AE062286B2063092205F134016C
:102F800004F13400FDF74DF995F83D0084F83D005B
:102F900095F83E0084F83E00286C2064686C6064FC
:102FA000A86CA064E86CE064286D2065002084F8BB
:102FB000540070BD9C00002010B5642304461A46DE
:102FC000EF21FDF71BFE08B1012010BD64231A4656
:102FD000EE212046FDF712FE0028F6D1012084F8EC
:102FE0005400002010BD0000FEF790F8FEF7B4FD7D
:102FF000FEF75EFDFEF77AFD0848FFF7B1FF0748D0
:10300000FFF7DAFF022802D10549012008700348C2
:1030100000F024F80148FFF735FDFBE71800002019
:10302000000000201FB56424022303AA8DE81C00C1
:103030000A460123EE21FDF791FEBDF80C0004B015
:1030400040BA10BD3EB5642300920124CDE901438E
:103050000A462346EE21FDF781FE3EBD10B504462B
:10306000AA21FFF7DFFFA4F85600AC212046FFF7A6
:10307000D9FFA4F85800AE212046FFF7D3FFA4F8EB
:103080005A00B6212046FFF7CDFFA4F85C00B82116
:103090002046FFF7C7FFA4F85E00BA212046FFF7DD
:1030A000C1FFA4F86000BC212046FFF7BBFFA4F8D5
:1030B0006200BE212046FFF7B5FFA4F86400B021EE
:1030C0002046FFF7AFFFA4F86600B2212046FFF7C5
:1030D000A9FFA4F86800B4212046FFF7A3FFA4F8D5
:1030E0006A0010BD00B52DED048B83B041EC190BC7
:1030F000FDF7BCFB41EC180B18EE100A18EE901A05
:103100008DED008B002818BF0120084320F00040FF
:10311000C0F17F6000F1E040C00F14D019EE101A2A
:1031200019EE900A8DED009B002918BF012108437C
:1031300020F00040C0F17F6000F1E040C00F04BF0C
:103140000120FFF799FC51EC180B03B0BDEC048B88
:1031500000BD17B583B06424012305AA8DE81C00C7
:103160000A46EF21FDF7F8FE06B010BD0000000092
:103170000000000001020304060708090000000027
:103180000102030400000000000000000000F03F06
:10319000000000000000F83F0000000000000000F8
:1031A0000000004003B8E23F000000000000000003
:1031B00006D0CF43EBFD4C3E033333333333E33F91
:1031C000FFAB6FDBB66DDB3F4D268F515555D53FBD
:1031D00001411DA96074D13F65DBC9934A86CD3F8B
:1031E000EF4E454A287ECA3F3E5555555555C53F79
:1031F00093BDBE166CC166BF2CDE25AF6A56113F6B
:10320000F16BD2C541BDBBBED0A4BE726937663E6C
:10321000000000000000000038320008000000201C
:1032200018000000582A000850320008180000203A
:10323000D8040000682A0008000000000100000017
:1032400010000000000000000024F4000000000056
:040000050800018965
:00000001FF
