:020000040800F2
:10000000680400209D0100086F0C0008ED0B00083B
:100010006D0C0008A9020008710D00080000000026
:10002000000000000000000000000000930C000829
:10003000AB02000800000000910C0008950C0008BD
:10004000B7010008B7010008B7010008B7010008B0
:10005000B7010008B7010008B7010008B7010008A0
:10006000B7010008B7010008B7010008B701000890
:10007000B7010008B7010008B7010008B701000880
:10008000B7010008B7010008B7010008B701000870
:10009000B7010008B7010008B7010008B701000860
:1000A000B7010008B7010008B7010008B701000850
:1000B000B7010008B7010008B7010008B701000840
:1000C000B7010008B7010008B7010008B701000830
:1000D000B7010008B7010008B7010008B701000820
:1000E000B7010008B7010008B7010008B701000810
:1000F000B7010008B7010008B7010008B701000800
:10010000B7010008B7010008B7010008B7010008EF
:10011000B7010008B7010008B7010008B7010008DF
:10012000B7010008B7010008B7010008B7010008CF
:10013000B7010008B7010008B7010008B7010008BF
:10014000B7010008B7010008B7010008B7010008AF
:10015000B7010008B7010008B7010008B70100089F
:10016000B7010008B7010008B7010008B70100088F
:10017000B7010008B7010008B7010008000000003F
:10018000B7010008B7010008DFF80CD000F07AF8DA
:1001900000480047910D0008680400200648804789
:1001A00006480047FEE7FEE7FEE7FEE7FEE7FEE75C
:1001B000FEE7FEE7FEE7FEE71D0D000889010008E7
:1001C0002DE9F05F0546002092469B46884606468C
:1001D000814640241BE0284641464746224600F01F
:1001E00041F853465A46C01A914110D31146184659
:1001F000224600F028F82D1A67EB01084F462246E8
:100200000120002100F01FF817EB00094E41201ECD
:10021000A4F10104DFDC484631462A464346BDE8E6
:10022000F09FD2B201E000F8012B491EFBD27047CB
:100230000022F6E710B513460A4604461946FFF7B2
:10024000F0FF204610BD202A04DB203A00FA02F11C
:10025000002070479140C2F1200320FA03F31943B4
:1002600090407047202A04DB203A21FA02F0002156
:10027000704721FA02F3D040C2F1200291400843B6
:1002800019467047064C074D06E0E06840F0010350
:1002900094E8070098471034AC42F6D3FFF778FF94
:1002A000BC0D0008DC0D0008FEE770477047000039
:1002B0002DE9F84FDFF87CB100224FF001084FF034
:1002C000030A4FF00F090BF1040E00BF0B6808FA88
:1002D00002F42340A3426ED14D68022D01D0122DAD
:1002E0000ED1D50800EB850CDCF820505607F70E30
:1002F00009FA07F6B5430E69BE402E43CCF82060DC
:10030000066855000F790AFA05FC07F0030726EA8C
:100310000C06AF40374307604E68012E05D0022E11
:1003200003D0112E01D0122E0ED18668CF6826EA96
:100330000C06AF40374387604668A6430C79C4F388
:100340000014944034434460C6688C6826EA0C0666
:10035000AC403443C4604C68E40065D5364C256835
:1003600045F480452560246822F0030504F48044A8
:100370000094324C2E19D6F8084895072F0F09FA29
:1003800007F5AC432E4DA84201D1002524E02D4DA8
:10039000A84201D101251FE02B4DA84201D1022521
:1003A0001AE02A4DA84201D1032515E0284DA842A4
:1003B00002D1042510E037E0264DA84201D10525E1
:1003C0000AE0254DA84201D1062505E0234DA842AB
:1003D00001D1072500E00825BD402543C6F808588F
:1003E000DBF800405D464E689C43F60300D51C4395
:1003F0002C60DEF8004075464E689C43B60300D57D
:100400001C432C600B4D08352C684E689C43F6024B
:1004100000D51C432C60074D0C352C684E689C435E
:10042000B60200D51C432C60521C102AFFF44EAFBC
:10043000BDE8F88F003C01404438024000300140E4
:10044000000002400004024000080240000C02408C
:10045000001002400014024000180240001C02403C
:1004600001488068704700000000002070B504005B
:1004700004D094F83D00002510B106E0012070BDC5
:1004800084F83C50204600F075F8242084F83D00A4
:100490002068016821F00101016000F0C3F93349CF
:1004A0002268B0FBF1F15160314A6368934206D98A
:1004B0004FF4967359434FF47A73B1FBF3F1236809
:1004C000491C1962616891420BD84900B0FBF1F2F6
:1004D000C2F30B02042A01D2042019E0B0FBF1F0B0
:1004E00016E0A3689BB301EBC10202EB0112B0FB63
:1004F000F2F242F48042120530D04BB301EBC1025C
:1005000002EB0111B0FBF1F040F4804040F40040F8
:100510002168C861D4E90701084321680860D4E96B
:100520000310084321688860D4E905010843216865
:10053000C8602068016841F0010101602564202045
:1005400084F83D00256384F83E50002070BD00E033
:1005500006E001EB4102B0FBF2F2CCE70120D7E765
:1005600001EB4101B0FBF1F0D0E7000040420F0089
:10057000A086010010B586B0044614216846FFF736
:1005800057FE13492068884220D11248016841F083
:10059000020101600068694600F002000590C02079
:1005A000009012200190012002900320039004206B
:1005B00004900948FFF77CFE06481030016841F4BA
:1005C00000110160006800F40010059006B010BD35
:1005D0000054004030380240000402400248816864
:1005E0000278114481607047000000200B4810B56C
:1005F000016841F400710160016841F480610160AB
:10060000016841F480710160032000F061F800206E
:1006100000F006F800F024F8002010BD003C024075
:1006200070B50D4D04464FF47A712878B1FBF0F0A7
:100630000A490968B1FBF0F000F0C4FA48B9102C7F
:1006400007D200222146501E00F022F800206C60E4
:1006500070BD012070BD0000000000200C000020D3
:100660000A4808B5016841F480410160006800F45F
:10067000804000900548001F016841F080510160F2
:10068000006800F08050009008BD0000443802402F
:10069000F0B40E4B1B680C46C3F30223C3F10705ED
:1006A000042D00D90425191D072901D2002300E0DB
:1006B000DB1E012606FA05F1491E214099409E40A5
:1006C000761E16403143F0BC00F0D2BA0CED00E0CB
:1006D000064900F0070208684FF6FF03184040EA99
:1006E0000220034A10430860704700000CED00E050
:1006F0000000FA052DE9F0470E46050065D0DFF849
:100700001481D8F80000F7B200F00F00B04207D211
:1007100088F80070D8F8000000F00F00B04254D103
:1007200028683D4C810712D5400703D5206840F466
:10073000E05020602878000703D5206840F460402E
:1007400020602068A96820F0F00008432060287825
:10075000C0072DD0304968680839012812D0022816
:1007600013D0032811D00968890700292DDA2168E0
:1007700021F0030101432160FFF772FE814641F23F
:10078000883A0EE009688903EFE709688901ECE718
:10079000FFF766FEA0EB0901514502D90320BDE831
:1007A000F0872068696800F00C00B0EB810FEFD192
:1007B000D8F80010404601F00F01B14207D9077088
:1007C000006800F00F00B04201D00120E7E7287870
:1007D000400705D52068E96820F4E0500843206010
:1007E0002878000706D52068296920F4604040EA8F
:1007F000C100206000F026F82168084AC1F3031107
:10080000515CC840064908600020FFF709FF00203E
:10081000C5E70000003C024008380240A20D000875
:100820000C0000200448054900680968044AC1F327
:100830008221515CC84070470C00002008380240FB
:10084000B20D0008154810B5006810F00C021448ED
:1008500013D01449042A0FD0082A0ED10F4C241F9C
:100860002268236802F03F025B0207D52068C0F3CC
:100870008810A0FB010106E0084610BD2168C1F305
:100880008811A1FB00010023FFF79AFC2168C1F346
:100890000141491C4900B0FBF1F010BD083802408D
:1008A0000024F40040787D012DE9F84F050076D052
:1008B0002878DFF8F8B2BE4CC00749D0DBF800104A
:1008C0005846C1F38101012908D00068C0F38100B6
:1008D00002280AD1201D0068400206D52068800346
:1008E00036D568680028E2D032E06868B0F5803F0D
:1008F00010D0B0F5A02F206810D020F480302060F8
:10090000206820F4802020606868A0B1FFF7A8FD6F
:1009100006460CE0206840F48030F4E740F4802084
:100920002060F7E7FFF79CFD801B642873D82068E0
:100930008003F7D50CE0FFF793FD064605E000BF06
:10094000FFF78EFD801B6428F0D820688003F7D461
:100950002878DFF8608280074FF000093ED5DBF889
:100960000010584611F00C0F09D00068C0F3810048
:1009700002280BD18D48001F0068400206D4206871
:10098000800715D5E868012809D111E0E868B8B1F9
:100990000120C8F80000FFF763FD064605E002E10C
:1009A000FFF75EFD801B0228C0D820688007F7D5BE
:1009B0002068296920F0F80040EAC10020600DE0BD
:1009C000C8F80090FFF74CFD064604E0FFF748FD2D
:1009D000801B02281FD820688007F7D428780007DA
:1009E00022D5724E744869696C3671B1012101607B
:1009F000FFF736FD074604E0FFF732FDC01B022873
:100A000009D830688007F7D50EE0C0F80090FFF7EE
:100A100027FD074605E083E0FFF722FDC01B022803
:100A20007ED830688007F7D42878400768D5DFF88B
:100A30007CA100270AF1380ADAF80000C0000BD4C4
:100A4000DAF8001041F08051CAF80010DAF800001E
:100A5000012700F080500090584E3068C00510D437
:100A6000306840F480703060FFF7FAFC009005E0D9
:100A7000FFF7F6FC0099401A022851D83068C005EB
:100A8000F6D54A4EA868683601280FD00528306888
:100A900010D020F001003060306820F00400306099
:100AA000A868B8B1FFF7DCFC00900FE0306840F0B8
:100AB0000100F4E740F004003060F7E7FFF7D0FCF6
:100AC0000099411A41F28830814264D83068800729
:100AD000F4D50EE0FFF7C4FC009007E0FFF7C0FC80
:100AE0000099411A41F28830814254D83068800719
:100AF000F4D42FB1DAF8001021F08051CAF80010B8
:100B0000A869C0B3DBF80010C1F3810102294AD003
:100B10000228484607D0C8F86000FFF7A1FC00E0B3
:100B200039E005463AE04746C8F86000FFF798FC10
:100B3000064604E0FFF794FC801B02282BD82068AF
:100B40008001F7D4D5E907010843A96A1C4A49087E
:100B500002EB01416A6A41EA8211084395F82C10C0
:100B600040EA01611148001F016001203866FFF76B
:100B700077FC054605E014E0FFF772FC401B0228F5
:100B800009D820688001F7D50BE000BFFFF768FCAB
:100B9000401B022802D90320BDE8F88F206880019D
:100BA000F4D40020F8E70120F6E7000008380240FE
:100BB0000038024000004742800E4742007000406B
:100BC0000000FFFF10B5401EB0F1807F01D301206F
:100BD00010BD4FF0E02460610F21601700F048F86D
:100BE0000020A06107202061002010BDFEE700006A
:100BF0000D4808B5016841F080010160016801F00D
:100C000080010091016841F001010160016801F07B
:100C100001010091016841F002010160006800F0EB
:100C20000200009008BD0000303802400D4810B5A9
:100C30000B4901600C49416000214FF48042816002
:100C4000C0E9031241618161C1610162FFF70EFCDD
:100C5000002803D0BDE81040FFF728BB10BD0000FE
:100C60000054004010000020A0860100FEE77047FD
:100C70000907090E002806DA00F00F0000F1E02055
:100C800080F8141D704700F1E02080F800147047D0
:100C900070477047FFF7A2BC30B593B0302168466B
:100CA000FFF7C6FA14210CA8FFF7C2FA194800256D
:100CB000016841F080510160006800F0805011909F
:100CC0001548016841F4804101600068022400F485
:100CD000804011900120039010200490009406940D
:100CE0000820CDE90750A820CDE9090404200B9085
:100CF0006846FFF7D9FD0CA90F2081E831004FF4B9
:100D0000A0500F90E002109005210CA8FFF7F2FC14
:100D100013B030BD403802400070004010480168F8
:100D200041F4700101600F48016841F00101016068
:100D30000C4A00210832116002680B4B1A40026015
:100D4000031D0A4A1A60026822F4802202600548E4
:100D50000C30016002495806803908607047000075
:100D600088ED00E000380240FFFFF6FE103000245E
:100D7000FEE702E008C8121F08C1002AFAD1704736
:100D80007047002001E001C1121F002AFBD170470B
:100D9000FFF72CFCFFF780FFFFF72AFFFFF746FF66
:100DA000FEE7000000000000000001020304060747
:100DB000080900000000010203040000DC0D000827
:100DC0000000002010000000720D0008EC0D00086B
:100DD0001000002058040000820D000801000000EF
:0C0DE00010000000000000000024F400DF
:040000050800018965
:00000001FF
