:020000040800F2
:10000000C80C00209D0100089F26000865210008FB
:100010009D260008750A00086F34000800000000E3
:10002000000000000000000000000000FB3000089D
:10003000770A000800000000C1260008FD30000813
:10004000B7010008B7010008B7010008B7010008B0
:10005000B7010008B7010008B7010008B7010008A0
:10006000B7010008B7010008B7010008B701000890
:10007000B7010008B7010008B7010008B701000880
:10008000B7010008B7010008B7010008B701000870
:10009000B7010008B7010008B7010008B701000860
:1000A000B7010008B7010008B7010008B701000850
:1000B000B7010008B7010008B7010008B701000840
:1000C000B7010008B7010008B7010008B701000830
:1000D000B7010008B7010008B7010008B701000820
:1000E000B7010008B7010008B7010008B701000810
:1000F000B7010008B7010008B7010008B701000800
:10010000B7010008B7010008B7010008B7010008EF
:10011000B7010008B7010008B7010008B7010008DF
:10012000B7010008B7010008B7010008B7010008CF
:10013000B7010008B7010008B7010008B7010008BF
:10014000B7010008B7010008B7010008B7010008AF
:10015000B7010008B7010008B7010008B70100089F
:10016000B7010008B7010008B7010008B70100088F
:10017000B7010008B7010008B7010008000000003F
:10018000B7010008B7010008DFF80CD000F0AAFBA7
:100190000048004705630008C80C00200648804757
:1001A00006480047FEE7FEE7FEE7FEE7FEE7FEE75C
:1001B000FEE7FEE7FEE7FEE785310008890100085B
:1001C0002DE9F05F0546002092469B46884606468C
:1001D000814640241BE0284641464746224600F01F
:1001E00084FA53465A46C01A914110D31146184614
:1001F000224600F06BFA2D1A67EB01084F462246A3
:100200000120002100F062FA17EB00094E41201E88
:10021000A4F10104DFDC484631462A464346BDE8E6
:10022000F09F40EA01039B0703D009E008C9121FB1
:1002300008C0042AFAD203E011F8013B00F8013BA0
:10024000521EF9D27047D2B201E000F8012B491ECC
:10025000FBD270470022F6E710B513460A46044663
:100260001946FFF7F0FF204610BD10B5484304467D
:1002700006F0BCF8002805D00021002C02D0641E36
:100280000155FAE710BD2DE9FE4F804681EA0300D3
:10029000C00F0C46009021F0004123F00045B8EB60
:1002A0000200A94105D24046214690461C460B4615
:1002B000024623F00040104347D0270DC7F30A0041
:1002C000C3F30A510290401A019040286BDAC3F33D
:1002D000130040F4801B0098924620B10023D2EB1B
:1002E000030A63EB0B0B01985946C0F140025046DC
:1002F00000F0ECF906460D4650465946019A00F0CA
:1003000004FA10EB08006141002487EA115284EAE4
:10031000E7731A4340D0009A62B3019A012A4FEA68
:10032000075215DC001B61EB02014FF0004202EAAC
:100330000752CDE90042001C41F5801132462B46A0
:1003400000F03BFA03B0BDE8F08F40462146F9E7E4
:10035000001B61EB0201001C41F5801300185B419A
:100360002018A2F5001747EB030140EAD570B61933
:100370006D4111E06D084FEA360645EAC0754FEA57
:100380000752001B61EB0201001C41F58011490876
:100390004FEA30000019514132462B4603B0BDE808
:1003A000F04F00F0FBB90098012240000023D0EB91
:1003B000020263EBE073009821464FEAE074B8EB69
:1003C000000061EB0401E9E783F000435BE781F0A3
:1003D000004158E72DE9FE4F81EA030404F0004490
:1003E00021F0004100944FF0000B23F0004350EA4D
:1003F00001045ED052EA03045BD0C3F30A54C1F394
:100400000A552C44A4F2F3340194A0FB0254C1F326
:10041000130141F48011C3F3130343F4801301FB70
:10042000024400FB034E840A970A44EA815447EAD7
:100430008357A4FB076802958D0A05FB07854FEAE1
:10044000932C04FB0C542705029D4FEA065847EAFB
:100450001637B5EB08056EEB070C870E920E47EAD0
:10046000811742EA8312A7FB0201B6EB0B0164EB92
:1004700000042B0D43EA0C335E1844EB1C50DA46A3
:100480005146E7FB0201C5F313044FEA0B3343EA7D
:1004900014534FEA0432019C43EA0603A4F10C040E
:1004A0000294009CCDE900B400F087F903B0BDE8E8
:1004B000F08F00200146F9E72DE9F04D81EA0304B1
:1004C00004F0004B21F0004514464FF0000A23F0E1
:1004D000004150EA050220D054EA01021DD0C5F3C4
:1004E0000A570246C5F31303C1F31300C1F30A56BA
:1004F00040F4801543F48013A7EB0608101BD64682
:1005000008F2FD3873EB050002D308F1010801E0A1
:1005100092185B41B8F1000F03DA00200146BDE8F4
:10052000F08D00204FF48011064684460EE0171B24
:1005300073EB050705D3121B63EB050306434CEA77
:10054000010C49084FEA300092185B4150EA01075C
:10055000EDD152EA030012D082EA040083EA0501D9
:10056000084305D0101BAB4106D20122002306E050
:1005700000224FF0004302E06FF0010253101AEB2B
:1005800006004CEB085110EB0A0041EB0B01BDE8F3
:10059000F04D00F003B90EB5C10F80EAE0700844D9
:1005A000CA07002140F233438DE80E000A460B468D
:1005B00000F003F903B000BD0EB540F233410291E3
:1005C0000021CDE900110A460B4600F0F6F803B011
:1005D00000BD70B5C1F30A5201F000450024C1F31B
:1005E000130140F2FF3341F480119A4201DA0020F6
:1005F00070BD40F233439A42A2F2334203DC5242CE
:1006000000F073F800E090402C43F1D0404270BD00
:10061000C1F30A5210B5C1F3130140F2FF3341F4A4
:1006200080119A4201DA002010BD40F233439A4211
:10063000A2F2334203DC524200F057F810BD904062
:1006400010BD00F0004230F000400AD0C10D01F5AD
:100650006071C0F3160042EA0151C208400711431D
:10066000704700200146704701F0004330B421F08C
:10067000004150EA010206D00A0DA2F56072C1F3F2
:100680001301002A02DC30BC00207047440F44EA0A
:10069000C104C100E01830BC00EBC25000F047B804
:1006A00030B50B46014600202022012409E021FA42
:1006B00002F59D4205D303FA02F5491B04FA02F53F
:1006C0002844151EA2F10102F1DC30BD202A04DB12
:1006D000203A00FA02F1002070479140C2F1200355
:1006E00020FA03F3194390407047202A04DB203A94
:1006F00021FA02F00021704721FA02F3D040C2F142
:1007000020029140084319467047202A06DBCB1788
:10071000203A41FA02F043EAE07306E041FA02F3BC
:10072000D040C2F120029140084319467047002989
:10073000A8BF7047401C490008BF20F00100704767
:1007400010B4B0FA80FC00FA0CF050EA010404BFC7
:1007500010BC704749B1CCF1200421FA04F411FA1D
:100760000CF118BF012121430843A3EB0C01CB1D61
:100770004FEA00614FEA102042BF002010BC7047D2
:1007800000EBC35010440029A4BF10BC7047401CAC
:10079000490008BF20F0010010BC704710B5141EBE
:1007A00073F1000408DA401C41F1000192185B412A
:1007B0001A4301D120F0010010BD2DE9F04D924601
:1007C0009B4611B1B1FA81F202E0B0FA80F2203218
:1007D0009046FFF77BFF04460F4640EA0A0041EAD5
:1007E0000B0153465A46084313D0114653EA010001
:1007F00019D0C8F140025046FFF777FF05460E4674
:10080000504659464246FFF761FF084305D0012094
:1008100004E020463946BDE8F08D0020054346EA55
:10082000E0762C4337430A986305E40AA0EB0800FE
:100830000022FD0A44EA47540A3002D5002001464E
:10084000E9E7010510196941DDE908450019694129
:10085000BDE8F04DA2E770B521F0004303430CD092
:10086000C1F30A550024D5EB040564EB0403D61745
:10087000AD1AB34102DB0020014670BD201841EBE8
:10088000025170BDC1F30A52C1F3130140F2FF33AC
:1008900041F480119A4202DA00200146704740F28A
:1008A00033439A42A2F2334202DC5242FFF71DBFA9
:1008B000FFF70CBF30B5041E71F1000404DB4FF0EC
:1008C0000044404264EB0101141E73F1000405DB97
:1008D0001C464FF00043524263EB0403994208BFA9
:1008E000904230BD064C074D06E0E06840F0010341
:1008F00094E8070098471034AC42F6D3FFF748FC61
:10090000686A0008886A00082DE9F04D00231A463D
:100910001B1A8A4103DB00200146BDE8F08DC1F3BC
:100920000A52C1F3130141F480154FF0000BD107B7
:1009300002D100186D41521E0027044640F2FF11FB
:10094000384601EB620A3E468046024600204FF4DC
:100950008011FFF7CAFEC2197141BB1846EB0100B6
:10096000B4EB030C75EB000C04D3E41A65EB000543
:1009700017460E46241908F101006D4180463428BF
:10098000E3DDF91946EB0600091BA84103D24FF03D
:10099000FF32134601E0002213461BEB070046EB33
:1009A0000A51BDE8F04DFFF7F9BE000010B5012473
:1009B0002102034800F06EF900B10024204610BD6A
:1009C000000002400146014800F0E1BFDC050020C4
:1009D00010B5044800F0EDFF042801D0012010BD3F
:1009E000002010BDDC05002010B500F015F801282E
:1009F00001D0012010BD074800F0F1FF040006D12E
:100A00004FF40061034800F099FE00B10124204634
:100A100010BD0000DC05002008B501208DF80000A5
:100A2000FFF7C4FF10B900208DF800009DF800000A
:100A300008BD000038B50024009313460A4601465D
:100A4000034801F05BF800B10124204638BD0000E6
:100A5000DC05002038B50024009313460A46014601
:100A6000034801F025F900B10124204638BD0000FB
:100A7000DC050020FEE7704770470022AFF30080DE
:100A800030B50E4B054601205C7A002C14D1587A03
:100A90001C54587A03EB800045605D7A03F108002E
:100AA0002A54587A421C5A72303008703A204870E2
:100AB0002F208870CC70002030BD0000BC060020C4
:100AC00070B5044600F0ECF80546601C02D00448FE
:100AD0000078044400F0E4F8401BA042FAD370BD53
:100AE000080000202DE9F84FDFF87CB100224FF01C
:100AF00001084FF0030A4FF00F090BF1040E00BF7D
:100B00000B6808FA02F42340A3426ED14D68022D0F
:100B100001D0122D0ED1D50800EB850CDCF8205049
:100B20005607F70E09FA07F6B5430E69BE402E4385
:100B3000CCF82060066855000F790AFA05FC07F02A
:100B4000030726EA0C06AF40374307604E68012EC4
:100B500005D0022E03D0112E01D0122E0ED18668A0
:100B6000CF6826EA0C06AF40374387604668A64345
:100B70000C79C4F30014944034434460C6688C6814
:100B800026EA0C06AC403443C4604C68E40065D5EA
:100B9000364C256845F480452560246822F003051D
:100BA00004F480440094324C2E19D6F80848950776
:100BB0002F0F09FA07F5AC432E4DA84201D10025AD
:100BC00024E02D4DA84201D101251FE02B4DA84264
:100BD00001D102251AE02A4DA84201D1032515E0D2
:100BE000284DA84202D1042510E037E0264DA84246
:100BF00001D105250AE0254DA84201D1062505E0D1
:100C0000234DA84201D1072500E00825BD4025431A
:100C1000C6F80858DBF800405D464E689C43F60372
:100C200000D51C432C60DEF8004075464E689C439E
:100C3000B60300D51C432C600B4D08352C684E685C
:100C40009C43F60200D51C432C60074D0C352C68E4
:100C50004E689C43B60200D51C432C60521C102ADF
:100C6000FFF44EAFBDE8F88F003C0140443802402D
:100C70000030014000000240000402400008024031
:100C8000000C024000100240001402400018024014
:100C9000001C02400069084000D00120704700009D
:100CA00001488068704700000800002070B504000B
:100CB00004D094F83D00002510B106E0012070BD7D
:100CC00084F83C50204600F011FA242084F83D00BE
:100CD0002068016821F00101016000F05FFB3349E9
:100CE0002268B0FBF1F15160314A6368934206D942
:100CF0004FF4967359434FF47A73B1FBF3F12368C1
:100D0000491C1962616891420BD84900B0FBF1F2AD
:100D1000C2F30B02042A01D2042019E0B0FBF1F067
:100D200016E0A3689BB301EBC10202EB0112B0FB1A
:100D3000F2F242F48042120530D04BB301EBC10213
:100D400002EB0111B0FBF1F040F4804040F40040B0
:100D50002168C861D4E90701084321680860D4E923
:100D60000310084321688860D4E90501084321681D
:100D7000C8602068016841F00101016025642020FD
:100D800084F83D00256384F83E50002070BD00E0EB
:100D900006E001EB4102B0FBF2F2CCE70120D7E71D
:100DA00001EB4101B0FBF1F0D0E7000040420F0041
:100DB000A08601002DE9FF4F83B09A46DDE9118737
:100DC00093460446DDF84090FFF76AFF054694F825
:100DD0003D00202874D11923012272492046009534
:100DE00001F0C5FA0028F5D194F83C00012867D03D
:100DF000012084F83C0020680168C90703D101681C
:100E000041F0010101602068016821F40061016086
:100E1000222084F83D00402084F83E00002626640D
:100E2000C4F82490A4F82A805F48E062608D208591
:100E3000CDE9007553465A462046049901F0A7F9BA
:100E400028B1206C84F83C60042843D076E0208DE3
:100E5000C8B1012820D00228206823D041698069C8
:100E60000090208D03286BD801282AD04F490228F2
:100E70003B464FF0000200955BD08846204601F0CB
:100E800076FAE8BB40E02068416981690091016819
:100E900041F40071016076E02068016821F480610E
:100EA0000160F0E7016821F4806101602068016859
:100EB00041F400610160206841698069009062E04E
:100EC0006EE02A463946204601F0C6FA30B1206C61
:100ED000202833D0012007B0BDE8F08F206847E01C
:100EE0002068016841F40071016020680169606A4E
:100EF000421C62620170208D401E2085608D00E0E2
:100F00001CE0401E6085E9E72068016821F48061EB
:100F1000016020680169606A421C62620170208D74
:100F2000401E2085608D401E60853B460022414664
:100F30000095204601F01BFA0028D1D00320CAE713
:100F40002A463946204601F087FA0028BFD120689A
:100F50000169606A421C62620170208D401E20851A
:100F6000608D401E608520684169C94349070AD4E5
:100F70000169606A421C62620170208D401E2085FA
:100F8000608D401E6085208D00287FF46AAF202090
:100F900084F83D0084F83E6084F83C6000209AE7C5
:100FA000022098E7020010000000FFFF040001008B
:100FB0002DE9FF4F83B09A46DDE911879346044639
:100FC000DDF84090FFF76CFE064694F83D002028BF
:100FD0007DD11923012243492046009601F0C7F92B
:100FE00000287CD194F83C00012878D0012084F8B6
:100FF0003C0020680168C90703D1016841F0010184
:1010000001602068016821F400610160212084F8FA
:101010003D00402084F83E0000252564C4F824905B
:10102000A4F82A803048E062608D2085CDE9007602
:1010300053465A462046049901F022F980B3206CA9
:1010400084F83C50042848D008E03246394620460F
:1010500001F033FA30B1206C042839D0032007B0F6
:10106000BDE8F08F606A411C616221680078086108
:10107000208D401E80B22085618D491E61852168CA
:101080004A69D24352070BD468B1606A421C62625B
:1010900000780861208D401E2085608D401E60858F
:1010A000208D0028D1D132463946204601F038F94A
:1010B0000028D0D154F83D0B016841F40071016063
:1010C000202004F81E09E57765770020C7E706E0D1
:1010D0002068016841F4007101600120BFE702202F
:1010E000BDE70000020010000000FFFF10B586B051
:1010F000044614216846FFF7ADF81349206888427A
:1011000020D11248016841F002010160006869467F
:1011100000F002000590C0200090122001900120F4
:10112000029003200390042004900948FFF7DAFCA2
:1011300006481030016841F400110160006800F4B5
:101140000010059006B010BD005400403038024039
:1011500000040240024881680278114481607047AF
:10116000080000200B4810B5016841F400710160CF
:10117000016841F480610160016841F4807101609F
:10118000032000F061F8002000F006F800F024F8D9
:10119000002010BD003C024070B50D4D04464FF4D8
:1011A0007A712878B1FBF0F00A490968B1FBF0F0D8
:1011B00000F04BFE48B9102C07D200222146501EE9
:1011C00000F022F800206C6070BD012070BD0000AE
:1011D00008000020140000200A4808B5016841F406
:1011E00080410160006800F4804000900548001FC5
:1011F000016841F080510160006800F0805000906B
:1012000008BD000044380240F0B40E4B1B680C4689
:10121000C3F30223C3F10705042D00D90425191DCA
:10122000072901D2002300E0DB1E012606FA05F1A2
:10123000491E214099409E40761E16403143F0BC25
:1012400001F02EBA0CED00E0064900F00702086834
:101250004FF6FF03184040EA0220034A104308609B
:10126000704700000CED00E00000FA052DE9F047A2
:101270000E46050065D0DFF81481D8F80000F7B2FB
:1012800000F00F00B04207D288F80070D8F80000D4
:1012900000F00F00B04254D128683D4C810712D5B0
:1012A000400703D5206840F4E0502060287800070C
:1012B00003D5206840F4604020602068A96820F0D1
:1012C000F000084320602878C0072DD030496868B6
:1012D0000839012812D0022813D0032811D0096838
:1012E000890700292DDA216821F0030101432160DB
:1012F000FFF7D6FC814641F2883A0EE0096889037F
:10130000EFE709688901ECE7FFF7CAFCA0EB0901E8
:10131000514502D90320BDE8F0872068696800F0D4
:101320000C00B0EB810FEFD1D8F80010404601F06F
:101330000F01B14207D90770006800F00F00B042FA
:1013400001D00120E7E72878400705D52068E96843
:1013500020F4E050084320602878000706D5206874
:10136000296920F4604040EAC100206000F026F8BE
:101370002168084AC1F30311515CC840064908605E
:101380000020FFF709FF0020C5E70000003C0240F5
:101390000838024024690008140000200448054968
:1013A00000680968044AC1F38221515CC840704753
:1013B000140000200838024034690008154810B5B0
:1013C000006810F00C02144813D01449042A0FD0FE
:1013D000082A0ED10F4C241F2268236802F03F0216
:1013E0005B0207D52068C0F38810A0FB010106E06E
:1013F000084610BD2168C1F38811A1FB000100233C
:10140000FEF7DEFE2168C1F30141491C4900B0FB33
:10141000F1F010BD083802400024F40040787D014E
:101420002DE9F84F050076D02878DFF8F8B2BE4CE9
:10143000C00749D0DBF800105846C1F381010129EB
:1014400008D00068C0F3810002280AD1201D00687E
:10145000400206D52068800336D568680028E2D0AF
:1014600032E06868B0F5803F10D0B0F5A02F20685A
:1014700010D020F480302060206820F4802020608C
:101480006868A0B1FFF70CFC06460CE0206840F449
:101490008030F4E740F480202060F7E7FFF700FC9D
:1014A000801B642873D820688003F7D50CE0FFF711
:1014B000F7FB064605E000BFFFF7F2FB801B642840
:1014C000F0D820688003F7D42878DFF8608280079E
:1014D0004FF000093ED5DBF80010584611F00C0F14
:1014E00009D00068C0F3810002280BD18D48001F8D
:1014F0000068400206D42068800715D5E8680128F6
:1015000009D111E0E868B8B10120C8F80000FFF780
:10151000C7FB064605E002E1FFF7C2FB801B02287D
:10152000C0D820688007F7D52068296920F0F80026
:1015300040EAC10020600DE0C8F80090FFF7B0FB62
:10154000064604E0FFF7ACFB801B02281FD820688A
:101550008007F7D42878000722D5724E744869694D
:101560006C3671B101210160FFF79AFB074604E078
:10157000FFF796FBC01B022809D830688007F7D513
:101580000EE0C0F80090FFF78BFB074605E083E014
:10159000FFF786FBC01B02287ED830688007F7D48F
:1015A0002878400768D5DFF87CA100270AF1380ABF
:1015B000DAF80000C0000BD4DAF8001041F08051D6
:1015C000CAF80010DAF80000012700F080500090FF
:1015D000584E3068C00510D4306840F480703060D8
:1015E000FFF75EFB009005E0FFF75AFB0099401AF9
:1015F000022851D83068C005F6D54A4EA86868362A
:1016000001280FD00528306810D020F0010030608C
:10161000306820F004003060A868B8B1FFF740FBE4
:1016200000900FE0306840F00100F4E740F0040063
:101630003060F7E7FFF734FB0099411A41F2883038
:10164000814264D830688007F4D50EE0FFF728FBAC
:10165000009007E0FFF724FB0099411A41F288301F
:10166000814254D830688007F4D42FB1DAF80010E2
:1016700021F08051CAF80010A869C0B3DBF800104F
:10168000C1F3810102294AD00228484607D0C8F890
:101690006000FFF705FB00E039E005463AE0474609
:1016A000C8F86000FFF7FCFA064604E0FFF7F8FA16
:1016B000801B02282BD820688001F7D4D5E90701C8
:1016C0000843A96A1C4A490802EB01416A6A41EAD7
:1016D0008211084395F82C1040EA01611148001F5F
:1016E000016001203866FFF7DBFA054605E014E0EB
:1016F000FFF7D6FA401B022809D820688001F7D5E9
:101700000BE000BFFFF7CCFA401B022802D90320F0
:10171000BDE8F88F20688001F4D40020F8E70120AC
:10172000F6E7000008380240003802400000474257
:10173000800E4742007000400000FFFFFEB50446E7
:1017400003200D4684F83400606C032820D0B5F5E2
:10175000805F1DD0B5F5006F05D045B1A06B40F09E
:101760000060A06309E0204601F03FFC02E0204653
:1017700001F014FCA16B0143A163A06B012658B1D9
:10178000216840F2FF50886384F834600120FEBD78
:10179000A06B40F08050E4E7211DD4E905700EC92C
:1017A0000095CDE90170206800F0A7FF84F834604F
:1017B0000020FEBDF0B5426E120E93090B70C2F30D
:1017C00083034B7002F003028A70426E120CCA70DF
:1017D000B0F86420120A0A7190F864204A71826E8F
:1017E0004FF6FF73120E03EA0212CA80826ECB8894
:1017F000C2F3074243EA1213CB8002F00F020A72CF
:10180000B0F86820C2F30722D3094B72C2F38013E9
:101810008B72C2F34013CB72C2F300130B7300261A
:101820004E73446C4FF4007701236CB1012C43D00C
:10183000026840F2FF519163816B41F080518163F6
:1018400080F834300120F0BD9207120D0A6190F843
:1018500068200C6944EA82020A61C26E0C69120EA9
:1018600044EA92140C61C2F3C2040C7502F0070240
:101870004A75C26EC2F3074254098C75C2F38204E2
:10188000CC759207520F0A76B0F86C20C2F3072489
:101890000A7E42EAD4120A760A69521C42650D7E1B
:1018A000AD1CAA4042650D7A03FA05F585656D0AFF
:1018B0006A43C0E917271CE090F868209206920A54
:1018C0000A61C26E0C69120E44EA02220A61C26EFB
:1018D0000C69C2F3074214430C61B0F86C20C2F3E8
:1018E00007240A69521C4FEA82224265C0E9167237
:1018F0000766C4F3801201F8192F4FEA84624FEA99
:1019000052624A7010F86C2F4C7844EAD2144C7032
:1019100002F07F028A7042684FEA12624FEAD214E4
:10192000CC70C2F341140C71C2F382044C714FEAC3
:1019300082724FEA12728A7142688C79C2F307424E
:1019400044EA92148C71C2F34014CC710E7202F00E
:1019500001024A728288C2F307224FEAD2148C72C3
:10196000C2F38014CC72C2F340140C73C2F300149F
:101970004C73C2F381048C7302F00302CA730079C2
:101980004FEA500008744B744FF00000F0BD426CF9
:101990000A60826C4A60C26C8A60026DCA60426DE5
:1019A0000A61826D4A61C26D8A61006EC861002061
:1019B000704770B50446B0F8500000250104206857
:1019C00001F019F818B1A16B0143A16304E00021F3
:1019D000206800F08CFE0546C5F3432070BD70B54D
:1019E000040004D094F83400002510B105E0012073
:1019F00070BD2577204600F037F8032084F83400C6
:101A0000204600F007F8A5632563012084F8340020
:101A1000002070BDFEB50025044676200095CDE976
:101A200001502B462A462946206800F066FE0D4EDE
:101A300046F8A05F206800F072FE012535600220A4
:101A4000FFF73EF8204601F058FA20B9204601F091
:101A5000E1F9002805D084F83450A16B0143A1635B
:101A60000120FEBD00802542F0B587B00446142158
:101A70006846FEF7EFFB1D492068884233D11C48B9
:101A80000024016841F400610160006800F4006016
:101A9000059017481438016841F00401016001689D
:101AA00001F004010591016841F00801016000683E
:101AB000022500F0080005904FF4F850CDE900052C
:101AC00002AA03260C2782E8D00069460948FFF7DE
:101AD00009F80420CDE9000502AA694682E8D00091
:101AE0000548FEF7FFFF07B0F0BD0000002C0140E5
:101AF0004438024000080240000C02402DE9F04F3B
:101B000087B09A4617460E460446DDF840B0FFF708
:101B1000C7F800903EB194F83400012807D0A06BBC
:101B200040F000500FE0A06B40F000600BE04FF081
:101B30000008C4F83880E06D07EB0A01814204D93F
:101B4000A06B40F00070A0637DE0032084F83400B7
:101B50002068C0F82C80606C012800D07F024FF410
:101B60000071206800F02AFE40F2FF59012530B1D3
:101B70002268C2F83890A16B0143A16361E04FF085
:101B8000FF3001904FEA4A200290902003900220FB
:101B9000CDE90408069501A9206800F092FDBAF18C
:101BA000010F06D9022020633946206800F094FE18
:101BB00004E025633946206800F0A7FE0028D7D14D
:101BC00040F22A382068416B11EA080F22D1406B9D
:101BD000000409D50027206800F0A5FD46F827007D
:101BE0007F1C082FF7D32036BBF1000F05D0FFF77D
:101BF00057F80099411A5945E4D32168C1F8389043
:101C0000A06B40F00040A06384F83450032007B07C
:101C1000BDE8F08F416BC90509D5BAF1010F06D9AE
:101C2000616C032903D000F017FF0028A0D12068C1
:101C3000416B090709D5C0F83890A06B40F0080047
:101C400028E084F834500120E1E7416B890705D58D
:101C5000C0F83890A06B40F002001BE0416B890691
:101C60001AD5C0F83890A06B40F0200012E000BFF9
:101C700000F059FD01C6BBF1000F05D0FFF710F8C9
:101C80000099411A594507D32168C1F83890A06BD3
:101C900040F00040A063D4E72068416B8902E7D49C
:101CA0002168C1F8389084F834500020AFE7000074
:101CB0002DE9F04F87B09A4616460D460446FEF7CA
:101CC000EFFF06903DB194F83400012807D0A06BD7
:101CD00040F000500DE0A06B40F0006009E00020F3
:101CE000A063E26D06EB0A01914204D9A06B40F0BB
:101CF0000070A06390E0032184F8341021688146CD
:101D0000C862606C012800D076024FF40071206830
:101D100000F054FD40F2FF58012730B12268C2F8AC
:101D20003880A16B0143A16317E0BAF1010F06D916
:101D3000202020633146206800F0A8FE05E0102036
:101D400020633146206800F0BAFE060008D0216802
:101D5000C1F83880A06B3043A06384F834705BE036
:101D60004FF0FF3000904FEA4A20019090200290FF
:101D70004846CDE90407CDF80C90B946694620687D
:101D800000F09FFC40F21A3B22E0406B40040AD571
:101D90005FF0000705EB8701206800F0D7FC7F1C8F
:101DA000082FF7D32035109830B1FEF779FF069948
:101DB000411A109881420BD32168C1F83880A06B7A
:101DC0003043A06384F83490032007B0BDE8F08F5F
:101DD0002068416B11EA0B0FD7D0416BC9050FD5B5
:101DE000BAF1010F0CD9616C032909D000F034FE5F
:101DF00030B12268C2F83880A16B0143A16309E0C9
:101E00002068416B090709D5C0F83880A06B40F005
:101E1000080014E084F834900120D6E7416B89076C
:101E200005D5C0F83880A06B40F0020007E0416B98
:101E3000C0F83880C90604D5A06B40F01000A0633C
:101E4000E8E784F834900020BFE710B5401EB0F1F9
:101E5000807F01D3012010BD4FF0E02460610F218D
:101E6000601700F01DFC0020A06107202061002009
:101E700010BD30B590F83820012A20D0012280F81A
:101E80003820022380F8393003685C6824F070043D
:101E90005C6003685C680D682C435C6003689C6848
:101EA00024F080049C6003689C6849680C439C6033
:101EB00080F83920002180F83810084630BD022013
:101EC00030BD10B5040003D094F8390010B107E01C
:101ED000012010BD002084F83800204600F00CF8E6
:101EE000022084F83900211D206801F075F90120D5
:101EF00084F83900002010BD08B50068B0F1804FAB
:101F000008D10548016841F001010160006800F056
:101F10000100009008BD00004038024070B5044642
:101F200090F83800012817D0012584F83850022095
:101F300084F839002068826822F0770222F47F4218
:101F400082600868502837D00DDC202859D005DC85
:101F500088B3102841D151E0022070BD302853D001
:101F600040283AD13FE060282ED070280BD0B0F541
:101F7000805F03D0B0F5005F2FD110E0206881684A
:101F800021F0070115E0CB68D1E90121206801F0BB
:101F900083F92168886840F0770088601DE0CB688D
:101FA000D1E90121206801F077F92068816841F4C6
:101FB0008041816011E01EE0CA684968206801F034
:101FC00033FA5021206806E0CA684968206801F0A9
:101FD0003CFA6021206801F069F984F8395000204A
:101FE00084F8380070BDCA684968206801F01CFA9E
:101FF00040212068EFE700212068ECE710212068ED
:10200000E9E720212068E6E730212068E3E70000C7
:1020100010B586B0044614216846FEF71BF9206807
:10202000B0F1804F14D10B480021026842F0010248
:102030000260006800F00100059002200090CDE9E8
:1020400001010120CDE9031069460348FEF74AFD6E
:1020500006B010BD303802400000024070B50446A2
:1020600090F838000D4601280DD0012684F838601C
:10207000022084F8390042B1042A18D0082A2AD054
:102080000C2A4DD139E0022070BD206801F016F90C
:102090002068816941F0080181612068816921F02F
:1020A00004018161206881692A69114311E0206877
:1020B00001F030F92068816941F400618161206894
:1020C000816921F480618161206881692A6941EA1E
:1020D0000221816124E0206801F04EF92068C16985
:1020E00041F00801C1612068C16921F00401C161AA
:1020F0002068C1692A69114311E0206801F06CF978
:102100002068C16941F40061C1612068C16921F49E
:102110008061C1612068C1692A6941EA0221C16107
:1021200084F83960002084F8380070BD10B50400D0
:1021300003D094F8390010B107E0012010BD002051
:1021400084F83800204600F00CF8022084F83900AA
:10215000211D206801F040F8012084F8390000209A
:1021600010BD7047FEE701684A69D24352050CD49E
:102170006FF480624A6104210164002140F8301F3D
:1021800020224273017301207047002070472DE91F
:10219000F84F0446006889460B9D0168984617462B
:1021A00041F4806101602068016841F48071016040
:1021B00000954FF0011A0022514620460A9B00F07C
:1021C000D6F8F0BB216809F0FE0008610AF1010BA6
:1021D0002B46594620460A9A00F0FAF818B1206CAE
:1021E000042812D03AE020684169806900902A46AC
:1021F00020460A9900F061F950B1206C04282DD1D5
:102200002068016841F4007101600120BDE8F88F89
:10221000FEB2B8F1010F09D02168380A08612A46D8
:1022200020460A9900F049F90028E6D120680661A5
:102230002A4620460A9900F040F90028DDD120689E
:1022400000E00BE0016841F480710160009500221C
:10225000514620460A9B00F08AF808B10320D5E7D2
:10226000216809F0FF0040F0010008612B46594643
:1022700020460A9A00F0ACF80028B0D1C6E700006A
:102280002DE9F843044600680D46DDE9089701682A
:102290009846164641F4807101604B4600224FF08B
:1022A00001112046009700F062F8E8B9216805F0B6
:1022B000FE0008613B464A461849204600F088F86F
:1022C00028B1206C04280FD10120BDE8F8832068D4
:1022D0004169806900903A464946204600F0EDF891
:1022E00020B1206C042813D00320EEE7F5B2B8F13A
:1022F000010F09D02168300A08613A464946204654
:1023000000F0DBF80028ECD1206805610020DCE754
:102310002068016841F400710160D5E70200010006
:1023200070B516460D4604461AE02046FFF71BFF1F
:1023300008B1012070BD681C12D025B1FEF7B0FCB9
:10234000801BA8420CD954F8400F40F0200044F8FC
:10235000100900202060202161732073032070BDCC
:1023600020684069C0434007DFD4002070BD2DE9DC
:10237000F0471E4690460D460446C1F30747DDF878
:10238000209012E0701C10D02EB1FEF789FCA0EB5B
:102390000900B04209D9002044F8300F20216173B0
:1023A000A07320730320BDE8F0872068012F0AD0B6
:1023B000806925EA00000004000C06D00021414598
:1023C000E0D00020EFE74069F3E70121F7E70000E4
:1023D0002DE9F0479A4691460D46044600264FF0F7
:1023E0002008C1F307472AE020684069C043400540
:1023F00012D42068016841F40071016021686FF413
:102400008060486104202064266384F83D8084F85D
:102410003C600120BDE8F087B9F1FF3F0FD0B9F172
:10242000000F05D0FEF73CFCA0EB0A01494506D998
:1024300044F8306F84F80D8026730320EAE72068A3
:10244000012F07D0D0F8180025EA00000004000C86
:10245000E0D0C9E74069F7E72DE9F0410025904653
:102460000E460446202721E04069C043C0060CD434
:1024700021686FF0100048612564256384F83D7081
:1024800084F83C500120BDE8F0812EB1FEF708FC35
:10249000A0EB0800B04209D954F8400F40F02000EA
:1024A00044F80409677025700320ECE7206841694F
:1024B000C9434906D8D40020E5E770B516460D4655
:1024C00004461AE02046FFF74EFE08B1012070BD19
:1024D000681C12D025B1FEF7E3FB801BA8420CD983
:1024E00054F8400F40F0200044F81009002020600C
:1024F000202161732073032070BD20684069C043B0
:102500000006DFD4002070BD10B504490448FEF772
:10251000B4FA0249491E087010BD000002000020F4
:102520001069000800B587B014216846FDF792FED7
:102530001A480021026842F080020260026802F03C
:1025400080020592026842F001020260026802F015
:1025500001020592026842F004020260026802F081
:1025600004020592026842F008020260026802F06A
:1025700008020592026842F00202026000680291BD
:1025800000F0020005904FF48070CDE9000169462B
:102590000348FEF7A7FA07B000BD0000303802403C
:1025A000000002400D4810B50B4901600C49416024
:1025B00000214FF480428160C0E9031241618161D2
:1025C000C1610162FEF772FB002803D0BDE8104034
:1025D000FEF752BA10BD00000054004088050020EC
:1025E000A086010006480549016000214160816024
:1025F000C16001614161816170470000002C0140B0
:10260000DC05002010B58EB00024079408940994CE
:102610000A940B941C2168460C94FDF71BFE1E487F
:102620004FF0804101605321C0E901144EF6602152
:10263000C0E90314FFF745FC08B1FEF71DFA4FF49B
:102640008050079007A91448FFF768FC08B1FEF70F
:1026500013FA1148FFF76AFD08B1FEF70DFA0B9463
:102660000BA90D480C94FFF704FC08B1FEF704FA1F
:102670006020009047F23050CDE901040422694601
:1026800005480494FFF7EAFC08B1FEF7F5F90248A3
:10269000FFF7BEFC0EB010BD60060020FEE77047DD
:1026A0000907090E002806DA00F00F0000F1E0200B
:1026B00080F8141D704700F1E02080F80014704786
:1026C00070470A6842624A688262D1E902231A436B
:1026D000D1E904310B43C16A1A4321F0F7011143D8
:1026E000C16200207047006800F00300704708B521
:1026F000084414300090006808BD70B50DF1100C4E
:1027000011439CE870002343194329434268314335
:1027100047F6FF639A430A434260002070BD0321DD
:10272000016000207047D0F8800070470A6882601E
:10273000D1E901231A43D1E903310B43C1681A439C
:102740006FF30B011143C160002070470968C0F8A6
:1027500080100020704710B586B004463720CDE9C0
:10276000001040200290002003904FF480600490FD
:1027700069462046FFF7DAFF41F2883237212046CA
:1027800000F0B6F906B010BD10B504460A4886B090
:1027900001432920CDE90010402002900020039041
:1027A0004FF48060049069462046FFF7BFFF204643
:1027B00000F054FA06B010BD0000108010B586B0CD
:1027C00004461020CDE90010402002900020039024
:1027D0004FF48060049069462046FFF7A7FF41F25E
:1027E00088321021204600F083F906B010BD10B5E4
:1027F00086B004460620CDE900104020029000205B
:1028000003904FF48060049069462046FFF78EFFE6
:1028100041F288320621204600F06AF906B010BD68
:1028200030B585B000240546009401944FF48060D3
:102830000294CDE9034069462846FFF777FF0B482D
:102840004FF4FA510068B0FBF1F041F2883148438F
:10285000401E03D24FF0004005B030BD696B090641
:10286000F6D540F2FF50A8632046F5E7140000209B
:1028700070B585B004464FF4D5700090082040260E
:10288000CDE901060025C001CDE903506946204687
:10289000FFF74CFF0F484FF4FA510068B0FBF1F01E
:1028A00041F288314843401E02D24FF000450DE00E
:1028B000616B11F0450FF6D0606B400702D5A6633F
:1028C000042503E0606B400600D5A66305B02846EA
:1028D00070BD00001400002010B586B00446122020
:1028E000CDE9001040200290002003904FF480605A
:1028F000049069462046FFF719FF41F28832122101
:10290000204600F0F5F806B010BD10B586B00446BC
:102910001120CDE9001040200290002003904FF4D8
:102920008060049069462046FFF700FF41F288323C
:102930001121204600F0DCF806B010BD10B586B0BD
:1029400004460720CDE9002040200290002003909B
:102950004FF48060049069462046FFF7E7FE41F29D
:1029600088320721204600F0C3F806B010BD10B52C
:1029700086B0044600210220CDE90010C020CDE938
:1029800002014FF48060049069462046FFF7CEFEB6
:10299000204600F03BF906B010BD10B586B00446E5
:1029A0000920CDE90010C0200290002003904FF4D0
:1029B0008060049069462046FFF7B8FE204600F08C
:1029C00025F906B010BD10B586B0044600213320AD
:1029D000CDE900104020CDE90201000104906946D4
:1029E0002046FFF7A3FE41F288323321204600F053
:1029F0007FF806B010BD10B586B004460D20CDE9B5
:102A0000001040200290002003904FF4806004905A
:102A100069462046FFF78AFE41F288320D212046A2
:102A200000F066F806B010BD30B585B00C4605461E
:102A300000210320CDE900104020CDE90201000172
:102A4000049069462846FFF771FE22460321284676
:102A500000F024F905B030BD10B586B00446002161
:102A60000C20CDE900104020CDE9020100010490C6
:102A700069462046FFF75AFE034A0C21204600F023
:102A800037F806B010BD000000E1F50510B586B0BE
:102A900004461920CDE90010402002900020039048
:102AA0004FF48060049069462046FFF73FFE41F2F4
:102AB00088321921204600F01BF806B010BD10B571
:102AC00086B004461820CDE9001040200290002076
:102AD00003904FF48060049069462046FFF726FE7D
:102AE00041F288321821204600F002F806B010BDED
:102AF000444B10B51B684FF4FA54B3FBF4F3534343
:102B00005B1E02D24FF0004010BD426B12F0450F29
:102B1000F6D0426B520703D504218163084610BDED
:102B2000426BD20702D00121816303E00269D2B275
:102B30008A4201D0012010BD40F2FF518163002183
:102B4000FFF7D5FD3049084201D1002010BD002813
:102B500002DA4FF0007010BD410001D5402010BDD9
:102B6000810001D5802010BDC10002D54FF48070D6
:102B700010BD010102D54FF4007010BD410102D516
:102B80004FF4806010BDC10102D54FF4006010BD4C
:102B9000010202D54FF4805010BD410202D54FF41E
:102BA000005010BD810202D54FF4804010BDC1021B
:102BB00002D54FF4004010BD410302D54FF4003060
:102BC00010BD810302D54FF4802010BDC10302D592
:102BD0004FF4002010BD010402D54FF4801010BD49
:102BE000410402D54FF4001010BD810402D54FF40A
:102BF000800010BD000702D54FF4000010BD4FF457
:102C0000803010BD1400002008E0FFFD12494FF491
:102C1000FA520968B1FBF2F141F288325143491E80
:102C200002D24FF000407047426B12F0450FF6D0D1
:102C3000416B490703D50421816308467047416B06
:102C4000C90703D0012181630846704740F2FF5154
:102C50008163002070470000140000200E494FF4EB
:102C6000FA520968B1FBF2F141F288325143491E30
:102C700002D24FF000407047426B12F0450FF6D081
:102C8000416B490703D5042181630846704740F230
:102C9000FF51816300207047140000201F4B10B5C6
:102CA0001B684FF4FA54B3FBF4F341F288346343E6
:102CB0005B1E02D24FF0004010BD446B14F0450F74
:102CC000F6D0436B5B0703D504218163084610BD32
:102CD000436BDB0702D00121816303E00369DBB2B0
:102CE0008B4201D0012010BD40F2FF5181630021D1
:102CF000FFF7FDFC10F4604F04D0410406D54FF4FB
:102D0000005010BD000C1080002010BD000402D542
:102D10004FF4805010BD4FF4803010BD14000020DF
:102D200010B5064C01202070FDF752FE18B920782E
:102D300020F001002070207810BD0000000000206D
:102D40002DE9F04F89B00E460446FDF7A9FF002596
:102D50008346009501952F4608212068FFF72EFD38
:102D6000002834D1B4F8500001042068FFF7F3FCC8
:102D700000282CD1401E4FF00808CDE90208302071
:102D80004FF00209CDE904090120CDE9067002A93E
:102D90002068FFF796FC2068FFF715FE002816D183
:102DA000EA4640F22A472068416B394212D1416B12
:102DB000890204D5FFF7B7FC4AF825006D1CFDF722
:102DC0006FFFA0EB0B00401CEDD14FF0004009B0AD
:102DD000BDE8F08F416B090703D5C0F838800820A3
:102DE000F5E7416B890703D5C0F838900220EEE77C
:102DF000416B890603D5202181630846E7E740F24D
:102E0000FF518163009800BA7060019800BA306089
:102E10000020DCE710B590B004460120ADF8380082
:102E20002068FFF760FC002864D0606C032842D063
:102E30002068FFF79CFD00285AD100212068FFF789
:102E400056FC606704212068FFF751FCA067082149
:102E50002068FFF74CFCE0670C212068FFF747FC77
:102E6000C4F88000606C032825D00EA92068FFF705
:102E7000DBFD00283CD1606C03281CD0BDF8380075
:102E8000206501042068FFF788FD002830D100216B
:102E90002068FFF72CFC606604212068FFF727FC00
:102EA000A06608212068FFF722FCE0660C2120685C
:102EB000FFF71DFC206704212068FFF718FC000DB8
:102EC000E06403A92046FEF775FCB4F85000002327
:102ED00002042068FFF732FD002809D104F1100038
:102EE00007C88DE8070094E80F00FFF706FC0020F4
:102EF00010B010BD4FF08060FAE72DE9F8430025CF
:102F0000044600950068FFF78BFC00281AD1206862
:102F1000FFF7AEFC4FF080784FF6FF76D8B14FF058
:102F20008057A5640098411C0091B0421AD000213E
:102F30002068FFF710FC20B900212068FFF724FC6F
:102F400010B13846BDE8F88300212068FFF7CFFBB9
:102F5000C00FE7D01FE00127A7640098411C009133
:102F6000B04201D14046EDE700212068FFF7F3FBB6
:102F70000028E7D14FF080412068FFF705FC0028CA
:102F8000E0D100212068FFF7B2FBC10FE5D040007F
:102F900001D5676400E065640020D3E71CB50446F2
:102FA00000200090019000212068FFF7A0FB800125
:102FB00002D54FF400601CBD69462046FFF7C0FEF5
:102FC0000028F8D10198C0030CD5B4F850000104D2
:102FD0002068FFF7C0FB0028EDD100212068FFF733
:102FE00006FC1CBD4FF080601CBD1CB504460020D3
:102FF0000090019000212068FFF779FB800102D545
:103000004FF400601CBD69462046FFF799FE00287A
:10301000F8D1019840030CD5B4F8500001042068A1
:10302000FFF799FB0028EDD102212068FFF7DFFBB5
:103030001CBD4FF080601CBD70B5064C05460120DC
:103040002070FDF7D1FC18B92846FFF769FE207003
:10305000207870BD0000002010B5124888B01446DA
:103060000078C00702D0032008B010BDC1B101290B
:1030700005D0022908D003290CD00420F4E76846C3
:10308000FDF7A0FC06980AE06846FDF79BFC079850
:10309000208005E06846FDF795FC0798400A20600F
:1030A0000020E1E70000002070B51D4616460846E6
:1030B0000124A31E2A463146FDF7BCFC28B900BFF7
:1030C000FDF786FC0028FBD10024204670BDFFF7E9
:1030D00027BE000070B51D46164608460124A31EF3
:1030E0002A463146FDF7B6FC28B900BFFDF770FC53
:1030F0000028FBD10024204670BD7047FEF72AB897
:1031000030B593B030216846FDF7A4F814210CA81F
:10311000FDF7A0F819480025016841F080510160D1
:10312000006800F0805011901548016841F480411A
:1031300001600068022400F4804011900120039097
:1031400010200490009406940820CDE90750A82090
:10315000CDE9090407200B906846FEF761F90CA938
:103160000F2081E831004FF4A0500F90E002109042
:1031700005210CA8FEF77AF813B030BD40380240A4
:10318000007000401048016841F4700101600F4870
:10319000016841F0010101600C4A00210832116010
:1031A00002680B4B1A400260031D0A4A1A6002684B
:1031B00022F48022026005480C3001600249580662
:1031C000803908607047000088ED00E00038024058
:1031D000FFFFF6FE10300024F0B50268234B244DAB
:1031E000244E254F254C4FF0804C984209D0604525
:1031F00007D0A84205D0B04203D0B84201D0A042C7
:1032000004D122F0700E4A6842EA0E0298421BD0A6
:10321000604519D0A84217D0B04215D0B84213D09B
:10322000A04211D0164DA8420ED0164DA8420BD088
:10323000154DA84208D0154DA84205D0144DA842FE
:1032400002D0144DA84203D122F44075CA682A4323
:1032500002608A68C2620A688262984201D0A04213
:1032600001D10969016301214161F0BD0000014004
:103270000004004000080040000C00400004014031
:103280000040014000440140004801400018004057
:10329000001C00400020004010B5846842EA032270
:1032A00024F47F440A432243826010BD826822F0E6
:1032B00070020A4342F007018160704730B5026A2C
:1032C00022F001020262026A436884690D6824F0F8
:1032D0007304254322F002048A6822430B4CA04267
:1032E00002D00B4CA0420BD122F00804CA6823F490
:1032F000407322434C6922F004021C438B69234330
:103300004360856149684163026230BD000001404D
:103310000004014030B5026A22F010020262026A23
:10332000436884690D6824F4E64444EA05248D6802
:1033300022F0200242EA05120D4DA84202D00D4DA6
:10334000A8420ED1CD6822F0800242EA05124D69F2
:1033500023F4406343EA85038D6922F0400243EA87
:1033600085034360846149688163026230BD000067
:10337000000001400004014030B5026A22F480726E
:103380000262036A4268C46923F4007324F073057F
:103390000C682C438D6843EA05230D4DA84202D0EA
:1033A0000C4DA8420ED1CD6823F4006343EA0523F7
:1033B0004D6922F4405242EA05128D6923F480637C
:1033C00042EA05124260C4614968C163036230BDCC
:1033D000000001400004014030B5026A22F480522E
:1033E0000262046A4268C3690D6823F4E64343EA53
:1033F00005238D6824F4005444EA0534084DA8429E
:1034000002D0084DA84204D14D6922F4804242EA1C
:1034100085124260C36149680164046230BD0000E6
:10342000000001400004014010B5036A046A24F062
:1034300001040462846924F0F00444EA021423F0D5
:103440000A020A438461026210BD10B5036A23F0C8
:10345000100303628369046A23F4704343EA02326F
:1034600024F0A00343EA01118261016210BDFEE76E
:103470000FB4084B10B504A902AA039800F0F4FF9A
:10348000044602A9002001F086FB204610BC5DF82E
:1034900014FB0000974B000803B40198410000980A
:1034A00050EAC12018BF04204A0D18BF40F00100A7
:1034B00040F2FF72B2EB515F08BF40F002000128FA
:1034C00008BF052002B070472DE9F04D2DED040B2B
:1034D0002DED0E8B96B0DDE92550279CDDF890A0F0
:1034E00025F0004624F00048BAF1000F14BF012176
:1034F000002101EB4502FC4953184A1093422AD39C
:10350000002814BF0123002303EB44030B44F749B5
:103510008B4220D358EA00019FEDF59B76D0DFF86F
:10352000D8B35D4503D1BAF1000F05D188E0BAF1F7
:10353000000F08BF002100D0012101EB450111F56A
:10354000001F08D8002814BF0121002101EB44010D
:1035500011F5001F0BD99DED261B9DED240B16B018
:10356000BDEC0E8B04B0BDE8F04D00F069BE002745
:10357000002DBCBFE149884521DAE1498845A8BF53
:1035800002271CDAC3451ADCDE4901EB2851142955
:1035900008DDC1F1340220FA02F101FA02F282429E
:1035A0000DD108E058B9C1F1140228FA02F101FA6C
:1035B00002F2424503D101F00101C1F1020756EACE
:1035C0000A0124D1002C22DA002D18BF022F01D0CD
:1035D000012F0AD0022000F07FFE16B0BDEC0E8B4A
:1035E00004B0BDE8F04D00F013BE022000F074FE00
:1035F00000F00EFE51EC100B81F0004141EC100B7D
:1036000016B0BDEC0E8B04B0BDE8F08D18E09FED58
:10361000BEAB9FEDBF8B002871D1B848804522D149
:1036200005F1804010F5801008BFBAF1000F07D0F7
:10363000B3450ADC002CA8BF9DED260BE0DA0DE0B7
:10364000B0EE490AF0EE690ADAE7002C06DA9DEDE1
:10365000260B51EC100B81F000416FE0AE4878442E
:1036600090ED000BCCE7D8454DD1002C48DA2EB1B7
:1036700086423AD1BAF1000F42D126E0BAF1000FEA
:1036800013D0022000F028FE00F0F6FD8DED020BB5
:103690009DED240B8DED000B10EE900A039961F364
:1036A0001E0003909DED020BAAE78DED02AB9DED90
:1036B000240B1AEE901A10EE900A8DED000B61F3B8
:1036C0001E0003909DED020B9AE78DED028B9DEDA0
:1036D000240B18EE901A10EE900A8DED000B61F39A
:1036E0001E0003909DED020B8AE709DA9DED240B85
:1036F00051EC190B53EC102BFCF7DEFE1EE020E022
:103700009DED240B7CE786421BDAB4F1804F0DD08F
:10371000A4F10050B0F1FF5013D1002D11DB9DED4D
:10372000240B51EC100B03F008F807E09DED240B7F
:1037300053EC102B51EC100B00F0C2BC41EC100B01
:103740005EE79DED240B51EC100B02F0F1FABAF19B
:10375000000FCDE90E0142D19FED710B46B3A6F1EA
:10376000E040B0F17F600CD05E4538D1002D00DA2A
:10377000A7B3022F0CBF01204FF0FF30FCF70BFF67
:10378000DCE7002D01DD002C0DDA002D01DD002C21
:103790001FDB002D16DA002C14DB012F08BF9FED74
:1037A000620B3FF42DAFB0EE4A0AF0EE6A0A27E74B
:1037B000022F18BF002D0CD0012F0AD1002DFFF6CB
:1037C0001FAF06E0002DB8BF002C08DA012F3FF430
:1037D00017AFB0EE480AF0EE680A11E71BE00120CF
:1037E00000EBE57050EA070115D0791EB0EE498A6A
:1037F000F0EE698A084308BF9FED4D8B4E480025C7
:10380000804570DD4D494E48884514DDB0420DDBE2
:10381000002C19DB2FE0012000F05EFD16B0BDEC9E
:103820000E8B04B0BDE8F04D00F016BDB34502DCD0
:10383000002C09DC1FE0864202DA002C1BDA03E0D0
:103840005E452BDD002C16DD022000F045FD00F06A
:1038500013FD8DED020B53EC1A2B51EC180BFCF7FA
:10386000B9FDCDE900010399019861F31E000390B1
:103870009DED020BC4E6022000F02EFD00F00CFDD1
:1038800010EE901A18EE900A8DED020B8DED008B64
:1038900061F31E0003909DED020BB1E69DED0E0B52
:1038A00053EC192B51EC100BFCF78EFD9FED260B02
:1038B000CDE9080153EC102B9DED080B51EC100BDA
:1038C000FCF788FD9FED221B53EC112BFCF77FFDCD
:1038D0009DED081B53EC112BFCF77CFD9FED1E1B8F
:1038E00053EC112B3CE08CE0FFFF1F00FFFF0F00AB
:1038F000000000000000F03F0000F03F0000F07FFB
:103900000000404301FCFFFF000000000000F07FCA
:103910000000000000000000FE3300000000000076
:103920000000000000000080000000000000F0FF28
:10393000000000000000F0BF0000E0410000F04384
:10394000FFFFEF3F00000000000000000000D03F3C
:10395000555555555555D53F000000000000E03F36
:10396000FCF735FD9DED080B41EC1A0B53EC102BC9
:1039700051EC100BFCF72EFD53EC1A2BFCF72AFD33
:1039800041EC1A0B9FEDFE0B53EC102B9DED080B39
:1039900051EC100BFCF71EFD41EC1B0B9FEDFA0BDD
:1039A00051EC1A0B53EC102BFCF714FD41EC1A0BE5
:1039B0009FEDF70B53EC102B9DED080B51EC100B0A
:1039C000FCF708FD53EC1A2BFCF7FEFC41EC1A0B3C
:1039D00051EC1B0B53EC1A2BFCF755FC0690CDE970
:1039E00006519DED060B53EC1B2B51EC100BFCF715
:1039F000EBFC53EC1A2BFCF7EAFC41EC100B00F04B
:103A0000A1B90020B6F5801F0EDA9FEDE30B53EC51
:103A1000102B9DED0E0B51EC100BFCF7DBFCCDE9F0
:103A20000E016FF034000E4600EB2650A0F2FF3777
:103A3000C6F31300DA4940F07F6646F040568842EC
:103A4000D8BF002408DDD7498142C8BF012403DC68
:103A50000024A6F580167F1CD348784400EBC400F0
:103A60000F9690ED00CB9DED0E0B53EC1C2B51EC03
:103A7000100BFCF7A9FC9DED0E0B41EC1B0B53EC5E
:103A80001C2B51EC100BFCF7FEFB41EC100B51EC26
:103A9000190B53EC102BFCF70FFD41EC1D0B51ECF7
:103AA0001B0B53EC1D2BFCF795FC41EC1A0BBF488C
:103AB0008DED10AB7844109590ED000B4FF0005059
:103AC00040EA660000EB84408DED080B00F5002015
:103AD00009909DED080B53EC1C2B51EC100BFCF7DF
:103AE00073FC9DED0E1B53EC112BFCF770FC41ECAD
:103AF000100B53EC102B9DED100B51EC100BFCF741
:103B000069FC9DED080B41EC1C0B53EC102B9DED5B
:103B1000100B51EC100BFCF75DFC53EC1B2BFCF76E
:103B200056FC53EC1C2BFCF74FFC53EC1D2BFCF705
:103B300051FC41EC1C0B53EC1A2B51EC1A0BFCF70B
:103B400049FC41EC1B0B9A480621B0EE4B0AF0EE03
:103B50006B0A784400F0E0FAB0EE401AF0EE601A1A
:103B6000B0EE41DAF0EE61DA53EC1B2B51EC1B0B9B
:103B7000FCF730FC53EC1D2BFCF72CFC9DED100BDF
:103B800041EC1B0B53EC1A2B51EC100BFCF77BFB9D
:103B900053EC1C2BFCF71EFC53EC1B2BFCF773FBAC
:103BA0009DED100B41EC1B0B53EC102B51EC100B4B
:103BB000FCF710FC41EC1D0B9FED7FEB53EC1E2B33
:103BC000FCF761FB53EC1B2BFCF75DFB0890CDE988
:103BD00008519DED080B53EC1E2B51EC100BFCF71C
:103BE000F3FB53EC1D2BFCF7EFFB53EC1B2BFCF70B
:103BF000EEFB9DED080B41EC1D0B53EC102B9DEDE6
:103C0000100B51EC100BFCF7E5FB41EC1B0B53ECDC
:103C10001A2B51EC1D0BFCF7DDFB9DED080B41EC65
:103C20001A0B53EC102B51EC1C0BFCF7D3FB53EC91
:103C30001A2BFCF728FB41EC1A0B51EC1B0B53EC35
:103C40001A2BFCF720FB0C90CDE90C519DED0C0BD1
:103C500053EC1B2B51EC100BFCF7B6FB53EC1A2B5F
:103C6000FCF7B5FB41EC1B0B9FED550B53EC102BF8
:103C70009DED0C0B51EC100BFCF7ACFB41EC1A0B5F
:103C80009FED510B51EC1B0B53EC102BFCF7A2FBDF
:103C900041EC1B0B9FED4E0B53EC102B9DED0C0BD1
:103CA00051EC100BFCF796FB53EC1B2BFCF7EBFADB
:103CB00041EC100B4848784400EBC40090ED001B29
:103CC00051EC100B53EC112BFCF7DDFA41EC1B0B04
:103CD0003846FCF760FCCDE9080153EC1B2B51EC96
:103CE0001A0BFCF7D0FA41EC100B3C48784400EB7F
:103CF000C40090ED00CB51EC100B53EC1C2BFCF7E7
:103D0000C2FA9DED081B53EC112BFCF7BCFA069090
:103D1000CDE906519DED080B53EC102B9DED060BE4
:103D200051EC100BFCF750FB53EC1C2BFCF74CFB3D
:103D300053EC1A2BFCF748FB53EC1B2BFCF747FB0F
:103D400041EC100B9DED261B53EC102B8DED001B51
:103D500000959DED260B51EC100BFCF73BFB9DED08
:103D6000000B41EC1A0B53EC102B9DED260B51EC84
:103D7000100BFCF729FB9DED061B53EC112B2FE0DC
:103D8000000000604715F73FFE822B654715F73F9F
:103D900044DF5DF80BAE543E0000000000004043DD
:103DA0008E9803007AB60B007A2F0000A82F00002F
:103DB000B22E0000000000000000000000000840DB
:103DC000000000E009C7EE3FFD033ADC09C7EE3F03
:103DD000F5015B14E02F3EBE3E2D0000F82C0000E4
:103DE000FCF7F8FA53EC1A2BFCF74DFA9DED060B95
:103DF00041EC1A0B53EC102B9DED000B51EC100B0A
:103E0000FCF7E8FACDE90C019DED0C0B51EC1A0B17
:103E100053EC102BFCF737FACDE902010C46AA4906
:103E20008C422FDB611A084318D19DED0C0B53EC2B
:103E3000102B9DED020B51EC100BFCF7C5FA41EC79
:103E40001B0B9FEDA30B51EC1A0B53EC102BFCF743
:103E50001AFA53EC1B2BFCF72DFD2DD2022000F09B
:103E60003BFA00F009FA10EE901A18EE900A8DED68
:103E7000020B8DED008B61F31E0003909DED020B94
:103E8000FFF7BEBB944A24F00041914214D39349FA
:103E9000214408437FF4EFAC9DED0C0B53EC102B49
:103EA0009DED020B51EC100BFCF78EFA53EC1A2B24
:103EB000FCF700FD7FF6DFAC24F000408849894A1A
:103EC000002601EB205182422BDA481C4FF480116E
:103ED00021FA00F02044844AC0F30A517A44A1F246
:103EE000FF3192ED000B814A8DED080BCA4020EAAC
:103EF0000202C0F3130040F48010C1F1140120FA53
:103F000001F60992002CB8BF76429DED080B53ECE8
:103F1000102B9DED0C0B51EC100BFCF755FACDE975
:103F20000C019DED0C0B51EC1A0B53EC102BFCF714
:103F3000AAF99FED6F0B0890CDE9085153EC102BB7
:103F40009DED080B51EC100BFCF744FA41EC1B0BF8
:103F50009FED690B53EC102B9DED080B51EC100BF2
:103F6000FCF738FA9DED0C0B41EC1C0B53EC102BBD
:103F70009DED080B51EC100BFCF726FA53EC1A2BB5
:103F8000FCF725FA9FED5E1B53EC112BFCF722FA90
:103F900053EC1C2BFCF777F941EC1A0B51EC1B0B83
:103FA00053EC1A2BFCF76FF9CDE902019DED020BE2
:103FB00053EC1B2B51EC100BFCF706FA53EC1A2BAD
:103FC000FCF705FA9DED020B41EC1A0B53EC102B9C
:103FD00051EC100BFCF7FEF9CDE908014A489DEDC4
:103FE000080B0521784400F097F89DED081B51EC73
:103FF000100B53EC112BFCF7EDF99DED021B53EC6C
:10400000112BFCF7E4F9CDE906019DED020B53EC11
:104010001A2B51EC100BFCF7DDF953EC1A2BFCF7C3
:1040200032F99FED3B0B41EC1A0B53EC102B9DED3D
:10403000060B51EC100BFCF7C7F99DED060B41EC9C
:104040001B0B53EC102B9DED020B51EC100BFCF7EE
:10405000C1F953EC1B2BFCF72FFA53EC1A2BFCF78E
:10406000B3F99DED021B53EC112BFCF7ADF953ECAA
:10407000192BFCF7ACF9CDE9020101EB0650011553
:104080000029C8BF039015DC9DED020B324651ECB0
:10409000100BFCF7E0FBFFF7FFF9042808BF00F066
:1040A000FBF832469DED020B51EC100BFCF7D3FBF5
:1040B000CDE902019DED020B51EC180B53EC102BD6
:1040C000FCF788F9FFF73ABB0000904000000000C1
:1040D000FE822B654715973C00CC904000346F3F23
:1040E00001FCFFFF0000E03F802B0000FFFF0F00FE
:1040F00000000000432EE63F396CA80C615C20BE36
:10410000EF39FAFE422EE63F502A00000000000080
:10411000000000000000004070B504462DED028B49
:104120004D1E00EBC500B0EE408AF0EE608A90EDC7
:10413000000B35F0060017D053EC182B51EC100B88
:10414000FCF748F941EC100B6D1E04EBC50090ED37
:10415000001B51EC100B53EC112BFCF794F841ECC5
:10416000100B35F00600E7D1022D36D0042D1CD0FF
:10417000062D1CBFBDEC028B70BD53EC182B51EC0F
:10418000100BFCF727F994ED0A1B53EC112BFCF7ED
:104190007AF853EC182BFCF71DF994ED081B53EC3F
:1041A000112BFCF770F841EC100B53EC182B51EC71
:1041B000100BFCF70FF994ED061B53EC112BFCF7D9
:1041C00062F853EC182BFCF705F994ED040B53EC53
:1041D000102BFCF758F841EC100B53EC182B51EC5A
:1041E000100BFCF7F7F894ED021B53EC112BFCF7C6
:1041F0004AF853EC182BFCF7EDF894ED001B53EC48
:10420000112BFCF740F8BDEC028B41EC100B70BD9C
:104210009FED070B10B553EC102B9FED070B51ECE6
:10422000100BFCF749F941EC100B10BD0000000029
:104230000000000000000000000000000000F03F4F
:1042400010B553EC112B51EC100BFCF71CF841ECA2
:10425000100B10BD000000009FED050B10B553ECD6
:10426000102B51EC100BFCF727F941EC100B10BD93
:1042700000000000000000009FED050B10B553EC9E
:10428000102B51EC100BFCF7A5F841EC100B10BDF6
:1042900000000000000000709FED050B10B553EC0E
:1042A000102B51EC100BFCF795F841EC100B10BDE6
:1042B000000000000000001002E008C8121F08C142
:1042C000002AFAD170477047002001E001C1121F97
:1042D000002AFBD1704700000149086070470000C8
:1042E000280000202DE9FF5F82B00021DDE90430C5
:1042F000020DDDF840B0034318D044F61050A2F28E
:10430000FF3242431514119801281FD0A5EB0B0072
:10431000401C5FEA000A4FF000064E4FDFF838916C
:10432000B046504615D5CAF1000413E01198012497
:104330004AA3012801D16FEA0B010298119AC0E942
:104340000031C0E9024206B0BDE8F09FCBF10000A9
:10435000DFE704460021404A491842EB0450CDE90A
:10436000001012E0E00707D032463B46404649467F
:10437000FCF730F88046894632463B4610461946DF
:10438000FCF728F806460F466410002CEAD1DDE958
:104390000401DDE90023BAF1000F06DAFCF71AF890
:1043A00042464B46FCF716F805E0FCF785F8424616
:1043B0004B46FCF781F804460E460022284BFCF7DA
:1043C00079FA03D84FF0FF30014607E00022254B71
:1043D00020463146FBF757FFFCF754FA102409E05A
:1043E000002C0ADB0A220023FBF7EAFE039B303293
:1043F0001A55641E50EA0102F2D1641C039AC4F1FA
:1044000011031444119A012A03D0012208430DD14B
:104410000AE0084304D000204FF0110B119072E71E
:10442000A3EB0B056D1E0DE05B4504DD4FF00002B4
:1044300005F1010504E003DA4FF00002A5F10105E2
:10444000002AECD002981199C0E90231C0E9004578
:1044500079E70000000014400000F03F3000000049
:104460000000F0430000E03F2DE9FF4F95B09B4670
:104470008946064600250FE2252877D100242746E5
:10448000F84A0121059400E0044316F8013F203B5F
:1044900001FA03F01042F7D130782A2811D06FF0DA
:1044A0002F033078A0F13002092A16D8059A44F07B
:1044B000020402EB820203EB42021044761C0590D8
:1044C000EFE759F8042B0592002A03DA504244F42E
:1044D0000054059044F00204761C30782E2816D142
:1044E00016F8010F44F004042A280DD06FF02F02B3
:1044F0003078A0F13003092B09D807EB870302EBD2
:104500004303C718761CF3E759F8047B761C307810
:104510006C280FD006DC4C2817D068280DD06A28EC
:1045200014D104E0742810D07A280FD10DE044F49F
:1045300000140AE044F4801401E044F4401472785A
:10454000824202D104F58014761C761C30786628ED
:104550000BD013DC582877D009DC002875D045280B
:10456000F6D04628F4D047281AD19DE118E06328F8
:1045700035D0642879D0652812D195E1702873D0A0
:1045800008DC6728F1D069286FD06E280DD06F281D
:1045900006D1B5E073282CD0752875D0782874D052
:1045A0005A46179990476D1C75E1C4F302500228D2
:1045B00009D003280DD0D9F8001004280DD00D60C3
:1045C00009F1040967E1D9F80010EA17C1E90052BE
:1045D000F6E7D9F800100D80F2E70D70F0E719F852
:1045E000041B8DF8001000208DF80100EA46012020
:1045F00003E059F804AB4FF0FF3061074FF00001C2
:1046000002D40DE008F101018846B9420FDA804575
:10461000F8DB1AF808100029F4D108E008F10101CC
:1046200088468142FADB1AF808100029F6D105986D
:104630005B46A0EB080721463846179A00F094FA2B
:10464000284400EB080507E04DE029E10DE01AF8E9
:10465000010B5A4617999047B8F10108F7D25B460B
:1046600021463846179A13E142E00A220092C4F329
:1046700002524FF0000A022A08D059F804CB032A4C
:104680004FEAEC710AD00DE029E02AE009F10701B8
:1046900021F00702F2E802C1914609E00FFA8CFC12
:1046A0004FEAEC71042A03D14FFA8CFC4FEAEC710B
:1046B000002907DA0A460021DCF1000C61EB020157
:1046C0002D2202E0220504D52B228DF804200122A0
:1046D00003E0E20701D02022F7E7904659E00A21E3
:1046E00002E010220DE010214FF0000A00910BE0D3
:1046F00010224FF0000A44F004040827009203E05F
:1047000008224FF0000A0092C4F30252022A05D098
:1047100059F804CB0021032A08D009E009F1070168
:1047200021F00702F2E802C1914605E01FFA8CFC75
:10473000042A01D10CF0FF0C4FF00008220728D505
:10474000702806D0009B83F0100353EA0A0305D0BB
:104750000EE040228DF80420012208E05CEA01020C
:1047600006D030228DF804208DF8050002229046F4
:10477000009B83F0080353EA0A030AD15CEA0102B2
:1047800001D1620705D530228DF804204FF00108D1
:104790007F1E582804D034A003900EA802900DE08C
:1047A00036A0F9E753466046009AFBF709FD8446B8
:1047B0000398825C0298401E029002705CEA01003D
:1047C000F0D1029806A9081A00F1200A600702D564
:1047D00024F4803400E00127574502DDA7EB0A00EE
:1047E00000E0002000EB0A01009005984144401AC7
:1047F0000590E00306D45B462146179A059800F021
:10480000B3F90544002706E001A85A46C05D179990
:1048100090476D1C7F1C4745F6DBE0030CD55B46DB
:104820002146179A059800F09FF9054404E03020CE
:104830005A46179990476D1C0099481E0090002910
:10484000F5DC08E0029802995A460078491C02916A
:10485000179990476D1CBAF10001AAF1010AF1DC29
:1048600065E1000009280100303132333435363734
:1048700038396162636465660000000030313233AC
:10488000343536373839414243444546000000004C
:1048900000F058F90544761C307800287FF4ECAD20
:1048A00019B02846BDE8F08F620700D4062709F149
:1048B000070222F0070CFCE80223E14603F000485F
:1048C0005FEA080C02D00FF2702C0DE05FEA045C86
:1048D00002D50FF2682C07E05FEAC47C02D00FF229
:1048E000602C01E0AFF2700C4FF0FF3823F0004372
:1048F000CDF850C065280CD006DC452809D04628E4
:104900001DD047283DD13DE0662818D067287ED1CC
:1049100038E00021112F01DB112000E0781CCDE9E7
:10492000000106A90EA8FFF7DDFCDDE90F010E9AD4
:1049300003910021009207F1010A04914DE04FF02C
:1049400000400097CDE9011006A90EA8FFF7CAFCA8
:10495000DDE90F0203920E9B11990022DDF80CA0F5
:104960000093049211B9791C00EB010AB7EB0A001D
:1049700004D4C0F1FF3007F1010A0490AAEB07004C
:10498000019044E0012F00DA01270021112F01DD01
:10499000112000E03846CDE9000106A90EA8FFF776
:1049A000A1FCDDE90F010E9A039100210491009210
:1049B000BA4621070CD40399514500DA8A46BAF168
:1049C000010F05DD009AAAF10101515C302908D0E0
:1049D000B84202DA10F1040F06DA0121CDE9011024
:1049E00015E0AAF10101E9E7002805DC049901447A
:1049F0000491AAEB000102E0411C514500DD8A460A
:104A00000499401A401C01904FF00040029020078A
:104A100004D40198504501DBCDF8048000208DF8C6
:104A20004F0002980DF14F07B0F1004F25D02B2019
:104A30000E9002984FF0020800280CDA40420290D3
:104A40002D200E9007E00A210298FBF729FE303155
:104A5000029007F8011DB8F10001A8F10108F2DC8D
:104A600002980028EFD1791E0E980870307800F077
:104A7000200040F0450007F8020D12A8C01B00F10D
:104A800007081498007800B1012000EB0A01019892
:104A900001EBE07105984144401A401E0590E00387
:104AA00006D45B462146179A059800F05DF8054448
:104AB0001498007818B15A46179990476D1CE00376
:104AC00024D55B462146179A059800F04DF8054419
:104AD0001CE00498002807DBDDE90301884203DDC0
:104AE0000098405C179901E0179930205A4690478A
:104AF000049805F10105401C04900198401E0190A6
:104B000004D12E205A46179990476D1CBAF1000126
:104B1000AAF1010ADDDC05E017F8010B5A461799E6
:104B200090476D1CB8F10001A8F10108F4DC5B4668
:104B30002146179A0598ABE62D0000002B000000D7
:104B4000200000002DE9F041044600251E461746CE
:104B5000880404D405E039462020B0476D1C641E4B
:104B6000F9D52846BDE8F0812DE9F041044600253D
:104B70001E469046C80301D5302700E02027880450
:104B800004D505E041463846B0476D1C641EF9D592
:104B90002846BDE8F0810A68531C0B60107070470E
:104BA000F0B500234C1E13E00022CE1A761E0CE056
:104BB00000EB820C50F82250DCF80470BD4203DD9B
:104BC00040F82270CCF80450521C9642F0D85B1C7E
:104BD000A342E9D3F0BD000010B50446D4E91E019C
:104BE000401AFBF7D8FC9FED0B1B53EC112BFBF786
:104BF000F1FB9FED0A1B53EC112BFBF7EBFBFBF7D3
:104C000033FD00EE100A0020B1EE400A84ED220AC6
:104C100010BD00007B14AE47E17A843F5C8FC2F583
:104C200028DC2040F0B504462DED0E8B83B0AE227B
:104C3000F42101F05FFE0E20FBF742FFF621204633
:104C400001F0E1FCE066B422F421204601F052FEBE
:104C50000E20FBF735FF6A46F621204601F0E3FC03
:104C600001AAF721204601F0DEFC02AAF821204625
:104C700001F0D9FC9DF800009DF80410000400EB41
:104C8000012080099FEDFECBB0EE4C1AF0EE6C1ABD
:104C90009FEDFD8B20675834B0EE480AF0EE680AAD
:104CA000FEF712FCB0EE401AF0EE601AB0EE419A38
:104CB000F0EE619A208AFBF77FFC53EC192BFBF78F
:104CC000FBFB41EC190B618A6069401AFBF763FC3E
:104CD00053EC192BFBF77EFBFBF77BFC0546B4F985
:104CE0000C002844FBF757FC41EC190B9FEDE8DB67
:104CF000B0EE480AF0EE680AB0EE4D1AF0EE6D1A0A
:104D0000FEF7E2FBB0EE401AF0EE601AB0EE41AAF8
:104D1000F0EE61AAB4F90A00FBF73DFC53EC1A2B44
:104D2000FBF758FB53EC192BFBF7C6FBFBF751FCC9
:104D300005449FEDD9BBB0EE480AF0EE680AB0EE2C
:104D40004B1AF0EE6B1AFEF7BFFBB0EE409AF0EE96
:104D5000609A05F10800FBF71EFC53EC192BFBF7DA
:104D6000ABFBFBF736FCE061FBF715FC9FEDCC1BC2
:104D700053EC112BFBF72EFBFBF776FCB0EE4D1A34
:104D8000F0EE6D1AB0EE480AF0EE680AA5F57A6505
:104D9000E062FEF799FBB0EE40AAF0EE60AA9FED4C
:104DA000C2EBB0EE480AF0EE680AB0EE4E1AF0EE32
:104DB0006E1AFEF789FB05FB05F6B0EE409AF0EEA1
:104DC000609A3046FBF7E7FB53EC192BFBF774FBBB
:104DD00041EC190BB4F90600FBF7DDFB53EC192B82
:104DE000FBF7F8FA53EC1A2BFBF766FBFBF7F1FB2A
:104DF0000746B0EE4D1AF0EE6D1AB0EE480AF0EE2E
:104E0000680AFEF761FBB4F90000B0EE409AF0EEDC
:104E1000609A6843FBF7BFFB53EC192BFBF74CFB85
:104E2000FBF7D7FB34F9021C384400EB810080000B
:104E3000C11700EB917087109FED9D1BB0EE480AE3
:104E4000F0EE680AFEF740FBB4F90200B0EE409ABB
:104E5000F0EE609A6843FBF79EFB53EC192BFBF7CF
:104E60002BFBFBF7B6FB05469FED93DBB0EE480A44
:104E7000F0EE680AB0EE4D1AF0EE6D1AFEF724FB64
:104E8000B0EE409AF0EE609AB0EE4E1AF0EE6E1A66
:104E9000B0EE480AF0EE680AFEF716FBB0EE40AA44
:104EA000F0EE60AA3046FBF776FB53EC1A2BFBF7CB
:104EB00003FB41EC1A0BB4F90400FBF76CFB53EC59
:104EC0001A2BFBF787FA53EC192BFBF7F5FAFBF7D4
:104ED00080FB0646B0EE481AF0EE681AB0EE480ABB
:104EE000F0EE680AFEF7F0FAA819B0EE409AF0EE7C
:104EF000609A80F00200FBF74EFB53EC192BFBF796
:104F0000DBFAFBF766FB0546B0EE4C1AF0EE6C1AC6
:104F1000B0EE480AF0EE680AFEF7D6FAE08905F529
:104F20000045B0EE409AF0EE609A6843FBF744FB10
:104F300053EC192BFBF7C0FAFBF76AFB0146A0699B
:104F400043F2D402C01B5043583CB0F1004F03D28F
:104F500090FBF1F04000A0679FED59ABB0EE480A1E
:104F6000F0EE680AB0EE4A1AF0EE6A1AFEF7ACFAF2
:104F7000B0EE409AF0EE609AA06FFBF70CFB53EC9A
:104F8000192BFBF799FA41EC190BB0EE4A1AF0EE27
:104F90006A1AB0EE480AF0EE680AFEF795FAB0EE2B
:104FA00040AAF0EE60AAA06FFBF7F5FA53EC1A2BBB
:104FB000FBF782FA53EC192BFBF70CFAFBF709FB12
:104FC0000546B0EE4D1AF0EE6D1AB0EE480AF0EE5E
:104FD000680AFEF779FA40F6DE30B0EE409AF0EE5D
:104FE000609A6843FBF7D7FA53EC192BFBF764FA86
:104FF000FBF7EFFA0546B0EE4D1AF0EE6D1AB0EE83
:10500000480AF0EE680AFEF75FFA2F49A06FB0EE8B
:10501000409AF0EE609A4843FBF7BDFA53EC192B27
:10502000FBF74AFAFBF7D5FA0646B0EE4B1AF0EE5C
:105030006B1AB0EE480AF0EE680AFEF745FAA819B6
:10504000B0EE408AF0EE608A00F6CF60FBF7A3FA7C
:1050500053EC182BFBF730FA41EC180BA06FFBF761
:105060009AFA53EC182BFBF70EF9FBF7B2FAA0678C
:10507000FBF791FA9FED151B53EC112B2AE0000072
:105080000000000000002E40000000000000004072
:10509000000000000000264000000000000010405A
:1050A0009A9999999999B93F000000000000284009
:1050B0000000000000002A40000000000000304016
:1050C000000000000000204043E3FFFF7B14AE47D8
:1050D000E17A843FFBF77EF9FBF7C6FAC4F880005B
:1050E00003B00020BDEC0E8BF0BD70B5064601F09C
:1050F000A6FA64210420FBF7B8F8054600243046E0
:10510000FFF790FDB06F45F82400641CE4B2642CF6
:10511000F5D364212846FFF743FDD5F8C800F067B2
:105120002846BDE8704000F073BF000010B504468B
:105130000020E070401EE062204601F09EF908B1B8
:10514000042010BD04F22E2001F0D6F8A0F52A416B
:10515000553901D0032010BD94F83000E92805D05E
:10516000EB2814D194F83200902810D104F1660095
:1051700001F0B7F80749B1EB002F06D004F1820027
:1051800001F0AFF80449884201D1002010BD02208F
:1051900010BD00000046415446415433F0B5002292
:1051A000144D134605EB021426685EB10768BE4233
:1051B00009D166688768BE4205D1A4684669B442D1
:1051C00004D000E00123521C022AEBD3022A01D0B2
:1051D00069B904E04BB9022907D01220F0BD05EBF4
:1051E00002108089B0F5807F01D00020F0BD102032
:1051F000F0BD00009C06002030B50021054B0C4698
:1052000003EB01121568854200D11460491C022984
:10521000F6D330BD9C0600200268490AC06A528954
:10522000B1FBF2F1001D04C81AB1914203D3891AEF
:10523000F8E7002070470068084470474269891EFB
:10524000921E8A4201D800207047826A408901FB81
:10525000002070472DE9F04105680F00804606D018
:1052600000F0FEFE022809D20120BDE8F081EE68C0
:1052700016B16869B04207D8012605E0411CF4D098
:1052800069698142F1D83E4634466869641CA0428F
:1052900002D80224022E0AD32146404600F0E0FE46
:1052A00038B10128E1D0411CDFD0B442EDD100205B
:1052B000DBE74FF0FF3632462146284601F0F6F88C
:1052C00030B957B122463946284601F0EFF820B1EF
:1052D00001280FD001242046C7E7EC60D5E904017E
:1052E000891E884201D8401E2861287940F00100BB
:1052F0002871F0E73446EEE72DE9F0410E46243000
:105300000D6804460B22202101F0B0F80020014670
:1053100008272A5C401C202A12D92F2A0BD05C2A8D
:1053200009D02E2A01D0B94214D30B2F22D02E2A15
:1053300020D10CE0401C2B5C2F2BFBD05C2BF9D038
:1053400028443060B1B12078E5281FD020E0082142
:105350000B27DEE7802A03D3114B1A4412F8802C66
:1053600010A300E05B1C93F800C0BCF1000F04D058
:105370009445F7D10620BDE8F081A2F16103192B15
:1053800001D8203AD2B26254491CC2E705202070ED
:10539000202A01D8042000E00020E0720020EAE783
:1053A0003C690008222A2B2C3A3B3C3D3E3F5B5D8A
:1053B0007C7F0000401E022812D20A4901EB001136
:1053C0008889B0F5807F05D008B1401E80B2888101
:1053D00010B103E00020FAE70020086000207047C9
:1053E000022070479C0600202DE9F0410446002170
:1053F000056800F0D8F8002826D12846E16901F0B8
:105400003CF802001FD1206A017899B1C17A01F0FD
:105410003F01A171C17A09070FD404F124010B26C1
:1054200010F8013B11F8017BDB1B761E04D0002B2A
:10543000F6D002E0042206E02BB10021204600F065
:1054400005F80200D9D01046BDE8F0812DE9F047FB
:10545000054647690468C0698946203710B1B7F529
:10546000001F02D30420BDE8F087F90560D1401C7D
:10547000E861A9694FF0000829B16089401E10EA6F
:10548000572F05D054E02089B0EB571F1DD94FE0AE
:10549000284600F0E5FD064601281BD9701C33D0D4
:1054A0006069B0423ED8B9F1000F0ED02846A96914
:1054B000FFF7D0FE06000BD0012E0BD0701C23D0BE
:1054C000204601F0D5F9F8B906E0C5F81C80C9E717
:1054D0000720C8E70220C6E74FF40072002104F15C
:1054E000300000F0C3FF4FF0000831462046FFF7C0
:1054F000A5FE4FF00109E0620DE000BF84F80390C3
:10550000204601F0B5F908B10120ACE7E06A08F1E6
:105510000108401CE06261894145EFD8E16AA1EBD6
:105520000800E06231462046AE61FFF787FEE86181
:10553000C7F30800204430306F612862002092E7F2
:1055400070B504460021066800F02DF80DE03046E5
:10555000E16900F092FF50B9206A0078E52809D08F
:1055600040B101212046FFF771FF0028EFD0042849
:1055700007D007E03046E16900F07FFF050003D067
:105580000FE0072005460CE020220021206A00F0F1
:105590006DFF0B2204F12401206A00F05DFF012061
:1055A000F070284670BD2DE9F04107680E460546AB
:1055B000B1F5001F36D2F00634D16E61AC6824B963
:1055C0003878032805D37C6A1CB178894FEA4028D3
:1055D00012E03889B0EB561F24D9786A12E02846C9
:1055E00000F03EFD0446401C1AD0022C1AD3786904
:1055F000A04217D9A6EB080646452146EFD2384609
:10560000FFF71CFEC5E9064060B100EB5620E861DB
:10561000C6F308003844303028620020BDE8F0812D
:105620000120FBE70220F9E7084910B50B5C0022D6
:1056300053B901220A540A1801EB8000127A40681B
:105640000168104688470246104610BDBC0600207F
:1056500030B4054C231804EB80001B7A40680469C1
:105660001846A44630BC6047BC06002030B4054D47
:105670002C1805EB8000247A406885682046AC46EB
:1056800030BC6047BC060020044A111802EB8000C1
:10569000097A40684268084610470000BC060020AE
:1056A00030B4054D2C1805EB8000247A4068C5689D
:1056B0002046AC4630BC6047BC06002038B50446E6
:1056C00000F028FA00280CD16946204601F0F9F8CC
:1056D000002806D12069FFF76DFE002801D10021C6
:1056E000216038BD2DE9F74181B0904602980090C5
:1056F000684600F016FD040003D50B2004B0BDE899
:10570000F0810D4E002756F824501DB12846FFF7B2
:1057100073FD2F700198002800D0077046F8240010
:1057200002D0B8F1010F01D00020E7E7002201A963
:1057300002A800F009FBE1E71C0000202DE9F74377
:1057400092B005000BD002F03F063246694613A81E
:1057500000F0FAFA04004FF0000804D0ECE0092051
:1057600015B0BDE8F0830098049004A8139900F0E8
:1057700015FC04000ED19DF83F00000601D506245B
:1057800008E0700801D0012100E0002104A8FFF723
:1057900005FD044616F01C0F5DD04FF00109C4B1A1
:1057A000042C10D10020674902E0401C022804D2DA
:1057B00001EB00121268002AF7D1022807D004A8D2
:1057C000FFF7BEFE044646F008065CB1B4E01224C2
:1057D000B2E09DF8160010F0110F47D1700701D507
:1057E0000824A9E0300747D500F099FC07460C983B
:1057F00039460E3000F0ECFF0C983946163000F0B8
:10580000E7FF0C982021C1720C99009800F056FD1A
:10581000074600220C99009800F0C6FF0C98002162
:105820001C3000F0D5FF009981F8039017B3D1F830
:105830002C900022394604A800F045FF04007BD1DB
:105840004946009800F019FE04000098A7F10107EE
:10585000C7600DD070E0ECBB9DF81600C10601D505
:10586000042469E0B10703D5C00701D0072463E031
:10587000300701D546F040060098C06A68620C986F
:10588000A862700801D0012100E0002104A800F006
:1058900067FC2861B8B30C99009800F00FFDA86070
:1058A0000C981C3000F01DFDC5F82C80E8600099B4
:1058B0002960009905F130004FF40072C988A98071
:1058C0002E7585F81580C5F8208000218146C5F821
:1058D000188000E030E000F0C9FDB0062ED5EE687B
:1058E00066B3AE610098A968408947020FE0284678
:1058F00000F0B6FB0146012800D80224481C03D062
:10590000F61B24B105E01BE00124F61B01E0BE42BA
:10591000EDD8E96184B9F00510D00098FFF78EFC4E
:1059200070B100EB56222A62009801234946407864
:10593000FFF79CFE10B10124C5F8008020460FE758
:105940000224F9E79C0600200FB42DE9F0479CB033
:105950000DF198090090002001900DF14C08029083
:10596000259810F8011B2590002976D0252903D011
:10597000684600F010FEF3E7002510F8011B2E46E4
:105980002590302902D02D2902D010E0012500E019
:10599000022510F8011B259009E000BF06EB8600E8
:1059A00001EB40062598303E10F8011B2590A1F12F
:1059B00030000928F2D96C2901D04C2905D125984D
:1059C00045F0040510F8011B2590002945D0A1F1F0
:1059D00061000A46192801D8203AD2B24F2A42D093
:1059E00006DC422A3DD0432A38D0442AC0D13CE0CC
:1059F000532A0DD0552A38D0582AB9D11023680718
:105A000001D4442A33D059F8040B442A31D035E06C
:105A100059F8047B002400E0641C385D0028FBD1A9
:105A2000A80704D50CE02021684600F0B4FD20460C
:105A3000641CB042F7D303E068467F1C00F0ABFD66
:105A400039780029F8D103E02021684600F0A3FD51
:105A50002046641CB04283D2F6E753E019F8041BD9
:105A600086E70223CBE70823C9E70A23C7E759F8EB
:105A7000040B002802DA404245F00805002447469E
:105A8000B0FBF3F203FB1202B0FBF3F0D2B2092A2F
:105A900005D9782914D04FF0070C6244D2B23032C5
:105AA0003A55641C08B1202CEAD3280703D52D20D1
:105AB00008F80400641C2746E80704D0302003E0FF
:105AC0004FF0270CE9E72020824603E05146684664
:105AD00000F061FDA80703D438467F1CB042F5D31F
